:020000040000FA
:0400000087EF07F08F
:1006000000566572696669636174696F6E20666120
:10061000696C65640020202054727920416761690B
:100620006E202020200020456E746572205061737A
:1006300073776F72642000202054494D452020209C
:100640002045562020535000204368616E63657337
:10065000204C6566742000417474656D7074204F81
:100660007665720030303A30303A303000535543BE
:10067000434553530043200047310047320047337E
:1006800000473400474E004F4E004752000020EE16
:100690002BF010EE10F0070EDBCFE3FFE806FCE2D4
:1006A0001C50100FD96EDA6ADF500F6E0FC003F0C6
:1006B0000350D8A4060E046ECA0E056E72EC06F046
:1006C000020E2118D8A467EF03F069EF03F079EF69
:1006D00003F01DBE77EF03F01D5007E1060E1C5C12
:1006E000D8B075EF03F077EF03F079EF03F01C4A11
:1006F0001D2A030E2118D8A480EF03F082EF03F027
:100700009DEF03F0070E1C181D10D8B48AEF03F0FC
:100710008CEF03F09DEF03F01DBE98EF03F01D502A
:1007200009E1020E1C5CD8A098EF03F09AEF03F0E9
:100730009DEF03F01C06D8A01D062104D8A4A3EF4A
:1007400003F0A5EF03F0A9EF03F0000E1D6E070EF6
:100750001C6E070E1C181D10D8A4B1EF03F0B3EFE8
:1007600003F0C0EF03F0020E2118D8A4BAEF03F093
:10077000BCEF03F0C0EF03F0000E1D6E020E1C6E06
:10078000E80E1E5C030E1F58D8B0C9EF03F0CBEF84
:1007900003F0F5EF03F0CE0E0D6E1EC001F01FC08A
:1007A00002F0000E046E640E036E38EC06F0015089
:1007B000300FD6EC07F0CF0E0D6E000E046E0A0E51
:1007C000036E1EC001F01FC002F038EC06F001C03D
:1007D00008F002C009F0000E0B6E0A0E0A6EA8ECBB
:1007E00006F00850300FD6EC07F0BDEC05F0FFEC3A
:1007F00007F01200176E260E036E0350D8A4060EE3
:10080000046E800E056E72EC06F033C00FF034C03B
:1008100010F035C011F036C012F0050E1718D8A42C
:1008200014EF04F016EF04F026EF04F01C50130F41
:10083000D96EDA6A300EDF6E1C50C00F0D6E2A0EB4
:10084000D6EC07F01C4A1D2A3DEF04F0060E1718DF
:10085000D8A42DEF04F02FEF04F03DEF04F01C506E
:10086000130FD96EDA6A310EDF6E1C50C00F0D6E99
:100870002A0ED6EC07F022EF04F0040E1C181D100F
:10088000D8A445EF04F047EF04F04CEF04F01C50FF
:10089000130FD96EDA6ADF6A0F0E016E130E026E45
:1008A0007DEC05F001500210D8A459EF04F05BEF85
:1008B00004F067EF04F06D0E036E0350D8A4060E2B
:1008C000046EC20E056E72EC06F0A4EF04F037065B
:1008D000000E1D6E000E1C6E3750D8A472EF04F08F
:1008E00074EF04F08AEF04F0570E036E0350D8A49F
:1008F000060E046E800E056E72EC06F0010E036E9D
:100900000350D8A4060E046EC00E056E72EC06F0FD
:10091000A4EF04F0150E036E0350D8A4060E046E67
:10092000800E056E72EC06F0C00E0D6E3750300F63
:10093000D6EC07F0480E036E0350D8A4060E046EE2
:10094000C10E056E72EC06F01200819A818C818EC8
:1009500081B2ADEF04F0AFEF04F0B2EF04F0010E9E
:1009600028EF05F081B4B7EF04F0B9EF04F0BCEF65
:1009700004F0040E28EF05F081B6C1EF04F0C3EFD8
:1009800004F0C6EF04F0070E28EF05F081B8CBEFB6
:1009900004F0CDEF04F0D0EF04F00A0E28EF05F0DC
:1009A000818A819C818E81B2D8EF04F0DAEF04F065
:1009B000DDEF04F0020E28EF05F081B4E2EF04F061
:1009C000E4EF04F0E7EF04F0050E28EF05F081B640
:1009D000ECEF04F0EEEF04F0F1EF04F0080E28EF76
:1009E00005F081B8F6EF04F0F8EF04F0FBEF04F047
:1009F0000B0E28EF05F0818A818C819E819E81B249
:100A000004EF05F006EF05F009EF05F0030E28EFFF
:100A100005F081B40EEF05F010EF05F013EF05F0CF
:100A2000060E28EF05F081B618EF05F01AEF05F075
:100A30001DEF05F0090E28EF05F081B822EF05F053
:100A400024EF05F027EF05F00C0E28EF05F0FF0E60
:100A50001200000E956E9450F80B946E8290C30EA7
:100A6000036ECD0EE82EFED7032EFCD70000000E3D
:100A7000016E330E6AEC07F01B0E036E9E0EE82E1D
:100A8000FED7032EFCD700D0000E016E330E6AECA9
:100A900007F0A60EE82EFED700D0000E016E330E32
:100AA0006AEC07F000D000D00000000E016E020ECC
:100AB0006AEC07F0A60EE82EFED700D0000E016EFD
:100AC000380E6AEC07F0A60EE82EFED700D0000E16
:100AD000016E010E6AEC07F0040E036E3E0EE82E66
:100AE000FED7032EFCD7000E016E0C0E6AEC07F049
:100AF000A60EE82EFED700D01200000E086E000EE3
:100B0000076E000E066E000E056EACEF05F002508B
:100B10000724D96EDA6A01500724E16EE26ADE50DA
:100B2000E618D8B496EF05F098EF05F0ACEF05F0B5
:100B300001500724D96EDA6ADF50036E0250072491
:100B4000D96EDA6ADF50046E0450035C056E066AE3
:100B5000D8A00606B8EF05F001500724D96EDA6A6E
:100B6000DF50D8A4B6EF05F0B8EF05F087EF05F039
:100B700005C001F006C002F01200020EA2EC07F060
:100B8000196E010EA2EC07F01A6E000EA2EC07F02F
:100B90001B6E19ACCEEF05F0D0EF05F0DBEF05F0E2
:100BA00019380F0B010B300F226E19500F0B300F3D
:100BB000236EE4EF05F019380F0B030B300F226E94
:100BC00019500F0B300F236E3A0E246E1A380F0B8C
:100BD0000F0B300F256E1A500F0B300F266E3A0E8A
:100BE000276E1B380F0B0F0B300F286E1B500F0B8F
:100BF000300F296E000E2A6E1200016E0104D8A477
:100C000004EF06F006EF06F02AEF06F0A5EC04F07C
:100C1000206E2028D8B40FEF06F011EF06F01EEF7B
:100C200006F03850D8B417EF06F019EF06F01EEFB3
:100C300006F0000E386E205037EF06F02028D8A4BA
:100C400024EF06F026EF06F036EF06F0010E386EC0
:100C500036EF06F00150D8A430EF06F032EF06F080
:100C600036EF06F0A5EC04F037EF06F0FF0E1200A9
:100C7000000E066E000E056E03500410D8B443EF4C
:100C800006F045EF06F06DEF06F0010E076E4DEF32
:100C900006F0D89003360436072A04AE52EF06F069
:100CA00054EF06F049EF06F0D890053606360350AB
:100CB000015C04500258D8A060EF06F062EF06F025
:100CC00067EF06F00350015E0450025A0580D89089
:100CD00004320332072E54EF06F005C001F006C0BF
:100CE00002F01200000E016E05506AEC07F08FEF63
:100CF00006F0010E016E03C0F6FF04C0F7FFF86AAC
:100D0000050EF76403D00800F55005D0F6CFE9FFD3
:100D1000F7CFEAFFEF506AEC07F0034A042A03C05A
:100D2000F6FF04C0F7FFF86A050EF76403D0080069
:100D3000F55005D0F6CFE9FFF7CFEAFFEF500009F5
:100D4000D8A4A5EF06F0A7EF06F079EF06F01200A1
:100D50000A500B10D8B4AFEF06F0B1EF06F0D5EFA4
:100D600006F0010E0C6EB9EF06F0D8900A360B367D
:100D70000C2A0BAEBEEF06F0C0EF06F0B5EF06F0A2
:100D80000A50085C0B500958D8A0C9EF06F0CBEF09
:100D900006F0CFEF06F00A50085E0B50095AD890C3
:100DA0000B320A320C2EC0EF06F008C008F009C062
:100DB00009F012004BEC07F0000E186E010EFDEC6E
:100DC00005F0216E040E28EC07F001C01EF002C0F1
:100DD0001FF01850D8A4EFEF06F0F1EF06F0F5EF92
:100DE00006F047EC03F0DEEF06F01804D8A4FBEFA2
:100DF00006F0FDEF06F0DEEF06F02150FAEC03F00E
:100E0000DEEF06F000EF00F0000EA2EC07F0046E3B
:100E100004508009026E000EC7EC07F0020EA2EC2F
:100E200007F0046E04504009026E020EC7EC07F092
:100E3000930E026E070EC7EC07F0000EA2EC07F04F
:100E4000046E04507F0B026E000EC7EC07F0120018
:100E5000076E07C003F0D8900336D8900336C2500F
:100E6000C30B0310C26EC282C2B239EF07F03BEF70
:100E700007F034EF07F0C350C4CF03F0046A03C097
:100E800004F0036A0310056E0450066E05C001F0FD
:100E900006C002F0120029EC05F0EDEC07F0B7EC0B
:100EA00007F0E2EC07F004EC07F0370E036E035096
:100EB000D8A4060E046E800E056E72EC06F0640E69
:100EC000036E0350D8A4060E046EC00E056E72ECBD
:100ED00006F01200026E01B070EF07F073EF07F03A
:100EE000828274EF07F0829202C083FF8284829430
:100EF000958E828082928284829483BE82EF07F0F4
:100F000084EF07F07BEF07F08290959E12000E0EA3
:100F1000F66E100EF76E000EF86E00EE2BF010EE6F
:100F20000EF00900F5CFEEFFE550E150FAE100EEDA
:100F300019F0120EEE6AE806FDE1000EF86E0001EF
:100F4000DAEF06F0026E1EEC08F0D00E0EEC08F0A0
:100F500002500EEC08F022EC08F0D10E0EEC08F076
:100F600014EC08F0036E1AEC08F003501200C08E67
:100F7000C09AC088C096C090C082C094C292C19AE4
:100F8000C198000EC46E000EC36EC2801200036EC4
:100F90001EEC08F0D00E0EEC08F003500EEC08F03A
:100FA00002500EEC08F01AEC08F012000E6E000E63
:100FB000016E0D506AEC07F0010E016E0E506AECE6
:100FC00007F0120094869488280EC66E310EC86E03
:100FD000C79CC78E9E96A19612000F0EC16E1E0E64
:100FE000936EF19E8150E009816E12009EA6FBEF88
:100FF00007F0FDEF07F0F6EF07F09E961200220EC5
:10100000036E046AC00E056E72EC06F01200878A49
:1010100084787B7E8175303030300301016E01C0F1
:10102000C9FFF6EC07F0120026EC08F02AEC08F0F5
:10103000C9501200C584F6EC07F01200C580F6EC2A
:1010400007F01200C582F6EC07F01200C586F6EC38
:0A10500007F01200C58AC5881200DF
:020000040020DA
:08000000FFFFFFFFFFFFFFFF00
:020000040030CA
:0E000000FF071F1FFF8285FF0FC00FE00F409C
:00000001FF
