:020000040000FA
:0400000007EF00F016
:0A0008004F822DED09F0C2EF09F060
:1006000000202020202020535543434553532020D1
:100610002020200020202054727920416761696EDB
:10062000202020200020456E746572205061737375
:10063000776F72642000202054494D4520202020EF
:10064000455620205350002020202020202020200C
:10065000202020202020002053797374656D2042D3
:100660006C6F636B656400204368616E6365732023
:100670004C65667420004D656E7520456E7465721C
:10068000656400432000473100473200473300478C
:100690003400474E004F4E0047520000426E250E78
:1006A000266E2650D8A4060E276E800E286EC5EC46
:1006B00008F00850346E0950356E084A092A35BED4
:1006C0006DEF03F0F40E345C010E3558D8B06BEFCB
:1006D00003F06DEF03F075EF03F00A50C00F326EB8
:1006E0005F0E45EC0AF09DEF03F009BE81EF03F0C9
:1006F000F50E085C010E0958D8A081EF03F083EFD6
:1007000003F099EF03F009BE91EF03F0E80E085CE7
:10071000030E0958D8B08FEF03F091EF03F099EF73
:1007200003F00A50C00F326E200E45EC0AF09DEF28
:1007300003F0000E096E000E086E050E4218D8A4D4
:10074000A4EF03F0A6EF03F0B6EF03F00A501A0F80
:10075000D96EDA6A300EDF6E0A50C00F326E2A0E82
:1007600045EC0AF00A4A0B2ACDEF03F0060E4218B8
:10077000D8A4BDEF03F0BFEF03F0CDEF03F00A50B4
:100780001A0FD96EDA6A310EDF6E0A50C00F326E60
:100790002A0E45EC0AF0B2EF03F0040E0A180B1013
:1007A000D8A4D5EF03F0D7EF03F0DEEF04F00A5042
:1007B0001A0FD96EDA6ADF6A1F0E246E1A0E256EC2
:1007C00091EC07F024502510D8A4E9EF03F0EBEFEB
:1007D00003F005EF04F0470E266E2650D8A4060E4F
:1007E000276E800E286EC5EC08F0010E266E26508E
:1007F000D8A4060E276EC00E286EC5EC08F0010EB8
:10080000106EDEEF04F0DEEF04F04C50D8A40BEFD6
:1008100004F00DEF04F08BEF04F0F28AF28EF28C0C
:10082000570E266E2650D8A4060E276E800E286E10
:10083000C5EC08F0510E266E2650D8A4060E276E81
:10084000C00E286EC5EC08F0C50E326E4DC024F007
:10085000256A000E276E640E266E83EC06F0245087
:10086000300F45EC0AF0C60E326E000E276E0A0EEF
:10087000266E4DC024F0256A83EC06F024C02CF0CF
:1008800025C02DF0000E2F6E0A0E2E6EE5EC06F040
:100890002C50300F45EC0AF0C70E326E4DC02CF0D4
:1008A0002D6A000E2F6E0A0E2E6EE5EC06F02C500F
:1008B000300F45EC0AF0400E3E6E0D0E3F6E030EFB
:1008C000406E000E416E3E06000E3F5A405A415A9D
:1008D0003E280AE13F2808E1402806E14128D8A443
:1008E00074EF04F076EF04F063EF04F04D50D8A4F9
:1008F0007CEF04F07EEF04F003EF04F0020E4C6E88
:10090000000E0B6E000E0A6E000E246E010EDFEC60
:1009100009F0DEEF04F0140E266E2650D8A4060E61
:10092000276E800E286EC5EC08F0C00E326E4C505B
:10093000300F45EC0AF0670E266E2650D8A4060E3E
:10094000276EC10E286EC5EC08F0800E366E1A0EAA
:10095000376E060E386E000E396E000E3A6E000EBF
:100960003B6E000E3C6E000E3D6E3606000E375A92
:10097000385A395A3A5A3B5A3C5A3D5A362812E1AB
:10098000372810E138280EE139280CE13A280AE12D
:100990003B2808E13C2806E13D28D8A4D2EF04F02A
:1009A000D4EF04F0B5EF04F04C06000E0B6E000E11
:1009B0000A6E000E246E010EDFEC09F01200360EF6
:1009C000266E2650D8A4060E276E800E286EC5EC23
:1009D00008F020EE44F010EE35F0070EDBCFE3FF19
:1009E000E806FCE20A50350FD96EDA6ADF50346E41
:1009F00034C026F02650D8A4060E276ECA0E286EE4
:100A0000C5EC08F0020E0F18D8A409EF05F00BEFA3
:100A100005F01BEF05F00BBE19EF05F00B5007E1D9
:100A2000060E0A5CD8B017EF05F019EF05F01BEFC2
:100A300005F00A4A0B2A030E0F18D8A422EF05F07E
:100A400024EF05F03FEF05F0070E0A180B10D8B49D
:100A50002CEF05F02EEF05F03FEF05F00BBE3AEF5F
:100A600005F00B5009E1020E0A5CD8A03AEF05F040
:100A70003CEF05F03FEF05F00A06D8A00B060F0487
:100A8000D8A445EF05F047EF05F04BEF05F0000E59
:100A90000B6E070E0A6E070E0A180B10D8A453EF40
:100AA00005F055EF05F062EF05F0020E0F18D8A41F
:100AB0005CEF05F05EEF05F062EF05F0000E0B6EE7
:100AC000020E0A6EE80E0C5C030E0D58D8B06BEFE8
:100AD00005F06DEF05F097EF05F0CE0E326E0CC00D
:100AE00024F00DC025F0000E276E640E266E8BECF0
:100AF00008F02450300F45EC0AF0CF0E326E000E95
:100B0000276E0A0E266E0CC024F00DC025F08BEC6B
:100B100008F024C02BF025C02CF0000E2E6E0A0E1B
:100B20002D6EFBEC08F02B50300F45EC0AF0D3ECA7
:100B300007F078EC0AF01200819A818C818E81B2E4
:100B4000A4EF05F0A6EF05F0A9EF05F0010E1FEFE9
:100B500006F081B4AEEF05F0B0EF05F0B3EF05F0AD
:100B6000040E1FEF06F081B6B8EF05F0BAEF05F0FE
:100B7000BDEF05F0070E1FEF06F081B8C2EF05F0DC
:100B8000C4EF05F0C7EF05F00A0E1FEF06F0818AEB
:100B9000819C818E81B2CFEF05F0D1EF05F0D4EFCB
:100BA00005F0020E1FEF06F081B4D9EF05F0DBEF80
:100BB00005F0DEEF05F0050E1FEF06F081B6E3EF5E
:100BC00005F0E5EF05F0E8EF05F0080E1FEF06F081
:100BD00081B8EDEF05F0EFEF05F0F2EF05F00B0E49
:100BE0001FEF06F0818A818C819E819E81B2FBEF8E
:100BF00005F0FDEF05F000EF06F0030E1FEF06F025
:100C000081B405EF06F007EF06F00AEF06F0060ED6
:100C10001FEF06F081B60FEF06F011EF06F014EFAC
:100C200006F0090E1FEF06F081B819EF06F01BEF72
:100C300006F01EEF06F00C0E1FEF06F0FF0E12007E
:100C400013EC08F0000E436E010E50EC08F00F6E2E
:100C5000040E7FEC09F024C00CF025C00DF04350C9
:100C6000D8A435EF06F037EF06F04BEF06F0DFECD7
:100C700004F0050E0F18D8A440EF06F042EF06F07E
:100C800024EF06F0000E246E010EDFEC09F0010ED9
:100C9000436E24EF06F04304D8A451EF06F053EF5F
:100CA00006F067EF06F00F504EEC03F01004D8A4E6
:100CB0005CEF06F05EEF06F07FEF06F0000E246EAC
:100CC000010EDFEC09F0020E436E24EF06F0020E77
:100CD0004318D8A46EEF06F070EF06F07FEF06F031
:100CE0000F50A5EC0AF0760E266E2650D8A4060EFC
:100CF000276E800E286EC5EC08F024EF06F024EF76
:100D000006F007EF00F0000E296E27BE8CEF06F00C
:100D10008AEF06F092EF06F0266C271ED8B0272A3D
:100D2000010E296E25BE99EF06F097EF06F09FEFB2
:100D300006F0246C251ED8B0252A010E291A000EB3
:100D40002B6E000E2A6E26502710D8B4AAEF06F09C
:100D5000ACEF06F0D4EF06F0010E286EB4EF06F00B
:100D6000D89026362736282A27AEB9EF06F0BBEFF3
:100D700006F0B0EF06F0D8902A362B362650245CC9
:100D800027502558D8A0C7EF06F0C9EF06F0CEEFE0
:100D900006F02650245E2750255A2A80D890273204
:100DA0002632282EBBEF06F02950D8B4DAEF06F031
:100DB000DCEF06F0E0EF06F02A6C2B1ED8B02B2AF1
:100DC0002AC024F02BC025F01200000E316E2DBE7B
:100DD000EEEF06F0ECEF06F0F4EF06F02C6C2D1EB3
:100DE000D8B02D2A010E316E2FBEFBEF06F0F9EFC1
:100DF00006F0FFEF06F02E6C2F1ED8B02F2A2E50D3
:100E00002F10D8B406EF07F008EF07F02CEF07F02B
:100E1000010E306E10EF07F0D8902E362F36302AA4
:100E20002FAE15EF07F017EF07F00CEF07F02E507D
:100E30002C5C2F502D58D8A020EF07F022EF07F0A0
:100E400026EF07F02E502C5E2F502D5AD8902F32BF
:100E50002E32302E17EF07F03150D8B432EF07F0B2
:100E600034EF07F038EF07F02C6C2D1ED8B02D2A88
:100E70002CC02CF02DC02DF01200000E956E945059
:100E8000F80B946E8290C30E266ECD0EE82EFED720
:100E9000262EFCD70000000E246E330EDFEC09F086
:100EA0001B0E266E9E0EE82EFED7262EFCD700D0F7
:100EB000000E246E330EDFEC09F0A60EE82EFED7EE
:100EC00000D0000E246E330EDFEC09F000D000D00D
:100ED0000000000E246E020EDFEC09F0A60EE82ED4
:100EE000FED700D0000E246E380EDFEC09F0A60EFF
:100EF000E82EFED700D0000E246E010EDFEC09F0C4
:100F0000040E266E3E0EE82EFED7262EFCD7000ECF
:100F1000246E0C0EDFEC09F0A60EE82EFED700D0F2
:100F20001200000E2B6E000E2A6E000E296E000EAF
:100F3000286EC2EF07F025502A24D96EDA6A2450B1
:100F40002A24E16EE26ADE50E618D8B4AAEF07F070
:100F5000ACEF07F0C0EF07F024502A24D96EDA6A0C
:100F6000DF50266E25502A24D96EDA6ADF50276EAC
:100F70002750265C286E296AD8A02906CEEF07F0F4
:100F80002A4A2B2A24502A24D96EDA6ADF50D8A4A0
:100F9000CCEF07F0CEEF07F09BEF07F028C024F06E
:100FA00029C025F01200020E11EC0AF0056E010EA8
:100FB00011EC0AF0066E000E11EC0AF0076E05AC9B
:100FC000E4EF07F0E6EF07F0F1EF07F005380F0B5D
:100FD000010B300F116E05500F0B300F126EFAEF30
:100FE00007F005380F0B030B300F116E05500F0B78
:100FF000300F126E3A0E136E06380F0B0F0B300FB8
:10100000146E06500F0B300F156E3A0E166E073821
:101010000F0B0F0B300F176E07500F0B300F186EA2
:10102000000E196E12003DEC07F066EC0AF026EC9B
:101030000AF051EC0AF05BEC09F05CEC0AF0300EBF
:10104000256EC80EA2EC09F0300E256EC90EA2EC7A
:1010500009F0300E256ECA0EA2EC09F0300E256E96
:10106000CB0EA2EC09F0000E2A6E000E296E29505C
:101070001F0FD96EDA6A2950FCEC09F0DF6E294A9D
:101080002A2A2ABE4DEF08F02A5009E1040E295CF5
:10109000D8A04DEF08F04FEF08F037EF08F012003E
:1010A000246E2404D8A457EF08F059EF08F07DEF20
:1010B00008F09CEC05F00E6E0E28D8B462EF08F034
:1010C00064EF08F071EF08F04E50D8B46AEF08F002
:1010D0006CEF08F071EF08F0000E4E6E0E508AEFC4
:1010E00008F00E28D8A477EF08F079EF08F089EF20
:1010F00008F0010E4E6E89EF08F02450D8A483EF5B
:1011000008F085EF08F089EF08F09CEC05F08AEF15
:1011100008F0FF0E1200000E296E000E286E2650F9
:101120002710D8B496EF08F098EF08F0C0EF08F059
:10113000010E2A6EA0EF08F0D890263627362A2A0C
:1011400027AEA5EF08F0A7EF08F09CEF08F0D890C5
:10115000283629362650245C27502558D8A0B3EFCE
:1011600008F0B5EF08F0BAEF08F02650245E2750DB
:10117000255A2880D890273226322A2EA7EF08F049
:1011800028C024F029C025F01200000E246E28503B
:10119000DFEC09F0E2EF08F0010E246E26C0F6FF46
:1011A00027C0F7FFF86A050EF76403D00800F55072
:1011B00005D0F6CFE9FFF7CFEAFFEF50DFEC09F0FB
:1011C000264A272A26C0F6FF27C0F7FFF86A050E31
:1011D000F76403D00800F55005D0F6CFE9FFF7CF4C
:1011E000EAFFEF500009D8A4F8EF08F0FAEF08F092
:1011F000CCEF08F012002D502E10D8B402EF09F0F9
:1012000004EF09F028EF09F0010E2F6E0CEF09F042
:10121000D8902D362E362F2A2EAE11EF09F013EF6F
:1012200009F008EF09F02D502B5C2E502C58D8A057
:101230001CEF09F01EEF09F022EF09F02D502B5E94
:101240002E502C5AD8902E322D322F2E13EF09F01B
:101250002BC02BF02CC02CF012000600F2A433EFB0
:1012600009F035EF09F059EF09F0080ED624D66ED3
:10127000000ED720D76E010E0126000E0222032297
:101280000422210E011809E14E0E02180310041069
:10129000D8A44DEF09F04FEF09F058EF09F0000E18
:1012A000016E000E026E000E036E000E046E4D06FF
:1012B000F2944F921100000E11EC0AF0276E2750A5
:1012C0008009256E000E36EC0AF0020E11EC0AF0D1
:1012D000276E27504009256E020E36EC0AF0930E59
:1012E000256E070E36EC0AF0000E11EC0AF0276EA0
:1012F00027507F0B256E000E36EC0AF012002A6E86
:101300002AC026F0D8902636D8902636C250C30B75
:101310002610C26EC282C2B290EF09F092EF09F0BD
:101320008BEF09F0C350C4CF26F0276A26C027F000
:10133000266A2610286E2750296E28C024F029C05E
:1013400025F01200286E96EC0AF0A00E80EC0AF050
:10135000285080EC0AF0255080EC0AF092EC0AF05C
:101360000B0E276EB80E266E2606D8A02706262856
:1013700006E12728D8A4BFEF09F0C1EF09F0B4EFC8
:1013800009F01200180EF66E150EF76E000EF86ECC
:1013900000EE44F010EE0BF00900F5CFEEFFE55043
:1013A000E150FAE100EE01F0230EEE6AE806FDE1FD
:1013B0004F904F92000EF86E000120EF06F0256E60
:1013C00024B0E5EF09F0E8EF09F08282E9EF09F0D7
:1013D000829225C083FF82848294958E828082923D
:1013E0008284829483BEF7EF09F0F9EF09F0F0EF01
:1013F00009F08290959E1200256E96EC0AF0A00EE0
:1014000080EC0AF0255080EC0AF09AEC0AF0A10E6C
:1014100080EC0AF086EC0AF0266E92EC0AF0265078
:101420001200256E96EC0AF0D00E80EC0AF02550E2
:1014300080EC0AF09AEC0AF0D10E80EC0AF086EC0F
:101440000AF0266E92EC0AF026501200C08EC09A66
:10145000C088C096C090C082C094C292C19AC19800
:10146000000EC46E000EC36EC2801200266E96EC93
:101470000AF0D00E80EC0AF0265080EC0AF02550DD
:1014800080EC0AF092EC0AF01200336E000E246E2B
:101490003250DFEC09F0010E246E3350DFEC09F01E
:1014A000120094869488280EC66E310EC86EC79CB2
:1014B000C78E9E96A1961200D58CD59AD58ED586CC
:1014C000000ED76E060ED66EF29412000F0EC16E8D
:1014D0001E0E936EF19E8150E009816E12009EA651
:1014E00074EF0AF076EF0AF06FEF0AF09E961200A2
:1014F000110E266E276AC00E286EC5EC08F0120089
:10150000246E24C0C9FF6FEC0AF012009EEC0AF0B2
:10151000A2EC0AF0C950120095989286898C8F83AC
:0315200002B40111
:10152400C5846FEC0AF01200C5806FEC0AF012005B
:10153400C5826FEC0AF01200C5866FEC0AF0120047
:08154400C58AC58812001200DF
:020000040020DA
:08000000FFFFFFFFFFFFFFFF00
:020000040030CA
:0E000000FF071F1FFF8285FF0FC00FE00F409C
:00000001FF
