:020000040000FA
:0400000007EF00F016
:100008005E8227ED0CF0C3EF0BF01950800B266EC3
:10001800195019242D6E18AE14EF00F016EF00F0E9
:1000280017EF00F02D802D50D8B41DEF00F01FEF12
:1000380000F034EF00F02D28D8A425EF00F027EFCA
:1000480000F02FEF00F0000E166E000E176E000E77
:10005800186E000E196E188E000E196E3CEF00F027
:10006800000E166E000E176E000E186E000E196E3A
:100078001D50800B261A1D501D242E6E1CAE47EFF6
:1000880000F049EF00F04AEF00F02E802E50D8B46F
:1000980050EF00F052EF00F067EF00F02E28D8A4E0
:1000A80058EF00F05AEF00F062EF00F0000E1A6E01
:1000B800000E1B6E000E1C6E000E1D6E1C8E000EB8
:1000C8001D6E6FEF00F0000E1A6E000E1B6E000E14
:1000D8001C6E000E1D6E1A501B101C101D10D8A48B
:1000E80078EF00F07AEF00F092EF00F0000E166E55
:1000F800000E176E000E186E000E196E800E181284
:100108007F0E19122650191216C016F017C017F0D4
:1001180018C018F019C019F0D5EF01F02D50D8A467
:1001280098EF00F09AEF00F0A4EF00F0000E166EC2
:10013800000E176E000E186E000E196ED5EF01F046
:100148002E502DC01EF01F6A1E5E000E1F5A7F0E15
:100158001E24276E000E1F20286E16C022F017C01E
:1001680023F018C024F019C025F0000E166E000EFA
:10017800176E000E186E000E196E000E296E000E16
:100188002A6E000E2B6E000E2C6E000E2E6E05EFE2
:1001980001F02E50D8B4D3EF00F0D5EF00F0ECEF1B
:1001A80000F0D8902236233624362536D8901636D5
:1001B8001736183619362CAEE4EF00F0E6EF00F0EB
:1001C800E7EF00F01680D89029362A362B362C36E1
:1001D8001A50225C1B5023581C5024581D50255877
:1001E800D8A0F9EF00F0FBEF00F004EF01F02C8C41
:1001F8001A50225E1B50235A1C50245A1D50255A4F
:100208002E2A190E2E640BEF01F00DEF01F0CDEF41
:1002180000F02250231024102510D8B416EF01F056
:1002280018EF01F030EF01F0298030EF01F0D8909D
:1002380016361736183619362CAE25EF01F027EF8B
:1002480001F028EF01F01680D89029362A362B368F
:100258002C362706D8A0280618AE35EF01F037EF60
:1002680001F01BEF01F0000E2E6E2CAE3EEF01F0F8
:1002780040EF01F064EF01F0FF0E29141E6EFF0E2F
:100288002A141F6EFF0E2B14206E7F0E2C14216E65
:100298001E501F1020102110D8B455EF01F057EF51
:1002A80001F05BEF01F0010E2E6E64EF01F016A075
:1002B80060EF01F062EF01F064EF01F057EF01F039
:1002C8002E50D8B46AEF01F06CEF01F090EF01F016
:1002D800010E1626000E17221822192219A077EFF0
:1002E80001F079EF01F090EF01F016C01EF017C091
:1002F8001FF018C020F019C021F02134213220321B
:100308001F321E321EC016F01FC017F020C018F092
:1003180021C019F0274A282A28BE9BEF01F028504F
:1003280008E12728D8A09BEF01F09DEF01F0A8EF86
:1003380001F0000E286E2768000E166E000E176E6C
:10034800000E186E000E196E28BEB5EF01F0285089
:1003580006E12704D8B0B3EF01F0B5EF01F0C3EF21
:1003680001F0000E286E000E276E000E166E000EAD
:10037800176E000E186E000E196E000E266E27C03E
:100388002DF02DA0CAEF01F0CCEF01F0CFEF01F076
:10039800188ED0EF01F0189ED8902D30196E86EF88
:1003A80000F012001F6E600E036E2F0E046E800E9A
:1003B800056E8DEC0BF04250116E4350126E424A9E
:1003C800432A12BEF3EF01F0F40E115C010E12582D
:1003D800D8B0F1EF01F0F3EF01F0FBEF01F044507A
:1003E800C00F0F6E5F0E72EC0DF023EF02F043BEEC
:1003F80007EF02F0F50E425C010E4358D8A007EF54
:1004080002F009EF02F01FEF02F043BE17EF02F00F
:10041800E80E425C030E4358D8B015EF02F017EF10
:1004280002F01FEF02F04450C00F0F6E200E72EC66
:100438000DF023EF02F0000E436E000E426E050E23
:100448001F18D8A42AEF02F02CEF02F03CEF02F0BC
:1004580044508A0FD96EDA6A300EDF6E4450C00FEE
:100468000F6E2A0E72EC0DF0444A452A53EF02F043
:10047800060E1F18D8A443EF02F045EF02F053EF21
:1004880002F044508A0FD96EDA6A310EDF6E44509A
:10049800C00F0F6E2A0E72EC0DF038EF02F0040E4A
:1004A80044184510D8A45BEF02F05DEF02F048EF66
:1004B80003F044508A0FD96EDA6ADF6A8F0E016E34
:1004C8008A0E026E94EC0AF001500210D8A46FEF65
:1004D80002F071EF02F077EF02F0010E5A6E48EF6A
:1004E80003F048EF03F05B50D8A47DEF02F07FEFF4
:1004F80002F0F9EF02F0F28AF28EF28CA20E036E8D
:100508002F0E046E800E056E8DEC0BF0150E036E2B
:100518002F0E046EC00E056E8DEC0BF0C50E0F6E1F
:100528005CC001F0026A000E046E640E036E43ECB8
:1005380009F00150300F72EC0DF0C60E0F6E000E70
:10054800046E0A0E036E5CC001F0026A43EC09F007
:1005580001C009F002C00AF0000E0C6E0A0E0B6E04
:10056800A5EC09F00950300F72EC0DF0C70E0F6EB4
:100578005CC009F00A6A000E0C6E0A0E0B6EA5EC40
:1005880009F00950300F72EC0DF0400E1B6E0D0E85
:100598001C6E030E1D6E000E1E6E1B06000E1C5AEE
:1005A8001D5A1E5A1B280AE11C2808E11D2806E1CD
:1005B8001E28D8A4E2EF02F0E4EF02F0D1EF02F037
:1005C8005C50D8A4EAEF02F0ECEF02F075EF02F00D
:1005D800020E5B6E000E456E000E446E000E016E3C
:1005E800010EBCEC0CF048EF03F04F0E036E2F0E1B
:1005F800046E800E056E8DEC0BF0C00E0F6E5B5016
:10060800300F72EC0DF0C10E036E2F0E046EC10E8A
:10061800056E8DEC0BF0800E136E1A0E146E060E1E
:10062800156E000E166E000E176E000E186E000E78
:10063800196E000E1A6E1306000E145A155A165A21
:10064800175A185A195A1A5A132812E1142810E17D
:1006580015280EE116280CE117280AE1182808E1E8
:10066800192806E11A28D8A43CEF03F03EEF03F05E
:100678001FEF03F05B06000E456E000E446E000E81
:10068800016E010EBCEC0CF0120051EC0AF0000EE9
:1006980018EC0BF0596E5928D8B455EF03F057EF02
:1006A80003F070EF03F059C058F0464A472AE80EA5
:1006B800461807E1030E4718D8A465EF03F067EF63
:1006C80003F06CEF03F059500A0F596E99EF03F0DD
:1006D800000E596E99EF03F047BE7BEF03F04750C9
:1006E80008E14604D8A07BEF03F07DEF03F093EF19
:1006F80003F047BE8BEF03F0E80E465C030E475845
:10070800D8B089EF03F08BEF03F093EF03F0000EFE
:10071800476E000E466E58C059F099EF03F0000E70
:10072800476E000E466E000E596EAE0E1A6E470EDC
:100738001B6E250E1C6E410E1D6E040E79EC0CF01E
:1007480001C008F002C009F00A6A0B6A000E2EEC1C
:1007580005F008C016F009C017F00AC018F00BC061
:1007680019F009EC00F016C02FF017C030F018C0CF
:1007780031F019C032F050EC08F02FC048F030C00A
:1007880049F05750D8A4CBEF03F0CDEF03F0E1EFD9
:1007980003F03EEC07F0050E5918D8A4D6EF03F085
:1007A800D8EF03F04BEF03F0000E016E010EBCEC26
:1007B8000CF0010E576E4BEF03F05704D8A4E7EF87
:1007C80003F0E9EF03F0FFEF03F05950D6EC01F026
:1007D8005A04D8A4F2EF03F0F4EF03F04BEF03F060
:1007E800000E016E010EBCEC0CF0020E576E4BEFC2
:1007F80003F04BEF03F0020E5718D8A406EF04F0ED
:1008080008EF04F00DEF04F05950A5EC06F04BEF9B
:1008180003F0030E5718D8A414EF04F016EF04F0F1
:100828004BEF03F05650D8A41CEF04F01EEF04F071
:1008380023EF04F059503FEC04F04BEF03F0020EA5
:100848005618D8A42AEF04F02CEF04F031EF04F086
:10085800595033EC0DF04BEF03F05604D8A437EFA2
:1008680004F039EF04F0FDEF03F008EC06F04BEF6D
:1008780003F007EF00F0166E4F50D8A446EF04F0CF
:1008880048EF04F080EF04F0000E4E6E050E1618C7
:10089800D8A451EF04F053EF04F06CEF04F0FF0E0E
:1008A8005024116E126AFF0E12224D50136E146AF4
:1008B8001150135C1450800A156E1250800A155896
:1008C800D8B069EF04F06BEF04F06CEF04F04D2A38
:1008D800060E1618D8A473EF04F075EF04F0AFEF06
:1008E80004F04D50D8B47BEF04F07DEF04F0AFEF87
:1008F80004F04D06AFEF04F04F04D8A486EF04F0DF
:1009080088EF04F0AFEF04F050C04EF0050E161853
:10091800D8A491EF04F093EF04F09CEF04F0090ED3
:100928004D6099EF04F09BEF04F09CEF04F04D2A22
:10093800060E1618D8A4A3EF04F0A5EF04F0AFEF45
:1009480004F04D50D8B4ABEF04F0ADEF04F0AFEFC6
:1009580004F07DEF04F0000E186E000E176E1750AD
:100968006B0FD96EDA6A4E504D24096E0A6A0A3640
:10097800000E0C6E0A0E0B6EA5EC09F009500A0D5C
:10098800F350172409EC0DF0DF6E174A182A18BE29
:10099800D7EF04F0185009E10A0E175CD8A0D7EF7A
:1009A80004F0D9EF04F0B3EF04F02D0E036E2F0E10
:1009B800046E800E056E8DEC0BF0C00E0F6E4D5060
:1009C800300F72EC0DF0C20E0F6E00016B5172EC1D
:1009D8000DF0C30E0F6E00016C5172EC0DF0C40ED9
:1009E8000F6E3A0E72EC0DF0C50E0F6E00016D51D0
:1009F80072EC0DF0C60E0F6E00016E5172EC0DF028
:100A0800C70E0F6E3A0E72EC0DF0C80E0F6E000195
:100A18006F5172EC0DF0C90E0F6E0001705172EC3F
:100A28000DF0CB0E0F6E0001715172EC0DF0CC0E73
:100A38000F6E0001725172EC0DF0CE0E0F6E0001B8
:100A4800735172EC0DF0CF0E0F6E0001745172EC01
:100A58000DF01200106E1050D8B435EF05F037EFD6
:100A680005F059EF05F00BBE3EEF05F03CEF05F041
:100A780059EF05F008C00CF009C00DF00AC00EF0DF
:100A88000BC00FF00C1E0D1E0E1E0F1E0C2A000EA2
:100A98000D220E220F220CC012F00DC013F00EC052
:100AA80014F00FC015F061EF05F008C012F009C08E
:100AB80013F00AC014F00BC015F0085009100A1002
:100AC8000B10D8A46AEF05F06CEF05F076EF05F08F
:100AD800000E086E000E096E000E0A6E000E0B6EF8
:100AE80007EF06F0960E116E80EF05F0112AD890E8
:100AF8001532143213321232000E12140C6E000E1C
:100B080013140D6E000E14140E6EFE0E15140F6ED7
:100B18000C500D100E100F10D8A495EF05F097EF9C
:100B280005F07AEF05F0A5EF05F0112A010E12265F
:100B3800000E132214221522D890153214321332C3
:100B48001232000E12140C6E000E13140D6E000EED
:100B580014140E6EFF0E15140F6E0C500D100E109F
:100B68000F10D8A4BAEF05F0BCEF05F099EF05F027
:100B7800C4EF05F01106D890123613361436153620
:100B880014BEC9EF05F0CBEF05F0D3EF05F0020E68
:100B98001160D1EF05F0D3EF05F0BEEF05F011B00D
:100BA800D8EF05F0DAEF05F0DBEF05F0149ED890EA
:100BB800113211C00CF00D6A0E6A0F6A0CC00FF0EA
:100BC8000E6A0D6A0C6A0C5012120D5013120E5058
:100BD80014120F5015121050D8B4F5EF05F0F7EFB6
:100BE80005F0FFEF05F00BBEFEEF05F0FCEF05F09A
:100BF800FFEF05F0158E12C008F013C009F014C0FD
:100C08000AF015C00BF01200F70E036E2E0E046EDC
:100C1800800E056E8DEC0BF0D00E036E2F0E046E59
:100C2800C30E056E8DEC0BF04F04D8A41EEF06F032
:100C380020EF06F022EF06F00A0E4B6E4F50D8A4B4
:100C480028EF06F02AEF06F02CEF06F050C04BF024
:100C5800E30E026E2E0E036ED9EC0CF0000E4A6EF7
:100C680099EF06F0000E106E000E0F6E0F50600F19
:100C7800D96EDA6A4AC009F00A6A000E0C6E0A0ECA
:100C88000B6EA5EC09F009500A0DF3500F2409EC7E
:100C98000DF0DF6E0F4A102A10BE5CEF06F0105000
:100CA80009E10A0E0F5CD8A05CEF06F05EEF06F0D3
:100CB8003AEF06F00001605189EC0DF00001615136
:100CC80089EC0DF03A0E89EC0DF00001625189ECC7
:100CD8000DF00001635189EC0DF03A0E89EC0DF02E
:100CE8000001645189EC0DF00001655189EC0DF0AB
:100CF800200E89EC0DF00001665189EC0DF0000121
:100D0800675189EC0DF0200E89EC0DF00001685157
:100D180089EC0DF00001695189EC0DF0F40E026EBA
:100D28002E0E036ED9EC0CF04A2A4B504A5CD8A020
:100D3800A0EF06F0A2EF06F036EF06F0020E576EAF
:100D48001200116E5150020DF350A40FD96EDA6AD9
:100D5800DECF03F0DDCF04F0820E056E8DEC0BF0D4
:100D68005150020DF350A60FD96EDA6ADECF03F0A8
:100D7800DDCF04F0C20E056E8DEC0BF05350D8A4F5
:100D8800C8EF06F0CAEF06F0D6EF06F0800E0F6E39
:100D98002A0E72EC0DF0C00E0F6E200E72EC0DF0E4
:100DA800E0EF06F0800E0F6E200E72EC0DF0C00E14
:100DB8000F6E2A0E72EC0DF0050E1118D8A4E7EF8D
:100DC80006F0E9EF06F000EF07F05350D8A4EFEF74
:100DD80006F0F1EF06F0F6EF06F0010E536E522A18
:100DE80000EF07F0030E5160FCEF06F0FEEF06F08F
:100DF80000EF07F0512A522A060E1118D8A407EF5F
:100E080007F009EF07F020EF07F05304D8A40FEF1D
:100E180007F011EF07F016EF07F0000E536E5206B9
:100E280020EF07F05150D8B41CEF07F01EEF07F081
:100E380020EF07F0510652060F0E1118D8A427EF1D
:100E480007F029EF07F032EF07F0000E016E010EF0
:100E5800BCEC0CF0030E576E52C056F0100E111871
:100E6800D8A439EF07F03BEF07F03DEF07F0000E8D
:100E7800576E1200710E036E2F0E046E800E056EF3
:100E88008DEC0BF05450020DF350940FD96EDA6AC2
:100E9800DECF03F0DDCF04F0CA0E056E8DEC0BF04B
:100EA800020E5918D8A45BEF07F05DEF07F068EF62
:100EB80007F0060E546063EF07F065EF07F068EF80
:100EC80007F0542AD3EC08F0030E5918D8A46FEF92
:100ED80007F071EF07F085EF07F0070E5418D8B444
:100EE80078EF07F07AEF07F085EF07F0010E54640A
:100EF80080EF07F082EF07F085EF07F05406D3EC98
:100F080008F05904D8A48BEF07F08DEF07F091EFA4
:100F180007F0070E546ED3EC08F0070E5418D8A447
:100F280098EF07F09AEF07F0A7EF07F0020E5918AD
:100F3800D8A4A1EF07F0A3EF07F0A7EF07F0020E80
:100F4800546ED3EC08F0CE0E0F6E48C001F049C0C5
:100F580002F0000E046E0A0E036E53EC0BF0015003
:100F6800300F72EC0DF0CF0E0F6E48C001F049C083
:100F780002F0000E046E0A0E036EF5EC0BF0015041
:100F8800300F72EC0DF0D6EC0AF0B0EC0DF0120058
:100F9800819A818C818E81B2D4EF07F0D6EF07F069
:100FA800D9EF07F0010E4FEF08F081B4DEEF07F03C
:100FB800E0EF07F0E3EF07F0040E4FEF08F081B61B
:100FC800E8EF07F0EAEF07F0EDEF07F0070E4FEF55
:100FD80008F081B8F2EF07F0F4EF07F0F7EF07F049
:100FE8000A0E4FEF08F0818A819C818E81B2FFEF53
:100FF80007F001EF08F004EF08F0020E4FEF08F0D9
:1010080081B409EF08F00BEF08F00EEF08F0050EB9
:101018004FEF08F081B613EF08F015EF08F018EF5E
:1010280008F0080E4FEF08F081B81DEF08F01FEF29
:1010380008F022EF08F00B0E4FEF08F0818A818C40
:10104800819E819E81B22BEF08F02DEF08F030EFE2
:1010580008F0030E4FEF08F081B435EF08F037EFD2
:1010680008F03AEF08F0060E4FEF08F081B63FEFB0
:1010780008F041EF08F044EF08F0090E4FEF08F0D0
:1010880081B849EF08F04BEF08F04EEF08F00C0E6E
:101098004FEF08F0FF0E120031343234386E3850FA
:1010A800D8A459EF08F05BEF08F065EF08F0000EE0
:1010B8002F6E000E306E000E316E000E326ED2EFC3
:1010C80008F02FC033F030C034F031C035F032C0F2
:1010D80036F0200E75EF08F0D890363235323432BB
:1010E8003332E82E70EF08F03350376E318EFF0E32
:1010F8002F16FF0E3016FF0E3116000E3216960E02
:10110800385E38BE8CEF08F08AEF08F0A2EF08F0DE
:101118003850800A970FD8B094EF08F096EF08F08F
:1011280098EF08F05BEF08F0D89032323132303265
:101138002F32383E98EF08F0BAEF08F01F0E3864E7
:10114800A8EF08F0AAEF08F0B2EF08F05BEF08F09C
:10115800D8902F3630363136323638063850D8A443
:10116800B8EF08F0BAEF08F0ACEF08F03750D8B491
:10117800C0EF08F0C2EF08F0CAEF08F0321E311EC7
:10118800301E2F6C000E3022312232222FC02FF059
:1011980030C030F031C031F032C032F0120081C0BE
:1011A80076F082C077F084C078F085C079F087C087
:1011B8007AF088C07BF05450020DF350940FD96E2A
:1011C800DA6ADECFF6FFDDCFF7FF0800F5CF7CF057
:1011D8005450020DF350940FD96EDA6ADECF08F03E
:1011E800DDCF09F0010E0826000E092208C0F6FF1F
:1011F80009C0F7FF0800F5CF7DF048C001F049C0ED
:1012080002F0000E046E0A0E036E53EC0BF0015050
:10121800300F00017E6F48C001F049C002F0000E97
:10122800046E0A0E036EF5EC0BF00150300F00014E
:101238007F6F000E0A6E0A50760FD96EDA6ADF5099
:10124800026E50500A0DF3500A249CEC0CF00A2A46
:10125800090E0A6432EF09F034EF09F01FEF09F0C4
:10126800502A0A0E5018D8A43CEF09F03EEF09F0B6
:1012780042EF09F0000E506E010E4F6E1200000E84
:10128800066E04BE4CEF09F04AEF09F052EF09F080
:10129800036C041ED8B0042A010E066E02BE59EF74
:1012A80009F057EF09F05FEF09F0016C021ED8B0A2
:1012B800022A010E061A000E086E000E076E035071
:1012C8000410D8B46AEF09F06CEF09F094EF09F054
:1012D800010E056E74EF09F0D89003360436052A1E
:1012E80004AE79EF09F07BEF09F070EF09F0D890C0
:1012F800073608360350015C04500258D8A087EF1F
:1013080009F089EF09F08EEF09F00350015E0450EF
:10131800025A0780D89004320332052E7BEF09F079
:101328000650D8B49AEF09F09CEF09F0A0EF09F045
:10133800076C081ED8B0082A07C001F008C002F0E0
:101348001200000E0E6E0ABEAEEF09F0ACEF09F007
:10135800B4EF09F0096C0A1ED8B00A2A010E0E6E05
:101368000CBEBBEF09F0B9EF09F0BFEF09F00B6C49
:101378000C1ED8B00C2A0B500C10D8B4C6EF09F0CC
:10138800C8EF09F0ECEF09F0010E0D6ED0EF09F08F
:10139800D8900B360C360D2A0CAED5EF09F0D7EFE6
:1013A80009F0CCEF09F00B50095C0C500A58D8A092
:1013B800E0EF09F0E2EF09F0E6EF09F00B50095E03
:1013C8000C500A5AD8900C320B320D2ED7EF09F078
:1013D8000E50D8B4F2EF09F0F4EF09F0F8EF09F085
:1013E800096C0A1ED8B00A2A09C009F00AC00AF016
:1013F8001200000E956E9450F80B946E8290C30EF6
:10140800036ECD0EE82EFED7032EFCD70000000E8B
:10141800016E330EBCEC0CF01B0E036E9E0EE82E14
:10142800FED7032EFCD700D0000E016E330EBCECA5
:101438000CF0A60EE82EFED700D0000E016E330E7B
:10144800BCEC0CF000D000D00000000E016E020EC3
:10145800BCEC0CF0A60EE82EFED700D0000E016EF4
:10146800380EBCEC0CF0A60EE82EFED700D0000E0D
:10147800016E010EBCEC0CF0040E036E3E0EE82E5D
:10148800FED7032EFCD7000E016E0C0EBCEC0CF040
:10149800A60EE82EFED700D01200FDEC09F09EEC57
:1014A8000DF046EC0DF07EEC0DF055EC0CF094ECE4
:1014B8000DF0F4EC0CF0300E026EC80E9CEC0CF043
:1014C800300E026EC90E9CEC0CF0300E026ECA0E85
:1014D8009CEC0CF0300E026ECB0E9CEC0CF0000E67
:1014E800076E000E066E06508F0FD96EDA6A065028
:1014F800C80F09EC0DF0DF6E064A072A07BE8EEF0B
:101508000AF0075009E1040E065CD8A08EEF0AF035
:1015180090EF0AF077EF0AF0000E0001936F1200C7
:10152800000E086E000E076E000E066E000E056EA9
:10153800C5EF0AF002500724D96EDA6A0150072471
:10154800E16EE26ADE50E618D8B4ADEF0AF0AFEF0C
:101558000AF0C3EF0AF001500724D96EDA6ADF50A7
:10156800036E02500724D96EDA6ADF50046E045005
:10157800035C056E066AD8A00606D1EF0AF0074A92
:10158800082A01500724D96EDA6ADF50D8A4CFEFB1
:101598000AF0D1EF0AF09EEF0AF005C001F006C08C
:1015A80002F01200020E1EEC0DF03D6E010E1EEC54
:1015B8000DF03E6E000E1EEC0DF03F6E3DACE7EFF9
:1015C8000AF0E9EF0AF0F5EF0AF03D380F0B010BCE
:1015D800300F0001816F3D500F0B300F826FFFEF0E
:1015E8000AF03D380F0B030B300F0001816F3D509F
:1015F8000F0B300F826F3A0E836F3E380F0B0F0BB5
:10160800300F846F3E500F0B300F856F3A0E866F88
:101618003F380F0B0F0B300F876F3F500F0B300FFA
:10162800886F000E896F1200016E0104D8A41FEFA5
:101638000BF021EF0BF045EF0BF0CCEC07F0556EFB
:101648005528D8B42AEF0BF02CEF0BF039EF0BF03C
:101658005D50D8B432EF0BF034EF0BF039EF0BF0EC
:10166800000E5D6E555052EF0BF05528D8A43FEF91
:101678000BF041EF0BF051EF0BF0010E5D6E51EFE7
:101688000BF00150D8A44BEF0BF04DEF0BF051EFDE
:101698000BF0CCEC07F052EF0BF0FF0E1200000E2F
:1016A800066E000E056E03500410D8B45EEF0BF002
:1016B80060EF0BF088EF0BF0010E076E68EF0BF090
:1016C800D89003360436072A04AE6DEF0BF06FEF9F
:1016D8000BF064EF0BF0D890053606360350015C2A
:1016E80004500258D8A07BEF0BF07DEF0BF082EF8F
:1016F8000BF00350015E0450025A0580D890043262
:101708000332072E6FEF0BF005C001F006C002F0A0
:101718001200000E016E0550BCEC0CF0AAEF0BF0A5
:10172800010E016E03C0F6FF04C0F7FFF86A050E4C
:10173800F76403D00800F55005D0F6CFE9FFF7CFDE
:10174800EAFFEF50BCEC0CF0034A042A03C0F6FF92
:1017580004C0F7FFF86A050EF76403D00800F550D7
:1017680005D0F6CFE9FFF7CFEAFFEF500009D8A47C
:10177800C0EF0BF0C2EF0BF094EF0BF01200CA0EA3
:10178800F66E1A0EF76E000EF86E00EE94F010EE7C
:101798001AF00900F5CFEEFFE550E150FAE1AE0E80
:1017A800F66E1B0EF76E000EF86E0900F5CF5BF0B3
:1017B8000900F5CF5CF00900F5CF5DF000EE60F0B0
:1017C800340EEE6AE806FDE100EE39F0220EEE6A0C
:1017D800E806FDE15E905E92000EF86E000149EFAA
:1017E80003F003500410D8B4FCEF0BF0FEEF0BF03D
:1017F80022EF0CF0010E056E06EF0CF0D8900336C0
:101808000436052A04AE0BEF0CF00DEF0CF002EFD6
:101818000CF00350015C04500258D8A016EF0CF0ED
:1018280018EF0CF01CEF0CF00350015E0450025A44
:10183800D89004320332052E0DEF0CF001C001F0F0
:1018480002C002F012000600F2A42DEF0CF02FEFF8
:101858000CF053EF0CF0080ED624D66E000ED720ED
:10186800D76E010E3926000E3A223B223C22210E69
:10187800391809E14E0E3A183B103C10D8A447EF2E
:101888000CF049EF0CF052EF0CF0000E396E000E20
:101898003A6E000E3B6E000E3C6E5C06F2945E9251
:1018A8001100000E1EEC0DF0046E04508009026E4B
:1018B800000E56EC0DF0020E1EEC0DF0046E0450F6
:1018C8004009026E020E56EC0DF0930E026E070EE2
:1018D80056EC0DF0000E1EEC0DF0046E04507F0B5C
:1018E800026E000E56EC0DF01200076E07C003F0F2
:1018F800D8900336D8900336C250C30B0310C26E7B
:10190800C282C2B28AEF0CF08CEF0CF085EF0CF0BB
:10191800C350C4CF03F0046A03C004F0036A031081
:10192800056E0450066E05C001F006C002F01200F4
:10193800056EC8EC0DF0A00EB8EC0DF00550B8EC33
:101948000DF00250B8EC0DF0C4EC0DF00B0E046E67
:10195800B80E036E0306D8A00406032806E104287F
:10196800D8A4B9EF0CF0BBEF0CF0AEEF0CF01200FE
:10197800026E01B0C2EF0CF0C5EF0CF08282C6EF28
:101988000CF0829202C083FF82848294958E8280BA
:1019980082928284829483BED4EF0CF0D6EF0CF04E
:1019A800CDEF0CF08290959E1200E5EF0CF002C08E
:1019B800F6FF03C0F7FF0800F55089EC0DF0024A66
:1019C800032A02C0F6FF03C0F7FF0800F55000091C
:1019D800D8A4F1EF0CF0F3EF0CF0DBEF0CF01200F1
:1019E800948E949CAC9CAC8AAC98AC96AC84AB8E30
:1019F800AB9CAB88B89EB896B892B890810EAF6E83
:101A08009D889E989D8A9E9A1200026EC8EC0DF0E1
:101A1800A00EB8EC0DF00250B8EC0DF0CCEC0DF0C7
:101A2800A10EB8EC0DF0BEEC0DF0036EC4EC0DF099
:101A380003501200026EC8EC0DF0D00EB8EC0DF099
:101A48000250B8EC0DF0CCEC0DF0D10EB8EC0DF066
:101A5800BEEC0DF0036EC4EC0DF003501200000E46
:101A6800506E1B0E036E2F0E046E800E056E8DECED
:101A78000BF0090E036E2F0E046EC00E056E8DEC72
:101A88000BF01200C08EC09AC088C096C090C08269
:101A9800C094C292C19AC198000EC46E000EC36E63
:101AA800C2801200036EC8EC0DF0D00EB8EC0DF039
:101AB8000350B8EC0DF00250B8EC0DF0C4EC0DF08A
:101AC8001200F92FFC2FF62FEA2FED2FF02FF32F0E
:101AD800E72FB22F822F3E2FDE2F922F106E000E8F
:101AE800016E0F50BCEC0CF0010E016E1050BCECF6
:101AF8000CF0120094869488280EC66E310EC86EBB
:101B0800C79CC78E9E96A1961200016E9EA88FEF65
:101B18000DF091EF0DF08AEF0DF001C0ADFF12004E
:101B2800D58CD59AD58ED586000ED76E060ED66E74
:101B3800F29412000F0EC16E1E0E936EF19E81502C
:101B4800E009816E12009EA6ACEF0DF0AEEF0DF02D
:101B5800A7EF0DF09E961200810E036E046AC00E68
:101B6800056E8DEC0BF01200016E01C0C9FFA7ECE9
:101B78000DF01200D0EC0DF0D4EC0DF0C9501200AD
:101B8800C584A7EC0DF01200C580A7EC0DF012007B
:101B9800C582A7EC0DF01200C586A7EC0DF0120067
:091BA800C58AC588120002B401CF
:102EE20000232054494D45202020455620202053C0
:102EF20050200A0D002020446F776E6C6F616420B1
:102F02004C6F67202020002020202020202020201D
:102F12002020202020202020002020204C4F47204D
:102F2200434C454152454420202000456E74657251
:102F320065642056696577204C6F6700436C656154
:102F420072204C6F6720202020202020002020208B
:102F520054727920416761696E202020200020454B
:102F62006E7465722050617373776F7264200020F3
:102F72002054494D45202020204556202053500002
:102F8200446F776E6C6F6164206C6F672020200045
:102F92004368616E67652050617373776F72640076
:102FA2002053797374656D20426C6F636B656400A6
:102FB20056696577204C6F67202020202020002052
:102FC2004368616E636573204C656674200020530C
:102FD20055434345535346554C4C2000536574208A
:102FE20074696D6500432000473100473200473362
:0E2FF20000473400474E004F4E00475200008B
:020000040020DA
:08000000FFFFFFFFFFFFFFFF00
:020000040030CA
:0E000000FF071F1FFF8285FF0FC00FE00F409C
:00000001FF
