:020000040000FA
:040000002DEF06F0EA
:100600000020456E7465722050617373776F726459
:100610002000202054494D452020202045562020F0
:1006200053500030303A30303A30300043200047E9
:100630003100473200473300473400474E004F4EE9
:0506400000475200001C
:1006460020EE15F010EE0BF0070EDBCFE3FFE80609
:10065600FCE222500B0FD96EDA6ADF50036ECA0E27
:10066600046E4AEC06F0020E2718D8A43DEF03F0FC
:100676003FEF03F04FEF03F023BE4DEF03F023509F
:1006860007E1060E225CD8B04BEF03F04DEF03F006
:100696004FEF03F0224A232A030E2718D8A456EF59
:1006A60003F058EF03F069EF03F023BE64EF03F0A5
:1006B600235009E1020E225CD8A064EF03F066EF36
:1006C60003F069EF03F02206D8A023062704D8A476
:1006D6006FEF03F071EF03F075EF03F0000E236E7A
:1006E600070E226E070E22182310D8A47DEF03F002
:1006F6007FEF03F095EF03F0020E2718D8B486EFCC
:1007060003F088EF03F091EF03F0030E2718D8A447
:100716008FEF03F091EF03F095EF03F0000E236ED9
:10072600020E226E040E0AEC06F001C024F002C08E
:1007360025F025BEAAEF03F0255007E1640E245CE0
:10074600D8B0A8EF03F0AAEF03F0CAEF03F0CE0E7D
:10075600096E24C001F025C002F0000E046E0A0ED8
:10076600036E4FEC04F00150300FA7EC06F0CF0EED
:10077600096E24C001F025C002F0000E046E0A0EB8
:10078600036EB1EC04F00150300FA7EC06F0120036
:10079600819A818C818E81B2D3EF03F0D5EF03F07D
:1007A600D8EF03F0010E4EEF04F081B4DDEF03F055
:1007B600DFEF03F0E2EF03F0040E4EEF04F081B634
:1007C600E7EF03F0E9EF03F0ECEF03F0070E4EEF6F
:1007D60004F081B8F1EF03F0F3EF03F0F6EF03F066
:1007E6000A0E4EEF04F0818A819C818E81B2FEEF63
:1007F60003F000EF04F003EF04F0020E4EEF04F0F6
:1008060081B408EF04F00AEF04F00DEF04F0050ED2
:100816004EEF04F081B612EF04F014EF04F017EF78
:1008260004F0080E4EEF04F081B81CEF04F01EEF42
:1008360004F021EF04F00B0E4EEF04F0818A818C58
:10084600819E819E81B22AEF04F02CEF04F02FEFF7
:1008560004F0030E4EEF04F081B434EF04F036EFEB
:1008660004F039EF04F0060E4EEF04F081B63EEFC9
:1008760004F040EF04F043EF04F0090E4EEF04F0ED
:1008860081B848EF04F04AEF04F04DEF04F00C0E87
:100896004EEF04F0FF0E1200000E066E04BE58EF77
:1008A60004F056EF04F05EEF04F0036C041ED8B0BB
:1008B600042A010E066E02BE65EF04F063EF04F033
:1008C6006BEF04F0016C021ED8B0022A010E061A64
:1008D600000E086E000E076E03500410D8B476EFB3
:1008E60004F078EF04F0A0EF04F0010E056E80EF3F
:1008F60004F0D89003360436052A04AE85EF04F0DA
:1009060087EF04F07CEF04F0D890073608360350E2
:10091600015C04500258D8A093EF04F095EF04F060
:100926009AEF04F00350015E0450025A0780D890F3
:1009360004320332052E87EF04F00650D8B4A6EF32
:1009460004F0A8EF04F0ACEF04F0076C081ED8B072
:10095600082A07C001F008C002F01200000E066E59
:1009660002BEBAEF04F0B8EF04F0C0EF04F0016C79
:10097600021ED8B0022A010E066E04BEC7EF04F0AE
:10098600C5EF04F0CBEF04F0036C041ED8B0042AC4
:1009960003500410D8B4D2EF04F0D4EF04F0F8EF0B
:1009A60004F0010E056EDCEF04F0D8900336043631
:1009B600052A04AEE1EF04F0E3EF04F0D8EF04F00B
:1009C6000350015C04500258D8A0ECEF04F0EEEF9F
:1009D60004F0F2EF04F00350015E0450025AD8907E
:1009E60004320332052EE3EF04F00650D8B4FEEFCE
:1009F60004F000EF05F004EF05F0016C021ED8B01C
:100A0600022A01C001F002C002F01200000E956E2B
:100A16009450F80B946E8290C30E036ECD0EE82EA2
:100A2600FED7032EFCD70000000E016E330E67ECD6
:100A360006F01B0E036E9E0EE82EFED7032EFCD785
:100A460000D0000E016E330E67EC06F0A60EE82EFF
:100A5600FED700D0000E016E330E67EC06F000D014
:100A660000D00000000E016E020E67EC06F0A60E26
:100A7600E82EFED700D0000E016E380E67EC06F0A9
:100A8600A60EE82EFED700D0000E016E010E67EC12
:100A960006F0040E036E3E0EE82EFED7032EFCD79C
:100AA600000E016E0C0E67EC06F0A60EE82EFED7C1
:100AB60000D01200136E010E036E800E046E4AEC17
:100AC60006F01DC00BF01EC00CF01FC00DF020C0BC
:100AD6000EF0050E1318D8A473EF05F075EF05F0A8
:100AE60085EF05F022500F0FD96EDA6A300EDF6EF1
:100AF6002250C00F096E2A0EA7EC06F0224A232ABE
:100B06009CEF05F0060E1318D8A48CEF05F08EEFB7
:100B160005F09CEF05F022500F0FD96EDA6A310E00
:100B2600DF6E2250C00F096E2A0EA7EC06F081EF89
:100B360005F0040E22182310D8A4A4EF05F0A6EFA2
:100B460005F0ABEF05F022500F0FD96EDA6ADF6AB7
:100B56001200016E0104D8A4B3EF05F0B5EF05F05D
:100B6600D9EF05F0CBEC03F0266E2628D8B4BEEFFD
:100B760005F0C0EF05F0CDEF05F02150D8B4C6EF73
:100B860005F0C8EF05F0CDEF05F0000E216E2650FA
:100B9600E6EF05F02628D8A4D3EF05F0D5EF05F04B
:100BA600E5EF05F0010E216EE5EF05F00150D8A442
:100BB600DFEF05F0E1EF05F0E5EF05F0CBEC03F034
:100BC600E6EF05F0FF0E120084EC06F0000E146E40
:100BD600010EACEC05F0276E1450D8A4F5EF05F025
:100BE600F7EF05F0FBEF05F023EC03F0EBEF05F074
:100BF6001404D8A401EF06F003EF06F0EBEF05F0BE
:100C060027505DEC05F0EBEF05F000EF00F0076E06
:100C160007C003F0D8900336D8900336C250C30BF2
:100C26000310C26EC282C2B21BEF06F01DEF06F0C1
:100C360016EF06F0C350C4CF03F0046A03C004F0F5
:100C4600036A0310056E0450066E05C001F006C067
:100C560002F01200780EF66E0D0EF76E000EF86EAC
:100C660000EE15F010EE0DF00900F5CFEEFFE550A1
:100C7600E150FAE1276A266A256A246A236A226A0B
:100C8600000EF86E060EF76E0001E7EF05F0000E97
:100C9600016E045067EC06F05AEF06F0010E016E85
:100CA60003C0F6FF0800F55067EC06F0032A03C000
:100CB600F6FF0800F5500009D8A464EF06F066EFC9
:100CC60006F051EF06F01200026E01B06DEF06F06D
:100CD60070EF06F0828271EF06F0829202C083FF07
:100CE60082848294958E828082928284829483BE4C
:100CF6007FEF06F081EF06F078EF06F08290959E82
:100D0600120009EC05F0B3EC06F097EC06F0120EB3
:100D1600036E800E046E4AEC06F0230E036EC00EC0
:100D2600046E4AEC06F01200C08EC09AC088C096C7
:100D3600C090C082C094C292C19AC198000EC46E7F
:100D4600000EC36EC28012000A6E000E016E0950BC
:100D560067EC06F0010E016E0A5067EC06F0120011
:100D66000F0EC16E1E0E936EF19E8150E009816ECC
:0F0D760012003E413B2F3235382C3030303001E7
:020000040020DA
:08000000FFFFFFFFFFFFFFFF00
:020000040030CA
:0E000000FF071F1FFF8285FF0FC00FE00F409C
:00000001FF
