:020000040000FA
:0400000007EF00F016
:100008005F82B6ED10F052EF10F01950800B266E9B
:10001800195019242D6E18AE14EF00F016EF00F0E9
:1000280017EF00F02D802D50D8B41DEF00F01FEF12
:1000380000F034EF00F02D28D8A425EF00F027EFCA
:1000480000F02FEF00F0000E166E000E176E000E77
:10005800186E000E196E188E000E196E3CEF00F027
:10006800000E166E000E176E000E186E000E196E3A
:100078001D50800B261A1D501D242E6E1CAE47EFF6
:1000880000F049EF00F04AEF00F02E802E50D8B46F
:1000980050EF00F052EF00F067EF00F02E28D8A4E0
:1000A80058EF00F05AEF00F062EF00F0000E1A6E01
:1000B800000E1B6E000E1C6E000E1D6E1C8E000EB8
:1000C8001D6E6FEF00F0000E1A6E000E1B6E000E14
:1000D8001C6E000E1D6E1A501B101C101D10D8A48B
:1000E80078EF00F07AEF00F092EF00F0000E166E55
:1000F800000E176E000E186E000E196E800E181284
:100108007F0E19122650191216C016F017C017F0D4
:1001180018C018F019C019F0D5EF01F02D50D8A467
:1001280098EF00F09AEF00F0A4EF00F0000E166EC2
:10013800000E176E000E186E000E196ED5EF01F046
:100148002E502DC01EF01F6A1E5E000E1F5A7F0E15
:100158001E24276E000E1F20286E16C022F017C01E
:1001680023F018C024F019C025F0000E166E000EFA
:10017800176E000E186E000E196E000E296E000E16
:100188002A6E000E2B6E000E2C6E000E2E6E05EFE2
:1001980001F02E50D8B4D3EF00F0D5EF00F0ECEF1B
:1001A80000F0D8902236233624362536D8901636D5
:1001B8001736183619362CAEE4EF00F0E6EF00F0EB
:1001C800E7EF00F01680D89029362A362B362C36E1
:1001D8001A50225C1B5023581C5024581D50255877
:1001E800D8A0F9EF00F0FBEF00F004EF01F02C8C41
:1001F8001A50225E1B50235A1C50245A1D50255A4F
:100208002E2A190E2E640BEF01F00DEF01F0CDEF41
:1002180000F02250231024102510D8B416EF01F056
:1002280018EF01F030EF01F0298030EF01F0D8909D
:1002380016361736183619362CAE25EF01F027EF8B
:1002480001F028EF01F01680D89029362A362B368F
:100258002C362706D8A0280618AE35EF01F037EF60
:1002680001F01BEF01F0000E2E6E2CAE3EEF01F0F8
:1002780040EF01F064EF01F0FF0E29141E6EFF0E2F
:100288002A141F6EFF0E2B14206E7F0E2C14216E65
:100298001E501F1020102110D8B455EF01F057EF51
:1002A80001F05BEF01F0010E2E6E64EF01F016A075
:1002B80060EF01F062EF01F064EF01F057EF01F039
:1002C8002E50D8B46AEF01F06CEF01F090EF01F016
:1002D800010E1626000E17221822192219A077EFF0
:1002E80001F079EF01F090EF01F016C01EF017C091
:1002F8001FF018C020F019C021F02134213220321B
:100308001F321E321EC016F01FC017F020C018F092
:1003180021C019F0274A282A28BE9BEF01F028504F
:1003280008E12728D8A09BEF01F09DEF01F0A8EF86
:1003380001F0000E286E2768000E166E000E176E6C
:10034800000E186E000E196E28BEB5EF01F0285089
:1003580006E12704D8B0B3EF01F0B5EF01F0C3EF21
:1003680001F0000E286E000E276E000E166E000EAD
:10037800176E000E186E000E196E000E266E27C03E
:100388002DF02DA0CAEF01F0CCEF01F0CFEF01F076
:10039800188ED0EF01F0189ED8902D30196E86EF88
:1003A80000F01200176E4950D8A4DDEF01F0DFEF1E
:1003B80001F073EF02F0BD0E036E2E0E046E800E78
:1003C800056E1CEC10F03E50116E3F50126E3E4A06
:1003D8003F2A12BEFBEF01F0F40E115C010E125819
:1003E800D8B0F9EF01F0FBEF01F003EF02F04A504B
:1003F800C00F0F6E5F0EDEEC11F02BEF02F03FBE68
:100408000FEF02F0F50E3E5C010E3F58D8A00FEF3B
:1004180002F011EF02F027EF02F03FBE1FEF02F0EB
:10042800E80E3E5C030E3F58D8B01DEF02F01FEFF8
:1004380002F027EF02F04A50C00F0F6E200EDEECDC
:1004480011F02BEF02F0000E3F6E000E3E6E050E0F
:100458001718D8A432EF02F034EF02F043EF02F09D
:100468004A50910FD96EDA6A300EDF6E4A50C00FCB
:100478000F6E2A0EDEEC11F04A2A5AEF02F0060E31
:100488001718D8A44AEF02F04CEF02F05AEF02F026
:100498004A50910FD96EDA6A310EDF6E4A50C00F9A
:1004A8000F6E2A0EDEEC11F040EF02F0040E4A182F
:1004B800D8A461EF02F063EF02F08BEF03F04A502B
:1004C800910FD96EDA6ADF6A010E496E000E4A6E24
:1004D800000E016E010E4CEC11F08BEF03F0490495
:1004E800D8A479EF02F07BEF02F08BEF03F06F0EE8
:1004F800036E2E0E046E800E056E1CEC10F03E503E
:10050800116E3F50126E3E4A3F2A12BE97EF02F01C
:10051800F40E115C010E1258D8B095EF02F097EF67
:1005280002F09FEF02F04A50C00F0F6E5F0EDEEC34
:1005380011F0C7EF02F03FBEABEF02F0F50E3E5CE4
:10054800010E3F58D8A0ABEF02F0ADEF02F0C3EFB9
:1005580002F03FBEBBEF02F0E80E3E5C030E3F58D0
:10056800D8B0B9EF02F0BBEF02F0C3EF02F04A5087
:10057800C00F0F6E200EDEEC11F0C7EF02F0000E78
:100588003F6E000E3E6E050E1718D8A4CEEF02F08F
:10059800D0EF02F0DFEF02F04A508C0FD96EDA6A22
:1005A800300EDF6E4A50C00F0F6E2A0EDEEC11F0CF
:1005B8004A2AF6EF02F0060E1718D8A4E6EF02F062
:1005C800E8EF02F0F6EF02F04A508C0FD96EDA6AC3
:1005D800310EDF6E4A50C00F0F6E2A0EDEEC11F09E
:1005E800DCEF02F0040E4A18D8A4FDEF02F0FFEF8A
:1005F80002F08BEF03F04A508C0FD96EDA6ADF6A8B
:10060800910E016E8C0E026E29EC0FF00150021053
:10061800D8A411EF03F013EF03F089EF03F091C0B2
:100628009BF091C002F0C80E2CEC11F092C09CF027
:1006380092C002F0C90E2CEC11F093C09DF093C04B
:1006480002F0CA0E2CEC11F094C09EF094C002F097
:10065800CB0E2CEC11F0980E036E2E0E046E800E4D
:10066800056E1CEC10F0170E036E2F0E046EC00EF4
:10067800056E1CEC10F0400E136E0D0E146E030E7A
:10068800156E000E166E1306000E145A155A165AD9
:1006980013280AE1142808E1152806E11628D8A429
:1006A80058EF03F05AEF03F047EF03F0000E4A6EDD
:1006B800000E496E000183510A0DF3508425F00F96
:1006C800396E86510A0DF3508725F00F3A6E89511D
:1006D8000A0DF3508A25F00F3B6E56C03CF042C01D
:1006E8003DF0000E186E1850390FD96EDA6ADF50D7
:1006F800026E18502CEC11F0182A040E186487EFBB
:1007080003F089EF03F077EF03F0020E596E120041
:100718001F6E00017F4B802B890E7F1907E1130E96
:100728008019D8A49AEF03F09CEF03F0A2EF03F02E
:10073800000E806F000E7F6F000E596E6C0E036EF8
:100748002F0E046E800E056E1CEC10F00001815116
:10075800116E8251126E814B822B12BEBFEF03F0D5
:10076800F40E115C010E1258D8B0BDEF03F0BFEFC4
:1007780003F0C7EF03F05550C00F0F6E5F0EDEECAD
:1007880011F0EFEF03F082BFD3EF03F0F50E815DB8
:10079800010E8259D8A0D3EF03F0D5EF03F0EBEFA9
:1007A80003F082BFE3EF03F0E80E815D030E825988
:1007B800D8B0E1EF03F0E3EF03F0EBEF03F05550AF
:1007C800C00F0F6E200EDEEC11F0EFEF03F0000EFD
:1007D800826F000E816F050E1F18D8A4F6EF03F084
:1007E800F8EF03F007EF04F05550960FD96EDA6A68
:1007F800300EDF6E5550C00F0F6E2A0EDEEC11F072
:10080800552A1EEF04F0060E1F18D8A40EEF04F0A8
:1008180010EF04F01EEF04F05550960FD96EDA6A07
:10082800310EDF6E5550C00F0F6E2A0EDEEC11F040
:1008380004EF04F0040E5518D8A425EF04F027EFB0
:1008480004F015EF05F05550960FD96EDA6ADF6A95
:100858009B0E016E960E026EE7EC0EF00150021030
:10086800D8A439EF04F03BEF04F046EF04F0000E93
:10087800016E010E4CEC11F0030E5C6E020E596E07
:1008880015EF05F05C50D8A44CEF04F04EEF04F0DF
:10089800C6EF04F0F28AF28EF28CAE0E036E2F0EC3
:1008A800046E800E056E1CEC10F0ED0E036E2E0E1D
:1008B800046EC00E056E1CEC10F0C50E0F6E5DC008
:1008C80001F0026A000E046E640E036E07EC0DF070
:1008D8000150300FDEEC11F0C60E0F6E000E046EE4
:1008E8000A0E036E5DC001F0026A07EC0DF001C04C
:1008F80009F002C00AF0000E0C6E0A0E0B6E69ECCD
:100908000DF00950300FDEEC11F0C70E0F6E5DC010
:1009180009F00A6A000E0C6E0A0E0B6E69EC0DF0F7
:100928000950300FDEEC11F0400E1B6E0D0E1C6EE0
:10093800030E1D6E000E1E6E1B06000E1C5A1D5A5D
:100948001E5A1B280AE11C2808E11D2806E11E285A
:10095800D8A4B1EF04F0B3EF04F0A0EF04F05D50B9
:10096800D8A4B9EF04F0BBEF04F015EF05F0020EC0
:100978005C6E000E556E000E016E010E4CEC11F00F
:1009880015EF05F05B0E036E2F0E046E800E056EDC
:100998001CEC10F0C00E0F6E5C50300FDEEC11F046
:1009A800BE0E036E2F0E046EC10E056E1CEC10F009
:1009B800800E136E1A0E146E060E156E000E166E4D
:1009C800000E176E000E186E000E196E000E1A6ECD
:1009D8001306000E145A155A165A175A185A195A45
:1009E8001A5A132812E1142810E115280EE11628C6
:1009F8000CE117280AE1182808E1192806E11A2845
:100A0800D8A409EF05F00BEF05F0ECEF04F05C0655
:100A1800000E556E000E016E010E4CEC11F015EF34
:100A280005F01200136EAB0E036E2E0E046E800ED0
:100A3800056E1CEC10F04450D8A425EF05F027EF04
:100A480005F03BEF05F0000183510B0DF350F00F5B
:100A5800486E86510A0DF3508725F00F476E89516D
:100A68000A0DF3508A25F00F466E010E446EC50E2E
:100A78000F6E48C001F0026A000E046E0A0E036E83
:100A880007EC0DF00150300FDEEC11F0C60E0F6EC2
:100A980048C009F00A6A000E0C6E0A0E0B6E69EC6B
:100AA8000DF00950300FDEEC11F0C70E0F6E3A0E44
:100AB800DEEC11F0C80E0F6E47C001F0026A000E9E
:100AC800046E0A0E036E07EC0DF00150300FDEECD9
:100AD80011F0C90E0F6E47C009F00A6A000E0C6EBD
:100AE8000A0E0B6E69EC0DF00950300FDEEC11F0B8
:100AF800CA0E0F6E3A0EDEEC11F0CB0E0F6E46C02A
:100B080001F0026A000E046E0A0E036E07EC0DF087
:100B18000150300FDEEC11F0CC0E0F6E46C009F01C
:100B28000A6A000E0C6E0A0E0B6E69EC0DF0095085
:100B3800300FDEEC11F0050E1318D8A4A6EF05F05F
:100B4800A8EF05F0EFEF05F04550D8A4AEEF05F09B
:100B5800B0EF05F0C0EF05F03B0E4618D8A4B7EF8C
:100B680005F0B9EF05F0BDEF05F0000E466E04EF95
:100B780006F0462A04EF06F04504D8A4C6EF05F0AF
:100B8800C8EF05F0D6EF05F03B0E4718D8A4CFEF15
:100B980005F0D1EF05F0D3EF05F0000E476E472AB8
:100BA80004EF06F0020E4518D8A4DDEF05F0DFEFDC
:100BB80005F0EDEF05F0170E4818D8A4E6EF05F09C
:100BC800E8EF05F0EAEF05F0000E486E482A04EF5A
:100BD80006F004EF06F0060E1318D8A4F6EF05F099
:100BE800F8EF05F004EF06F0452A030E4518D8A4DF
:100BF80000EF06F002EF06F004EF06F0000E456E77
:100C08000F0E1318D8A40BEF06F00DEF06F092EFB5
:100C180006F048C009F00A6A000E0C6E0A0E0B6E48
:100C280069EC0DF009C011F00AC012F048C001F0DB
:100C3800026A000E046E0A0E036E07EC0DF001380E
:100C4800F00B11100F6E020ECFEC11F047C009F037
:100C58000A6A000E0C6E0A0E0B6E69EC0DF009C0E4
:100C680011F00AC012F047C001F0026A000E046ECB
:100C78000A0E036E07EC0DF00138F00B11100F6E21
:100C8800010ECFEC11F046C009F00A6A000E0C6E96
:100C98000A0E0B6E69EC0DF009C011F00AC012F0D3
:100CA80046C001F0026A000E046E0A0E036E07ECDD
:100CB8000DF00138F00B11100F6E000ECFEC11F093
:100CC800000183510A0DF3508425F00F396E8651C7
:100CD8000A0DF3508725F00F3A6E89510A0DF3502B
:100CE8008A25F00F3B6E56C03CF042C03DF0000E26
:100CF800146E1450390FD96EDA6ADF50026E145030
:100D08002CEC11F0142A040E14648DEF06F08FEF0A
:100D180006F07DEF06F0512A020E596E100E1318D8
:100D2800D8A499EF06F09BEF06F09DEF06F0020EAF
:100D3800596E1200186E100E1818D8A4A6EF06F0F7
:100D4800A8EF06F0AAEF06F0020E596E5050D8A48C
:100D5800B0EF06F0B2EF06F0EAEF06F0000E4F6EC5
:100D6800050E1818D8A4BBEF06F0BDEF06F0D6EFB5
:100D780006F0FF0E5124116E126AFF0E12224E5019
:100D8800136E146A1150135C1450800A156E1250B9
:100D9800800A1558D8B0D3EF06F0D5EF06F0D6EF95
:100DA80006F04E2A060E1818D8A4DDEF06F0DFEF7D
:100DB80006F019EF07F04E50D8B4E5EF06F0E7EF6C
:100DC80006F019EF07F04E0619EF07F05004D8A403
:100DD800F0EF06F0F2EF06F019EF07F051C04FF010
:100DE800050E1818D8A4FBEF06F0FDEF06F006EF85
:100DF80007F0090E4E6003EF07F005EF07F006EF66
:100E080007F04E2A060E1818D8A40DEF07F00FEFBA
:100E180007F019EF07F04E50D8B415EF07F017EFA9
:100E280007F019EF07F0E7EF06F0000E176E000E57
:100E3800166E16506B0FD96EDA6A4F504E24096E33
:100E48000A6A0A36000E0C6E0A0E0B6E69EC0DF07B
:100E580009500A0DF350162484EC11F0DF6E164A7F
:100E6800172A17BE41EF07F0175009E1050E165C67
:100E7800D8A041EF07F043EF07F01DEF07F0280E69
:100E8800036E2F0E046E800E056E1CEC10F0C00E63
:100E98000F6E4E50300FDEEC11F0C20E0F6E6BC0AD
:100EA80001F0026A000E046E0A0E036E07EC0DF0E4
:100EB8000150300FDEEC11F0C30E0F6E6BC009F05D
:100EC8000A6A000E0C6E0A0E0B6E69EC0DF00950E2
:100ED800300FDEEC11F0C40E0F6E3A0EDEEC11F09E
:100EE800C50E0F6E6CC001F0026A000E046E0A0E89
:100EF800036E07EC0DF00150300FDEEC11F0C60E5A
:100F08000F6E6CC009F00A6A000E0C6E0A0E0B6EAA
:100F180069EC0DF00950300FDEEC11F0C70E0F6EC2
:100F28003A0EDEEC11F0C80E0F6E6DC001F0026AC9
:100F3800000E046E0A0E036E07EC0DF00150300F20
:100F4800DEEC11F0C90E0F6E6DC009F00A6A000ED2
:100F58000C6E0A0E0B6E69EC0DF00950300FDEECCA
:100F680011F000016E51020DF350A00FD96EDA6A2C
:100F7800DECF03F0DDCF04F0CB0E056E1CEC10F0D5
:100F8800CE0E0F6E6FC001F0026A000E046E0A0EDC
:100F9800036E07EC0DF00150300FDEEC11F0CF0EB0
:100FA8000F6E6FC009F00A6A000E0C6E0A0E0B6E07
:100FB80069EC0DF00950300FDEEC11F01200CF0E85
:100FC800036E2E0E046E800E056E1CEC10F0CD0E16
:100FD800036E2F0E046EC30E056E1CEC10F0500449
:100FE800D8A4F9EF07F0FBEF07F0FDEF07F00A0EC2
:100FF8004C6E5050D8A403EF08F005EF08F007EF47
:1010080008F051C04CF0840E026E2E0E036E69EC8F
:1010180011F0000E4B6EC1EF08F0000E106E000EBE
:101028000F6E0F50600FD96EDA6A4BC009F00A6A6A
:10103800000E0C6E0A0E0B6E69EC0DF009500A0DCD
:10104800F3500F2484EC11F0DF6E0F4A102A10BE03
:1010580037EF08F0105009E1050E0F5CD8A037EF04
:1010680008F039EF08F015EF08F060C001F0026AE7
:10107800000E046E0A0E036E07EC0DF00150300FDF
:10108800F5EC11F060C009F00A6A000E0C6E0A0E49
:101098000B6E69EC0DF00950300FF5EC11F03A0EBB
:1010A800F5EC11F061C001F0026A000E046E0A0E40
:1010B800036E07EC0DF00150300FF5EC11F061C034
:1010C80009F00A6A000E0C6E0A0E0B6E69EC0DF040
:1010D8000950300FF5EC11F03A0EF5EC11F062C042
:1010E80001F0026A000E046E0A0E036E07EC0DF0A2
:1010F8000150300FF5EC11F062C009F00A6A000ED9
:101108000C6E0A0E0B6E69EC0DF00950300FF5EC01
:1011180011F0200EF5EC11F000016351020DF350AF
:10112800A00FD96EDA6ADECF02F0DDCF03F069ECEA
:1011380011F0200EF5EC11F064C001F0026A000E07
:10114800046E0A0E036E07EC0DF00150300FF5EC3B
:1011580011F064C009F00A6A000E0C6E0A0E0B6EDC
:1011680069EC0DF00950300FF5EC11F0950E026E98
:101178002E0E036E69EC11F04B2A4C504B5CD8A034
:10118800C8EF08F0CAEF08F011EF08F0000183512A
:101198000A0DF3508425F00F396E86510A0DF3506D
:1011A8008725F00F3A6E89510A0DF3508A25F00F02
:1011B8003B6E56C03CF042C03DF0000E116E11501F
:1011C800390FD96EDA6ADF50026E11502CEC11F02B
:1011D800112A040E1164F3EF08F0F5EF08F0E3EFBD
:1011E80008F0020E596E120061EC0EF0000EA7EC2A
:1011F8000FF05B6E5B28D8B404EF09F006EF09F036
:101208001EEF09F05BC05AF0404A412AF40E40181C
:1012180006E14104D8A413EF09F015EF09F01AEF1D
:1012280009F05B500A0F5B6E47EF09F0000E5B6E2A
:1012380047EF09F041BE29EF09F0415008E14004A9
:10124800D8A029EF09F02BEF09F041EF09F041BED2
:1012580039EF09F0F40E405C010E4158D8B037EF71
:1012680009F039EF09F041EF09F0000E416E000E68
:10127800406E5AC05BF047EF09F0000E416E000E59
:10128800406E000E5B6EAE0E1A6E470E1B6E250E7C
:101298001C6E410E1D6E040E09EC11F001C008F021
:1012A80002C009F00A6A0B6A000EFAEC09F008C0DD
:1012B80016F009C017F00AC018F00BC019F009ECB5
:1012C80000F016C02FF017C030F018C031F019C068
:1012D80032F084EC0CF02FC042F030C043F059508B
:1012E800D8A479EF09F07BEF09F091EF09F072ECDF
:1012F8000BF0050E5B18D8A484EF09F086EF09F00F
:10130800FAEF08F0000E016E010E4CEC11F0010E20
:10131800596EFAEF08F0FAEF08F05904D8A497EFDD
:1013280009F099EF09F09EEF09F05B508CEC03F09F
:10133800FAEF08F0020E5918D8A4A5EF09F0A7EFA4
:1013480009F0ACEF09F05B50D4EC0AF0FAEF08F0C2
:10135800030E5918D8A4B3EF09F0B5EF09F0FAEF66
:1013680008F05850D8A4BBEF09F0BDEF09F0C2EF60
:1013780009F05B509EEC06F0FAEF08F0020E5818E0
:10138800D8A4C9EF09F0CBEF09F0D0EF09F05B5012
:1013980015EC0EF0FAEF08F05804D8A4D6EF09F0CF
:1013A800D8EF09F0DCEF09F0E3EC07F0FAEF08F00A
:1013B800040E5818D8A4E3EF09F0E5EF09F0EAEFB6
:1013C80009F05B50D6EC01F0FAEF08F0030E58185C
:1013D800D8A4F1EF09F0F3EF09F08FEF09F05B50B3
:1013E80016EC05F0FAEF08F007EF00F0106E105059
:1013F800D8B401EF0AF003EF0AF025EF0AF00BBEAC
:101408000AEF0AF008EF0AF025EF0AF008C00CF01E
:1014180009C00DF00AC00EF00BC00FF00C1E0D1E17
:101428000E1E0F1E0C2A000E0D220E220F220CC0BB
:1014380012F00DC013F00EC014F00FC015F02DEF10
:101448000AF008C012F009C013F00AC014F00BC06B
:1014580015F0085009100A100B10D8A436EF0AF03E
:1014680038EF0AF042EF0AF0000E086E000E096E1F
:10147800000E0A6E000E0B6ED3EF0AF0960E116E78
:101488004CEF0AF0112AD890153214321332123266
:10149800000E12140C6E000E13140D6E000E1414B0
:1014A8000E6EFE0E15140F6E0C500D100E100F1050
:1014B800D8A461EF0AF063EF0AF046EF0AF071EF83
:1014C8000AF0112A010E1226000E132214221522E8
:1014D800D8901532143213321232000E12140C6ED8
:1014E800000E13140D6E000E14140E6EFF0E15145C
:1014F8000F6E0C500D100E100F10D8A486EF0AF0C6
:1015080088EF0AF065EF0AF090EF0AF01106D8901C
:10151800123613361436153614BE95EF0AF097EFC7
:101528000AF09FEF0AF0020E11609DEF0AF09FEF9C
:101538000AF08AEF0AF011B0A4EF0AF0A6EF0AF059
:10154800A7EF0AF0149ED890113211C00CF00D6A62
:101558000E6A0F6A0CC00FF00E6A0D6A0C6A0C5006
:1015680012120D5013120E5014120F501512105063
:10157800D8B4C1EF0AF0C3EF0AF0CBEF0AF00BBE04
:10158800CAEF0AF0C8EF0AF0CBEF0AF0158E12C0C6
:1015980008F013C009F014C00AF015C00BF01200CF
:1015A800116E5250020DF350B80FD96EDA6ADECFC1
:1015B80003F0DDCF04F0810E056E1CEC10F05250E4
:1015C800020DF350BA0FD96EDA6ADECF03F0DDCF21
:1015D80004F0C10E056E1CEC10F05450D8A4F7EFBF
:1015E8000AF0F9EF0AF005EF0BF0800E0F6E2A0EE5
:1015F800DEEC11F0C00E0F6E200EDEEC11F00FEFD6
:101608000BF0800E0F6E200EDEEC11F0C00E0F6E88
:101618002A0EDEEC11F0050E1118D8A416EF0BF007
:1016280018EF0BF02FEF0BF05450D8A41EEF0BF06F
:1016380020EF0BF025EF0BF0010E546E532A2FEF1D
:101648000BF0030E52602BEF0BF02DEF0BF02FEF8A
:101658000BF0522A532A060E1118D8A436EF0BF0B5
:1016680038EF0BF04FEF0BF05404D8A43EEF0BF01B
:1016780040EF0BF045EF0BF0000E546E53064FEFA2
:101688000BF05250D8B44BEF0BF04DEF0BF04FEF7F
:101698000BF0520653060F0E1118D8A456EF0BF094
:1016A80058EF0BF061EF0BF0000E016E010E4CECE1
:1016B80011F0030E596E53C058F0100E1118D8A42B
:1016C80068EF0BF06AEF0BF071EF0BF0000E016E94
:1016D800010E4CEC11F0000E596E12007D0E036ED7
:1016E8002F0E046E800E056E1CEC10F05650020D85
:1016F800F350A00FD96EDA6ADECF03F0DDCF04F025
:10170800CA0E056E1CEC10F0020E5B18D8A48FEF01
:101718000BF091EF0BF09CEF0BF0060E566097EF75
:101728000BF099EF0BF09CEF0BF0562A6BEC0FF0D7
:10173800030E5B18D8A4A3EF0BF0A5EF0BF0B9EFDD
:101748000BF0070E5618D8B4ACEF0BF0AEEF0BF059
:10175800B9EF0BF0010E5664B4EF0BF0B6EF0BF0D7
:10176800B9EF0BF056066BEC0FF05B04D8A4BFEF93
:101778000BF0C1EF0BF0C5EF0BF0070E566E6BECDC
:101788000FF0070E5618D8A4CCEF0BF0CEEF0BF0E5
:10179800DBEF0BF0020E5B18D8A4D5EF0BF0D7EFF8
:1017A8000BF0DBEF0BF0020E566E6BEC0FF0CE0E6B
:1017B8000F6E42C001F043C002F0000E046E0A0E24
:1017C800036EE2EC0FF00150300FDEEC11F0CF0E9B
:1017D8000F6E42C001F043C002F0000E046E0A0E04
:1017E800036E84EC10F00150300FDEEC11F0A4EC25
:1017F8000EF025EC12F01200819A818C818E81B254
:1018080008EF0CF00AEF0CF00DEF0CF0010E83EF6F
:101818000CF081B412EF0CF014EF0CF017EF0CF091
:10182800040E83EF0CF081B61CEF0CF01EEF0CF0E9
:1018380021EF0CF0070E83EF0CF081B826EF0CF0C7
:1018480028EF0CF02BEF0CF00A0E83EF0CF0818AD6
:10185800819C818E81B233EF0CF035EF0CF038EFBC
:101868000CF0020E83EF0CF081B43DEF0CF03FEF6B
:101878000CF042EF0CF0050E83EF0CF081B647EF49
:101888000CF049EF0CF04CEF0CF0080E83EF0CF065
:1018980081B851EF0CF053EF0CF056EF0CF00B0E33
:1018A80083EF0CF0818A818C819E819E81B25FEFEB
:1018B8000CF061EF0CF064EF0CF0030E83EF0CF00A
:1018C80081B469EF0CF06BEF0CF06EEF0CF0060EC4
:1018D80083EF0CF081B673EF0CF075EF0CF078EF36
:1018E8000CF0090E83EF0CF081B87DEF0CF07FEF60
:1018F8000CF082EF0CF00C0E83EF0CF0FF0E1200D0
:1019080031343234386E3850D8A48DEF0CF08FEF64
:101918000CF099EF0CF0000E2F6E000E306E000EDA
:10192800316E000E326E06EF0DF02FC033F030C06E
:1019380034F031C035F032C036F0200EA9EF0CF08B
:10194800D8903632353234323332E82EA4EF0CF0E8
:101958003350376E318EFF0E2F16FF0E3016FF0EE6
:101968003116000E3216960E385E38BEC0EF0CF0F7
:10197800BEEF0CF0D6EF0CF03850800A970FD8B0B5
:10198800C8EF0CF0CAEF0CF0CCEF0CF08FEF0CF0B6
:10199800D8903232313230322F32383ECCEF0CF020
:1019A800EEEF0CF01F0E3864DCEF0CF0DEEF0CF0FD
:1019B800E6EF0CF08FEF0CF0D8902F36303631363A
:1019C800323638063850D8A4ECEF0CF0EEEF0CF0B5
:1019D800E0EF0CF03750D8B4F4EF0CF0F6EF0CF061
:1019E800FEEF0CF0321E311E301E2F6C000E30221E
:1019F800312232222FC02FF030C030F031C031F008
:101A080032C032F01200000E066E04BE10EF0DF068
:101A18000EEF0DF016EF0DF0036C041ED8B0042A7B
:101A2800010E066E02BE1DEF0DF01BEF0DF023EF49
:101A38000DF0016C021ED8B0022A010E061A000E23
:101A4800086E000E076E03500410D8B42EEF0DF088
:101A580030EF0DF058EF0DF0010E056E38EF0DF078
:101A6800D89003360436052A04AE3DEF0DF03FEF5B
:101A78000DF034EF0DF0D890073608360350015CAE
:101A880004500258D8A04BEF0DF04DEF0DF052EF77
:101A98000DF00350015E0450025A0780D8900432BA
:101AA8000332052E3FEF0DF00650D8B45EEF0DF06F
:101AB80060EF0DF064EF0DF0076C081ED8B0082A2F
:101AC80007C001F008C002F01200000E0E6E0ABE38
:101AD80072EF0DF070EF0DF078EF0DF0096C0A1E43
:101AE800D8B00A2A010E0E6E0CBE7FEF0DF07DEF06
:101AF8000DF083EF0DF00B6C0C1ED8B00C2A0B50B8
:101B08000C10D8B48AEF0DF08CEF0DF0B0EF0DF09B
:101B1800010E0D6E94EF0DF0D8900B360C360D2A91
:101B28000CAE99EF0DF09BEF0DF090EF0DF00B5010
:101B3800095C0C500A58D8A0A4EF0DF0A6EF0DF0E0
:101B4800AAEF0DF00B50095E0C500A5AD8900C32CF
:101B58000B320D2E9BEF0DF00E50D8B4B6EF0DF0F2
:101B6800B8EF0DF0BCEF0DF0096C0A1ED8B00A2AC8
:101B780009C009F00AC00AF01200000E956E9450D0
:101B8800F80B946E8290C30E036ECD0EE82EFED72E
:101B9800032EFCD70000000E016E330E4CEC11F042
:101BA8001B0E036E9E0EE82EFED7032EFCD700D028
:101BB800000E016E330E4CEC11F0A60EE82EFED787
:101BC80000D0000E016E330E4CEC11F000D000D0A6
:101BD8000000000E016E020E4CEC11F0A60EE82E6D
:101BE800FED700D0000E016E380E4CEC11F0A60E98
:101BF800E82EFED700D0000E016E010E4CEC11F05D
:101C0800040E036E3E0EE82EFED7032EFCD7000E00
:101C1800016E0C0E4CEC11F0A60EE82EFED700D08B
:101C28001200066E000E516E000E506EF30E036E1B
:101C38002E0E046E800E056E1CEC10F0E10E036E85
:101C48002E0E046EC00E056E1CEC10F0100E061859
:101C5800D8A431EF0EF033EF0EF060EF0EF0000174
:101C680083510A0DF3508425F00F396E86510A0D01
:101C7800F3508725F00F3A6E89510A0DF3508A25E3
:101C8800F00F3B6E56C03CF042C03DF0000E076EB0
:101C98000750390FD96EDA6ADF50026E07502CEC04
:101CA80011F0072A040E07645CEF0EF05EEF0EF0E9
:101CB8004CEF0EF0020E596E1200C1EC0DF013EC51
:101CC80012F0BFEC11F0EAEC11F0E5EC10F000ECCA
:101CD80012F00AEC12F0300E026EC80E2CEC11F065
:101CE800300E026EC90E2CEC11F0300E026ECA0EC8
:101CF8002CEC11F0300E026ECB0E2CEC11F0000E15
:101D0800136E000E126E12509B0FD96EDA6A1250C3
:101D1800C80F84EC11F0DF6E124A132A13BE9EEF2F
:101D28000EF0135009E1040E125CD8A09EEF0EF0DD
:101D3800A0EF0EF087EF0EF0000E00019F6F12006B
:101D4800020E99EC11F000017A6F010E99EC11F076
:101D580000017B6F000E99EC11F000017C6F7AADE9
:101D6800B8EF0EF0BAEF0EF0C5EF0EF07A390F0BA0
:101D7800010B300F836F7A510F0B300F846FCEEF4A
:101D88000EF07A390F0B030B300F836F7A510F0B5C
:101D9800300F846F3A0E856F7B390F0B0F0B300FA6
:101DA800866F7B510F0B300F876F3A0E886F7C3927
:101DB8000F0B0F0B300F896F7C510F0B300F8A6F91
:101DC800000E8B6F1200000E086E000E076E000EDC
:101DD800066E000E056E18EF0FF002500724D96E3C
:101DE800DA6A01500724E16EE26ADE50E618D8B4D8
:101DF80000EF0FF002EF0FF016EF0FF0015007247D
:101E0800D96EDA6ADF50036E02500724D96EDA6A97
:101E1800DF50046E0450035C056E066AD8A00606FF
:101E280024EF0FF0074A082A01500724D96EDA6A0E
:101E3800DF50D8A422EF0FF024EF0FF0F1EF0EF0EF
:101E480005C001F006C002F01200000E086E000E78
:101E5800076E000E066E000E056E5AEF0FF0025068
:101E68000724D96EDA6A01500724E16EE26ADE506F
:101E7800E618D8B442EF0FF044EF0FF058EF0FF028
:101E880001500724D96EDA6ADF50036E0250072426
:101E9800D96EDA6ADF50046E0450035C056E066A78
:101EA800D8A0060666EF0FF0074A082A0150072453
:101EB800D96EDA6ADF50D8A464EF0FF066EF0FF03E
:101EC80033EF0FF005C001F006C002F01200000168
:101ED80083510A0DF3508425F00F396E86510A0D8F
:101EE800F3508725F00F3A6E89510A0DF3508A2571
:101EF800F00F3B6E56C03CF042C03DF0000E066E3F
:101F08000650390FD96EDA6ADF50026E51500A0D49
:101F1800F35006242CEC11F0062A040E066497EF01
:101F28000FF099EF0FF084EF0FF00A0E5118D8A4B4
:101F3800A0EF0FF0A2EF0FF0A6EF0FF0000E516E1A
:101F4800010E506E1200016E0104D8A4AEEF0FF01E
:101F5800B0EF0FF0D4EF0FF000EC0CF0576E5728ED
:101F6800D8B4B9EF0FF0BBEF0FF0C8EF0FF05E5029
:101F7800D8B4C1EF0FF0C3EF0FF0C8EF0FF0000EA9
:101F88005E6E5750E1EF0FF05728D8A4CEEF0FF050
:101F9800D0EF0FF0E0EF0FF0010E5E6EE0EF0FF004
:101FA8000150D8A4DAEF0FF0DCEF0FF0E0EF0FF0FC
:101FB80000EC0CF0E1EF0FF0FF0E1200000E066EC1
:101FC800000E056E03500410D8B4EDEF0FF0EFEFDC
:101FD8000FF017EF10F0010E076EF7EF0FF0D89023
:101FE80003360436072A04AEFCEF0FF0FEEF0FF0BD
:101FF800F3EF0FF0D890053606360350015C045015
:102008000258D8A00AEF10F00CEF10F011EF10F002
:102018000350015E0450025A0580D89004320332FE
:10202800072EFEEF0FF005C001F006C002F0120007
:10203800000E016E05504CEC11F039EF10F0010E56
:10204800016E03C0F6FF04C0F7FFF86A050EF764D7
:1020580003D00800F55005D0F6CFE9FFF7CFEAFF27
:10206800EF504CEC11F0034A042A03C0F6FF04C0F9
:10207800F7FFF86A050EF76403D00800F55005D09D
:10208800F6CFE9FFF7CFEAFFEF500009D8A44FEFEA
:1020980010F051EF10F023EF10F012005C0EF66E06
:1020A800230EF76E000EF86E00EEA0F010EE22F090
:1020B8000900F5CFEEFFE550E150FAE1980EF66E13
:1020C800240EF76E000EF86E0900F5CF5CF00900DB
:1020D800F5CF5DF00900F5CF5EF000EE60F0400E40
:1020E800EE6AE806FDE100EE39F0230EEE6AE80636
:1020F800FDE15F905F92000EF86E0001F8EF08F0C6
:1021080003500410D8B48BEF10F08DEF10F0B1EF3E
:1021180010F0010E056E95EF10F0D89003360436D6
:10212800052A04AE9AEF10F09CEF10F091EF10F032
:102138000350015C04500258D8A0A5EF10F0A7EF97
:1021480010F0ABEF10F00350015E0450025AD89023
:1021580004320332052E9CEF10F001C001F002C0DA
:1021680002F012000600F2A4BCEF10F0BEEF10F06F
:10217800E3EF10F0080ED624D66E000ED720D76EE7
:10218800010E00017627000E772378237923210E8C
:10219800761909E14E0E771978117911D8A4D7EF7D
:1021A80010F0D9EF10F0E2EF10F0000E766F000E8D
:1021B800776F000E786F000E796F5D06F2945F926C
:1021C8001100000E99EC11F0116E115080090F6E7C
:1021D800000ECFEC11F0020E99EC11F0116E1150B7
:1021E80040090F6E020ECFEC11F0930E0F6E070E22
:1021F800CFEC11F0000E99EC11F0116E11507F0B1D
:102208000F6E000ECFEC11F01200076E07C003F03E
:10221800D8900336D8900336C250C30B0310C26E51
:10222800C282C2B21AEF11F01CEF11F015EF11F0D3
:10223800C350C4CF03F0046A03C004F0036A031058
:10224800056E0450066E05C001F006C002F01200CB
:10225800056E45EC12F0A00E33EC12F0055033EC8D
:1022680012F0025033EC12F041EC12F00B0E046E37
:10227800B80E036E0306D8A00406032806E1042856
:10228800D8A449EF11F04BEF11F03EEF11F0120016
:10229800026E01B052EF11F055EF11F0828256EF45
:1022A80011F0829202C083FF82848294958E82808C
:1022B80082928284829483BE64EF11F066EF11F0FB
:1022C8005DEF11F08290959E120075EF11F002C03B
:1022D800F6FF03C0F7FF0800F550F5EC11F0024ACD
:1022E800032A02C0F6FF03C0F7FF0800F5500009F3
:1022F800D8A481EF11F083EF11F06BEF11F0120009
:10230800026E45EC12F0A00E33EC12F0025033ECE2
:1023180012F039EC12F0A10E33EC12F02DEC12F0A1
:10232800036E41EC12F003501200026E45EC12F0FD
:10233800D00E33EC12F0025033EC12F039EC12F0FC
:10234800D10E33EC12F02DEC12F0036E41EC12F0CA
:1023580003501200F32FF92FF02FDE2FE12FE42F77
:10236800E72FDB2FEA2FED2FFC2FF62F8E2F4A2F8A
:10237800052F392F9E2FC08EC09AC088C096C09056
:10238800C082C094C292C19AC198000EC46E000E59
:10239800C36EC2801200106E45EC12F0D00E33EC02
:1023A80012F0105033EC12F00F5033EC12F041ECF5
:1023B80012F01200106E000E016E0F504CEC11F06E
:1023C800010E016E10504CEC11F0120094869488A6
:1023D800280EC66E310EC86EC79CC78E9E96A196F3
:1023E8001200016E9EA8FBEF11F0FDEF11F0F6EF61
:1023F80011F001C0ADFF1200D58CD59AD58ED586C7
:10240800000ED76E060ED66EF2941200948E949C2F
:10241800AC84AB8EAB88810EAF6E9D8A12000F0E16
:10242800C16E1E0E936EF19E8150E009816E1200FE
:102438009EA621EF12F023EF12F01CEF12F09E96E9
:102448001200830E036E046AC00E056E1CEC10F0B9
:1024580012003DEC12F049EC12F0C9501200016E66
:1024680001C0C9FF1CEC12F01200C5821CEC12F06E
:102478001200C5861CEC12F01200C5841CEC12F088
:102488001200C5801CEC12F01200C58AC588120023
:0324980002B4018A
:102E6E000020205265747970652050617373776FFE
:102E7E007264203A2000232054494D4520202045DD
:102E8E00562020205350200A0D0020506173737776
:102E9E006F7264204368616E6765202000202020D9
:102EAE00202048483A4D4D3A5353202020200020F0
:102EBE00204E65772050617373776F7264203A20CD
:102ECE00002020446F776E6C6F6164204C6F67201A
:102EDE002020002020202020202020202020202004
:102EEE0020202020002020204C4F4720434C4541DD
:102EFE005245442020200020436C656172204C6FA7
:102F0E0067202020202020200020202053554343DE
:102F1E0045535346554C4C202000456E74657265E2
:102F2E00642056696577204C6F67002053657420C6
:102F3E0074696D65202020202020200020446F77AA
:102F4E006E6C6F6164206C6F672020200020202043
:102F5E0054727920416761696E202020200020453F
:102F6E006E7465722050617373776F7264200020E7
:102F7E002054494D452020202045562020535000F6
:102F8E002056696577204C6F672020202020200076
:102F9E00204368616E6765205061737377726400B9
:102FAE002053797374656D20426C6F636B6564009A
:102FBE00204368616E636573204C65667420002043
:102FCE005355434345535346554C4C200043200024
:102FDE00473100473200473300473400434C00442A
:102FEE004C00474E004F4E00435000475200535482
:022FFE000000D1
:020000040020DA
:08000000FFFFFFFFFFFFFFFF00
:020000040030CA
:0E000000FF071F1FFF8285FF0FC00FE00F409C
:00000001FF
