:020000040000FA
:0400000007EF00F016
:0A0008004A8282ED08F0F7EF08F0DD
:1006000000202020202020535543434553532020D1
:100610002020200020202054727920416761696EDB
:10062000202020200020456E746572205061737375
:10063000776F72642000202054494D4520202020EF
:10064000455620205350002020202020202020200C
:100650002020202020200020417474656D707420BB
:100660004661696C656400204368616E6365732050
:100670004C65667420004320004731004732004734
:0F0680003300473400474E004F4E0047520000F2
:10069000386E250E206E2050D8A4060E216E800ED6
:1006A000226E1AEC08F008502E6E09502F6E084A80
:1006B000092A2FBE67EF03F0F40E2E5C010E2F58AF
:1006C000D8B065EF03F067EF03F06FEF03F00A5067
:1006D000C00F2C6E5F0E74EC09F097EF03F009BEAB
:1006E0007BEF03F0F50E085C010E0958D8A07BEFF4
:1006F00003F07DEF03F093EF03F009BE8BEF03F0FF
:10070000E80E085C030E0958D8B089EF03F08BEFB0
:1007100003F093EF03F00A50C00F2C6E200E74EC20
:1007200009F097EF03F0000E096E000E086E050E3B
:100730003818D8A49EEF03F0A0EF03F0B0EF03F059
:100740000A50190FD96EDA6A300EDF6E0A50C00FE8
:100750002C6E2A0E74EC09F00A4A0B2AC7EF03F03C
:10076000060E3818D8A4B7EF03F0B9EF03F0C7EFBF
:1007700003F00A50190FD96EDA6A310EDF6E0A5093
:10078000C00F2C6E2A0E74EC09F0ACEF03F0040ECF
:100790000A180B10D8A4CFEF03F0D1EF03F099EFB4
:1007A00004F00A50190FD96EDA6ADF6A450E1E6E20
:1007B000190E1F6EE9EC06F01E501F10D8A4E3EFCF
:1007C00003F0E5EF03F0FBEF03F0470E206E20503F
:1007D000D8A4060E216E800E226E1AEC08F0010ECF
:1007E000206E2050D8A4060E216EC00E226E1AEC88
:1007F00008F0F9EF03F04206000E0B6E000E0A6ED1
:100800004250D8A406EF04F008EF04F04BEF04F0D8
:10081000570E206E2050D8A4060E216E800E226E38
:100820001AEC08F0C50E2C6E43C01EF01F6A000EB5
:10083000216E640E206EDBEC05F01E50300F74EC60
:1008400009F0C60E2C6E000E216E0A0E206E43C0FB
:100850001EF01F6ADBEC05F01EC026F01FC027F05B
:10086000000E296E0A0E286E3DEC06F02650300F61
:1008700074EC09F0C70E2C6E43C026F0276A000EF8
:10088000296E0A0E286E3DEC06F02650300F74ECEF
:1008900009F099EF04F0140E206E2050D8A4060E33
:1008A000216E800E226E1AEC08F0C00E2C6E4250A3
:1008B000300F74EC09F0670E206E2050D8A4060E9D
:1008C000216EC10E226E1AEC08F0200E306EA10EC1
:1008D000316E070E326E000E336E000E346E000E57
:1008E000356E000E366E000E376E3006000E315A31
:1008F000325A335A345A355A365A375A302812E156
:10090000312810E132280EE133280CE134280AE1C5
:10091000352808E1362806E13728D8A492EF04F0FC
:1009200094EF04F075EF04F0000E1E6E010E14EC4F
:1009300009F01200360E206E2050D8A4060E216E4B
:10094000800E226E1AEC08F020EE3AF010EE2FF036
:10095000070EDBCFE3FFE806FCE20A502F0FD96E4B
:10096000DA6ADF502E6E2EC020F02050D8A4060E7A
:10097000216ECA0E226E1AEC08F0020E0F18D8A4CF
:10098000C4EF04F0C6EF04F0D6EF04F00BBED4EFD2
:1009900004F00B5007E1060E0A5CD8B0D2EF04F069
:1009A000D4EF04F0D6EF04F00A4A0B2A030E0F1816
:1009B000D8A4DDEF04F0DFEF04F0FAEF04F0070E47
:1009C0000A180B10D8B4E7EF04F0E9EF04F0FAEFDF
:1009D00004F00BBEF5EF04F00B5009E1020E0A5CC7
:1009E000D8A0F5EF04F0F7EF04F0FAEF04F00A06F0
:1009F000D8A00B060F04D8A400EF05F002EF05F015
:100A000006EF05F0000E0B6E070E0A6E070E0A18B1
:100A10000B10D8A40EEF05F010EF05F01DEF05F058
:100A2000020E0F18D8A417EF05F019EF05F01DEF0F
:100A300005F0000E0B6E020E0A6EE80E0C5C030E43
:100A40000D58D8B026EF05F028EF05F052EF05F06D
:100A5000CE0E2C6E0CC01EF00DC01FF0000E216ECD
:100A6000640E206EE0EC07F01E50300F74EC09F0BD
:100A7000CF0E2C6E000E216E0A0E206E0CC01EF0E2
:100A80000DC01FF0E0EC07F01EC025F01FC026F0DF
:100A9000000E286E0A0E276E50EC08F02550300F1D
:100AA00074EC09F02BEC07F0B0EC09F01200819A1D
:100AB000818C818E81B25FEF05F061EF05F064EF0C
:100AC00005F0010EDAEF05F081B469EF05F06BEF88
:100AD00005F06EEF05F0040EDAEF05F081B673EF66
:100AE00005F075EF05F078EF05F0070EDAEF05F089
:100AF00081B87DEF05F07FEF05F082EF05F00A0E7B
:100B0000DAEF05F0818A819C818E81B28AEF05F04F
:100B10008CEF05F08FEF05F0020EDAEF05F081B4EF
:100B200094EF05F096EF05F099EF05F0050EDAEF7A
:100B300005F081B69EEF05F0A0EF05F0A3EF05F0FC
:100B4000080EDAEF05F081B8A8EF05F0AAEF05F07E
:100B5000ADEF05F00B0EDAEF05F0818A818C819EF6
:100B6000819E81B2B6EF05F0B8EF05F0BBEF05F05E
:100B7000030EDAEF05F081B4C0EF05F0C2EF05F027
:100B8000C5EF05F0060EDAEF05F081B6CAEF05F005
:100B9000CCEF05F0CFEF05F0090EDAEF05F081B8E4
:100BA000D4EF05F0D6EF05F0D9EF05F00C0EDAEF33
:100BB00005F0FF0E1200000E236E21BEE4EF05F0DB
:100BC000E2EF05F0EAEF05F0206C211ED8B0212AF3
:100BD000010E236E1FBEF1EF05F0EFEF05F0F7EF0A
:100BE00005F01E6C1F1ED8B01F2A010E231A000E1E
:100BF000256E000E246E20502110D8B402EF06F0AE
:100C000004EF06F02CEF06F0010E226E0CEF06F05A
:100C1000D89020362136222A21AE11EF06F013EFAC
:100C200006F008EF06F0D8902436253620501E5CDA
:100C300021501F58D8A01FEF06F021EF06F026EF35
:100C400006F020501E5E21501F5A2480D890213279
:100C50002032222E13EF06F02350D8B432EF06F0E4
:100C600034EF06F038EF06F0246C251ED8B0252AA4
:100C700024C01EF025C01FF01200000E2B6E27BEF0
:100C800046EF06F044EF06F04CEF06F0266C271E08
:100C9000D8B0272A010E2B6E29BE53EF06F051EF74
:100CA00006F057EF06F0286C291ED8B0292A2850E4
:100CB0002910D8B45EEF06F060EF06F084EF06F07E
:100CC000010E2A6E68EF06F0D890283629362A2AB7
:100CD00029AE6DEF06F06FEF06F064EF06F02850D6
:100CE000265C29502758D8A078EF06F07AEF06F056
:100CF0007EEF06F02850265E2950275AD8902932D8
:100D000028322A2E6FEF06F02B50D8B48AEF06F067
:100D10008CEF06F090EF06F0266C271ED8B0272A3D
:100D200026C026F027C027F01200000E956E9450C2
:100D3000F80B946E8290C30E206ECD0EE82EFED777
:100D4000202EFCD70000000E1E6E330E14EC09F0AE
:100D50001B0E206E9E0EE82EFED7202EFCD700D054
:100D6000000E1E6E330E14EC09F0A60EE82EFED710
:100D700000D0000E1E6E330E14EC09F000D000D02F
:100D80000000000E1E6E020E14EC09F0A60EE82EF6
:100D9000FED700D0000E1E6E380E14EC09F0A60E21
:100DA000E82EFED700D0000E1E6E010E14EC09F0E6
:100DB000040E206E3E0EE82EFED7202EFCD7000E2D
:100DC0001E6E0C0E14EC09F0A60EE82EFED700D015
:100DD0001200000E256E000E246E000E236E000E13
:100DE000226E1AEF07F01F502424D96EDA6A1E50C3
:100DF0002424E16EE26ADE50E618D8B402EF07F070
:100E000004EF07F018EF07F01E502424D96EDA6AB9
:100E1000DF50206E1F502424D96EDA6ADF50216E15
:100E20002150205C226E236AD8A0230626EF07F00B
:100E3000244A252A1E502424D96EDA6ADF50D8A409
:100E400024EF07F026EF07F0F3EF06F022C01EF0C4
:100E500023C01FF01200020E31EC09F0056E010EE6
:100E600031EC09F0066E000E31EC09F0076E05ACAE
:100E70003CEF07F03EEF07F049EF07F005380F0BA6
:100E8000010B300F106E05500F0B300F116E52EF2B
:100E900007F005380F0B030B300F106E05500F0BCA
:100EA000300F116E3A0E126E06380F0B0F0B300F0B
:100EB000136E06500F0B300F146E3A0E156E073876
:100EC0000F0B0F0B300F166E07500F0B300F176EF6
:100ED000000E186E12001E6E1E04D8A472EF07F0EA
:100EE00074EF07F098EF07F057EC05F00E6E0E2840
:100EF000D8B47DEF07F07FEF07F08CEF07F0445098
:100F0000D8B485EF07F087EF07F08CEF07F0000EFD
:100F1000446E0E50A5EF07F00E28D8A492EF07F00C
:100F200094EF07F0A4EF07F0010E446EA4EF07F072
:100F30001E50D8A49EEF07F0A0EF07F0A4EF07F033
:100F400057EC05F0A5EF07F0FF0E120056EC09F084
:100F5000000E396E010E6BEC07F00F6E040ED4EC30
:100F600008F01EC00CF01FC00DF03950D8A4BBEF24
:100F700007F0BDEF07F0D1EF07F09AEC04F0050E93
:100F80000F18D8A4C6EF07F0C8EF07F0AAEF07F0D4
:100F9000000E1E6E010E14EC09F0010E396EAAEF60
:100FA00007F03904D8A4D7EF07F0D9EF07F0AAEF7C
:100FB00007F00F5048EC03F0AAEF07F007EF00F03E
:100FC000000E236E000E226E20502110D8B4EBEFDD
:100FD00007F0EDEF07F015EF08F0010E246EF5EFC6
:100FE00007F0D89020362136242A21AEFAEF07F0F8
:100FF000FCEF07F0F1EF07F0D890223623362050AF
:101000001E5C21501F58D8A008EF08F00AEF08F026
:101010000FEF08F020501E5E21501F5A2280D890FA
:1010200021322032242EFCEF07F022C01EF023C014
:101030001FF01200000E1E6E225014EC09F037EF64
:1010400008F0010E1E6E20C0F6FF21C0F7FFF86AFF
:10105000050EF76403D00800F55005D0F6CFE9FF80
:10106000F7CFEAFFEF5014EC09F0204A212A20C004
:10107000F6FF21C0F7FFF86A050EF76403D00800F9
:10108000F55005D0F6CFE9FFF7CFEAFFEF500009A2
:10109000D8A44DEF08F04FEF08F021EF08F0120050
:1010A00027502810D8B457EF08F059EF08F07DEF1B
:1010B00008F0010E296E61EF08F0D8902736283627
:1010C000292A28AE66EF08F068EF08F05DEF08F017
:1010D0002750255C28502658D8A071EF08F073EFF0
:1010E00008F077EF08F02750255E2850265AD89050
:1010F00028322732292E68EF08F025C025F026C0B7
:1011000026F012000600F2A488EF08F08AEF08F03B
:10111000AEEF08F0080ED624D66E000ED720D76E9C
:10112000010E0126000E022203220422210E0118C4
:1011300009E14E0E021803100410D8A4A2EF08F023
:10114000A4EF08F0ADEF08F0000E016E000E026E85
:10115000000E036E000E046E4306F2944A921100D4
:10116000000E31EC09F0216E215080091F6E000E37
:1011700065EC09F0020E31EC09F0216E21504009B6
:101180001F6E020E65EC09F0930E1F6E070E65ECE4
:1011900009F0000E31EC09F0216E21507F0B1F6E1B
:1011A000000E65EC09F01200246E24C020F0D890E7
:1011B0002036D8902036C250C30B2010C26EC28297
:1011C000C2B2E5EF08F0E7EF08F0E0EF08F0C35037
:1011D000C4CF20F0216A20C021F0206A2010226EA6
:1011E0002150236E22C01EF023C01FF01200500EAB
:1011F000F66E130EF76E000EF86E00EE3AF010EE7B
:1012000010F00900F5CFEEFFE550E150FAE100EEF5
:1012100001F01D0EEE6AE806FDE14A904A92000ECA
:10122000F86E0001A6EF07F01F6E1EB01AEF09F06E
:101230001DEF09F082821EEF09F082921FC083FF2A
:1012400082848294958E828082928284829483BEEC
:101250002CEF09F02EEF09F025EF09F08290959E12
:1012600012001F6EC8EC09F0D00EB8EC09F01F5048
:10127000B8EC09F0CCEC09F0D10EB8EC09F0BEECFA
:1012800009F0206EC4EC09F020501200C08EC09A04
:10129000C088C096C090C082C094C292C19AC198C2
:1012A000000EC46E000EC36EC280120095EC06F0F4
:1012B00096EC09F046EC09F08BEC09F0B0EC08F084
:1012C000F28C80EC09F0F28E1200206EC8EC09F06E
:1012D000D00EB8EC09F02050B8EC09F01F50B8EC73
:1012E00009F0C4EC09F012002D6E000E1E6E2C5099
:1012F00014EC09F0010E1E6E2D5014EC09F01200D2
:10130000D58CD59AD58ED586000ED76E060ED66EA4
:10131000F294F28A120094869488280EC66E310EDA
:10132000C86EC79CC78E9E96A19612000F0EC16E06
:101330001E0E936EF19E8150E009816E12009EA6F2
:10134000A4EF09F0A6EF09F09FEF09F09E961200B6
:10135000888B85797C7F827603BE01303030300007
:10136000100E206E216AC00E226E1AEC08F01200D8
:101370001E6E1EC0C9FF9FEC09F01200D0EC09F0F0
:10138000D4EC09F0C9501200C5849FEC09F012009A
:10139000C5809FEC09F01200C5829FEC09F0120095
:0E13A000C5869FEC09F01200C58AC5881200B0
:020000040020DA
:08000000FFFFFFFFFFFFFFFF00
:020000040030CA
:0E000000FF071F1FFF8285FF0FC00FE00F409C
:00000001FF
