:020000040000FA
:0400000007EF00F016
:0A0008005F8206ED0FF0A2EF0EF08C
:1006000000202020202020535543434553532020D1
:1006100020202000456E74657265642056696577F8
:10062000204C6F6700436C656172204C6F6720201F
:100630002020202020002020205472792041676152
:10064000696E202020200020456E74657220506164
:100650007373776F72642000202054494D45202029
:10066000202045562020535000446F776E6C6F61F8
:1006700064206C6F67202020004368616E676520EE
:1006800050617373776F7264002020202020202037
:100690002020202020202020002053797374656DB5
:1006A00020426C6F636B65640056696577204C6F00
:1006B0006720202020202000204368616E6365733E
:1006C000204C65667420005365742074696D650064
:1006D000432000473100473200473300473400478A
:0906E0004E004F4E00475200008D
:1006EA001950800B266E195019242D6E18AE80EF02
:1006FA0003F082EF03F083EF03F02D802D50D8B47E
:10070A0089EF03F08BEF03F0A0EF03F02D28D8A4B4
:10071A0091EF03F093EF03F09BEF03F0000E166ED8
:10072A00000E176E000E186E000E196E188E000E4F
:10073A00196EA8EF03F0000E166E000E176E000E6B
:10074A00186E000E196E1D50800B261A1D501D249E
:10075A002E6E1CAEB3EF03F0B5EF03F0B6EF03F065
:10076A002E802E50D8B4BCEF03F0BEEF03F0D3EFC7
:10077A0003F02E28D8A4C4EF03F0C6EF03F0CEEF9F
:10078A0003F0000E1A6E000E1B6E000E1C6E000E99
:10079A001D6E1C8E000E1D6EDBEF03F0000E1A6E2E
:1007AA00000E1B6E000E1C6E000E1D6E1A501B10E2
:1007BA001C101D10D8A4E4EF03F0E6EF03F0FEEFDF
:1007CA0003F0000E166E000E176E000E186E000E65
:1007DA00196E800E18127F0E19122650191216C0A1
:1007EA0016F017C017F018C018F019C019F041EF29
:1007FA0005F02D50D8A404EF04F006EF04F010EF32
:10080A0004F0000E166E000E176E000E186E000E23
:10081A00196E41EF05F02E502DC01EF01F6A1E5EA4
:10082A00000E1F5A7F0E1E24276E000E1F20286EF0
:10083A0016C022F017C023F018C024F019C025F002
:10084A00000E166E000E176E000E186E000E196E50
:10085A00000E296E000E2A6E000E2B6E000E2C6EF4
:10086A00000E2E6E71EF04F02E50D8B43FEF04F054
:10087A0041EF04F058EF04F0D8902236233624369C
:10088A002536D89016361736183619362CAE50EF4C
:10089A0004F052EF04F053EF04F01680D890293692
:1008AA002A362B362C361A50225C1B5023581C50E1
:1008BA0024581D502558D8A065EF04F067EF04F0BE
:1008CA0070EF04F02C8C1A50225E1B50235A1C50D5
:1008DA00245A1D50255A2E2A190E2E6477EF04F039
:1008EA0079EF04F039EF04F0225023102410251078
:1008FA00D8B482EF04F084EF04F09CEF04F029806E
:10090A009CEF04F0D89016361736183619362CAEE6
:10091A0091EF04F093EF04F094EF04F01680D8906E
:10092A0029362A362B362C362706D8A0280618AEA2
:10093A00A1EF04F0A3EF04F087EF04F0000E2E6E8F
:10094A002CAEAAEF04F0ACEF04F0D0EF04F0FF0EE7
:10095A0029141E6EFF0E2A141F6EFF0E2B14206E12
:10096A007F0E2C14216E1E501F1020102110D8B497
:10097A00C1EF04F0C3EF04F0C7EF04F0010E2E6ECE
:10098A00D0EF04F016A0CCEF04F0CEEF04F0D0EFD5
:10099A0004F0C3EF04F02E50D8B4D6EF04F0D8EF29
:1009AA0004F0FCEF04F0010E1626000E172218229E
:1009BA00192219A0E3EF04F0E5EF04F0FCEF04F0CC
:1009CA0016C01EF017C01FF018C020F019C021F081
:1009DA002134213220321F321E321EC016F01FC0AF
:1009EA0017F020C018F021C019F0274A282A28BE7B
:1009FA0007EF05F0285008E12728D8A007EF05F0EF
:100A0A0009EF05F014EF05F0000E286E2768000EB6
:100A1A00166E000E176E000E186E000E196E28BEA6
:100A2A0021EF05F0285006E12704D8B01FEF05F0A2
:100A3A0021EF05F02FEF05F0000E286E000E276E4D
:100A4A00000E166E000E176E000E186E000E196E4E
:100A5A00000E266E27C02DF02DA036EF05F038EFD8
:100A6A0005F03BEF05F0188E3CEF05F0189ED89084
:100A7A002D30196EF2EF03F012001F6E470E036E4F
:100A8A000350D8A4060E046E800E056E6CEC0EF0B0
:100A9A003E50116E3F50126E3E4A3F2A12BE61EF1F
:100AAA0005F0F40E115C010E1258D8B05FEF05F094
:100ABA0061EF05F069EF05F04050C00F0F6E5F0E51
:100ACA0002EC10F091EF05F03FBE75EF05F0F50E60
:100ADA003E5C010E3F58D8A075EF05F077EF05F0A0
:100AEA008DEF05F03FBE85EF05F0E80E3E5C030E84
:100AFA003F58D8B083EF05F085EF05F08DEF05F08C
:100B0A004050C00F0F6E200E02EC10F091EF05F06E
:100B1A00000E3F6E000E3E6E050E1F18D8A498EF09
:100B2A0005F09AEF05F0AAEF05F040507A0FD96E5A
:100B3A00DA6A300EDF6E4050C00F0F6E2A0E02ECDA
:100B4A0010F0404A412AC1EF05F0060E1F18D8A43A
:100B5A00B1EF05F0B3EF05F0C1EF05F040507A0FA1
:100B6A00D96EDA6A310EDF6E4050C00F0F6E2A0E50
:100B7A0002EC10F0A6EF05F0040E40184110D8A4BC
:100B8A00C9EF05F0CBEF05F0D2EF06F040507A0F2F
:100B9A00D96EDA6ADF6A7F0E016E7A0E026E34EC63
:100BAA000DF001500210D8A4DDEF05F0DFEF05F0DB
:100BBA00F9EF05F0890E036E0350D8A4060E046EF1
:100BCA00800E056E6CEC0EF0010E036E0350D8A475
:100BDA00060E046EC00E056E6CEC0EF0010E526E1F
:100BEA00D2EF06F0D2EF06F05C50D8A4FFEF05F082
:100BFA0001EF06F07FEF06F0F28AF28EF28C990E80
:100C0A00036E0350D8A4060E046E800E056E6CECBB
:100C1A000EF0930E036E0350D8A4060E046EC00E97
:100C2A00056E6CEC0EF0C50E0F6E5DC001F0026A27
:100C3A00000E046E640E036E26EC0CF00150300FA9
:100C4A0002EC10F0C60E0F6E000E046E0A0E036E52
:100C5A005DC001F0026A26EC0CF001C009F002C086
:100C6A000AF0000E0C6E0A0E0B6E88EC0CF009509E
:100C7A00300F02EC10F0C70E0F6E5DC009F00A6A61
:100C8A00000E0C6E0A0E0B6E88EC0CF00950300F39
:100C9A0002EC10F0400E1B6E0D0E1C6E030E1D6E44
:100CAA00000E1E6E1B06000E1C5A1D5A1E5A1B28C9
:100CBA000AE11C2808E11D2806E11E28D8A468EFCD
:100CCA0006F06AEF06F057EF06F05D50D8A470EF11
:100CDA0006F072EF06F0F7EF05F0020E5C6E000EFA
:100CEA00416E000E406E000E016E010E9CEC0FF07C
:100CFA00D2EF06F0360E036E0350D8A4060E046E29
:100D0A00800E056E6CEC0EF0C00E0F6E5C50300F4C
:100D1A0002EC10F0B80E036E0350D8A4060E046E4F
:100D2A00C10E056E6CEC0EF0800E136E1A0E146E68
:100D3A00060E156E000E166E000E176E000E186E59
:100D4A00000E196E000E1A6E1306000E145A155A6A
:100D5A00165A175A185A195A1A5A132812E11428E5
:100D6A0010E115280EE116280CE117280AE11828C7
:100D7A0008E1192806E11A28D8A4C6EF06F0C8EF38
:100D8A0006F0A9EF06F05C06000E416E000E406EFA
:100D9A00000E016E010E9CEC0FF01200166E485008
:100DAA00D8A4DAEF06F0DCEF06F014EF07F0000E35
:100DBA00476E050E1618D8A4E5EF06F0E7EF06F021
:100DCA0000EF07F0FF0E4924116E126AFF0E12227D
:100DDA004650136E146A1150135C1450800A156E33
:100DEA001250800A1558D8B0FDEF06F0FFEF06F052
:100DFA0000EF07F0462A060E1618D8A407EF07F0E8
:100E0A0009EF07F043EF07F04650D8B40FEF07F0A9
:100E1A0011EF07F043EF07F0460643EF07F04804E7
:100E2A00D8A41AEF07F01CEF07F043EF07F049C008
:100E3A0047F0050E1618D8A425EF07F027EF07F09C
:100E4A0030EF07F0090E46602DEF07F02FEF07F09D
:100E5A0030EF07F0462A060E1618D8A437EF07F027
:100E6A0039EF07F043EF07F04650D8B43FEF07F0E9
:100E7A0041EF07F043EF07F011EF07F0000E186E8D
:100E8A00000E176EC00E0F6E46C009F00A6A000EF9
:100E9A000C6E0A0E0B6E88EC0CF009504724310FC9
:100EAA0002EC10F01750600FD96EDA6A46C009F0EA
:100EBA000A6A000E0C6E0A0E0B6E88EC0CF00950D2
:100ECA000A0DF3CF11F047500A0DF35011241724DD
:100EDA00B9EC0FF0DF6E174A182A18BE7EEF07F03A
:100EEA00185009E10A0E175CD8A07EEF07F080EFD0
:100EFA0007F047EF07F0140E036E0350D8A4060E4E
:100F0A00046E800E056E6CEC0EF0C20E0F6E0001C0
:100F1A00605102EC10F0C30E0F6E0001615102EC39
:100F2A0010F0C40E0F6E3A0E02EC10F0C50E0F6EE2
:100F3A000001625102EC10F0C60E0F6E00016351FF
:100F4A0002EC10F0C70E0F6E3A0E02EC10F0C80E4B
:100F5A000F6E0001645102EC10F0C90E0F6E000111
:100F6A00655102EC10F0CB0E0F6E0001665102ECD7
:100F7A0010F0CC0E0F6E0001675102EC10F0CE0E8D
:100F8A000F6E0001685102EC10F0CF0E0F6E0001D7
:100F9A00695102EC10F0120076EC0DF0000EF7EC3D
:100FAA000DF0516E5128D8B4DDEF07F0DFEF07F0EE
:100FBA00F8EF07F051C050F0424A432AE80E4218AF
:100FCA0007E1030E4318D8A4EDEF07F0EFEF07F09F
:100FDA00F4EF07F051500A0F516E21EF08F0000E9E
:100FEA00516E21EF08F043BE03EF08F0435008E1C9
:100FFA004204D8A003EF08F005EF08F01BEF08F051
:10100A0043BE13EF08F0E80E425C030E4358D8B013
:10101A0011EF08F013EF08F01BEF08F0000E436E13
:10102A00000E426E50C051F021EF08F0000E436EE0
:10103A00000E426E000E516EAE0E1A6E470E1B6EF9
:10104A00250E1C6E410E1D6E040E59EC0FF001C0E8
:10105A0008F002C009F00A6A0B6A000EADEC08F04B
:10106A0008C016F009C017F00AC018F00BC019F032
:10107A0075EC03F016C02FF017C030F018C031F02D
:10108A0019C032F03BEC0BF02FC044F030C045F0F1
:10109A004F50D8A453EF08F055EF08F069EF08F065
:1010AA0025EC0AF0050E5118D8A45EEF08F060EF9F
:1010BA0008F0D3EF07F0000E016E010E9CEC0FF062
:1010CA00010E4F6ED3EF07F04F04D8A46FEF08F06C
:1010DA0071EF08F085EF08F0515042EC05F0520428
:1010EA00D8A47AEF08F07CEF08F0D3EF07F0000EEF
:1010FA00016E010E9CEC0FF0020E4F6ED3EF07F05B
:10110A00020E4F18D8A48CEF08F08EEF08F093EF78
:10111A0008F0515087EC09F0D3EF07F0030E4F188F
:10112A00D8A49AEF08F09CEF08F0D3EF07F04E50DE
:10113A00D8A4A2EF08F0A4EF08F0A9EF08F05150E4
:10114A00D3EC06F0D3EF07F0D3EF07F007EF00F088
:10115A00106E1050D8B4B4EF08F0B6EF08F0D8EF1C
:10116A0008F00BBEBDEF08F0BBEF08F0D8EF08F0AF
:10117A0008C00CF009C00DF00AC00EF00BC00FF049
:10118A000C1E0D1E0E1E0F1E0C2A000E0D220E2204
:10119A000F220CC012F00DC013F00EC014F00FC0D5
:1011AA0015F0E0EF08F008C012F009C013F00AC009
:1011BA0014F00BC015F0085009100A100B10D8A42F
:1011CA00E9EF08F0EBEF08F0F5EF08F0000E086E13
:1011DA00000E096E000E0A6E000E0B6E86EF09F005
:1011EA00960E116EFFEF08F0112AD89015321432BC
:1011FA0013321232000E12140C6E000E13140D6EFE
:10120A00000E14140E6EFE0E15140F6E0C500D10F7
:10121A000E100F10D8A414EF09F016EF09F0F9EF29
:10122A0008F024EF09F0112A010E1226000E1322EB
:10123A0014221522D8901532143213321232000EAB
:10124A0012140C6E000E13140D6E000E14140E6E92
:10125A00FF0E15140F6E0C500D100E100F10D8A49F
:10126A0039EF09F03BEF09F018EF09F043EF09F005
:10127A001106D890123613361436153614BE48EFB6
:10128A0009F04AEF09F052EF09F0020E116050EF2F
:10129A0009F052EF09F03DEF09F011B057EF09F0EC
:1012AA0059EF09F05AEF09F0149ED890113211C083
:1012BA000CF00D6A0E6A0F6A0CC00FF00E6A0D6A06
:1012CA000C6A0C5012120D5013120E5014120F50B9
:1012DA0015121050D8B474EF09F076EF09F07EEFCA
:1012EA0009F00BBE7DEF09F07BEF09F07EEF09F004
:1012FA00158E12C008F013C009F014C00AF015C008
:10130A000BF01200126E4A508C0FD96EDA6ADF5057
:10131A00116E11C003F00350D8A4060E046E820E9B
:10132A00056E6CEC0EF04A508D0FD96EDA6ADF50FA
:10133A00116E11C003F00350D8A4060E046EC20E3B
:10134A00056E6CEC0EF04B50D8A4AEEF09F0B0EF7E
:10135A0009F0BCEF09F0800E0F6E2A0E02EC10F0B5
:10136A00C00E0F6E200E02EC10F0C6EF09F0800ED0
:10137A000F6E200E02EC10F0C00E0F6E2A0E02EC59
:10138A0010F0050E1218D8A4CDEF09F0CFEF09F02E
:10139A00E4EF09F04B50D8A4D5EF09F0D7EF09F0E4
:1013AA00DBEF09F0010E4B6EE4EF09F0030E4A6021
:1013BA00E1EF09F0E3EF09F0E4EF09F04A2A060E3B
:1013CA001218D8A4EBEF09F0EDEF09F002EF0AF0DA
:1013DA004B04D8A4F3EF09F0F5EF09F0F9EF09F09F
:1013EA00000E4B6E02EF0AF04A50D8B4FFEF09F034
:1013FA0001EF0AF002EF0AF04A060F0E1218D8A4FB
:10140A0009EF0AF00BEF0AF014EF0AF0000E016E72
:10141A00010E9CEC0FF0030E4F6E4AC04EF0100EF8
:10142A001218D8A41BEF0AF01DEF0AF024EF0AF0F5
:10143A00000E016E010E9CEC0FF0000E4F6E1200B2
:10144A00580E036E0350D8A4060E046E800E056E65
:10145A006CEC0EF04C50840FD96EDA6ADF50116EC4
:10146A0011C003F00350D8A4060E046ECA0E056E0E
:10147A006CEC0EF0020E5118D8A446EF0AF048EFB1
:10148A000AF053EF0AF0060E4C604EEF0AF050EFE6
:10149A000AF053EF0AF04C2ABEEC0BF0030E511877
:1014AA00D8A45AEF0AF05CEF0AF070EF0AF0070EC0
:1014BA004C18D8B463EF0AF065EF0AF070EF0AF03F
:1014CA00010E4C646BEF0AF06DEF0AF070EF0AF050
:1014DA004C06BEEC0BF05104D8A476EF0AF078EF74
:1014EA000AF07CEF0AF0070E4C6EBEEC0BF0070E0A
:1014FA004C18D8A483EF0AF085EF0AF092EF0AF0AD
:10150A00020E5118D8A48CEF0AF08EEF0AF092EF6F
:10151A000AF0020E4C6EBEEC0BF0CE0E0F6E44C0FB
:10152A0001F045C002F0000E046E0A0E036E32ECA2
:10153A000EF00150300F02EC10F0CF0E0F6E44C0C7
:10154A0001F045C002F0000E046E0A0E036ED4ECE0
:10155A000EF00150300F02EC10F0B7EC0DF035EC44
:10156A0010F01200819A818C818E81B2BFEF0AF04D
:10157A00C1EF0AF0C4EF0AF0010E3AEF0BF081B4A2
:10158A00C9EF0AF0CBEF0AF0CEEF0AF0040E3AEFF9
:10159A000BF081B6D3EF0AF0D5EF0AF0D8EF0AF0D4
:1015AA00070E3AEF0BF081B8DDEF0AF0DFEF0AF031
:1015BA00E2EF0AF00A0E3AEF0BF0818A819C818EE3
:1015CA0081B2EAEF0AF0ECEF0AF0EFEF0AF0020E4E
:1015DA003AEF0BF081B4F4EF0AF0F6EF0AF0F9EF04
:1015EA000AF0050E3AEF0BF081B6FEEF0AF000EFB3
:1015FA000BF003EF0BF0080E3AEF0BF081B808EF8F
:10160A000BF00AEF0BF00DEF0BF00B0E3AEF0BF0AD
:10161A00818A818C819E819E81B216EF0BF018EF30
:10162A000BF01BEF0BF0030E3AEF0BF081B420EF37
:10163A000BF022EF0BF025EF0BF0060E3AEF0BF052
:10164A0081B62AEF0BF02CEF0BF02FEF0BF0090EFF
:10165A003AEF0BF081B834EF0BF036EF0BF039EFBD
:10166A000BF00C0E3AEF0BF0FF0E1200313432344D
:10167A00386E3850D8A444EF0BF046EF0BF050EF19
:10168A000BF0000E2F6E000E306E000E316E000E43
:10169A00326EBDEF0BF02FC033F030C034F031C0E2
:1016AA0035F032C036F0200E60EF0BF0D8903632AB
:1016BA00353234323332E82E5BEF0BF03350376E6B
:1016CA00318EFF0E2F16FF0E3016FF0E3116000E4A
:1016DA003216960E385E38BE77EF0BF075EF0BF0C8
:1016EA008DEF0BF03850800A970FD8B07FEF0BF0D0
:1016FA0081EF0BF083EF0BF046EF0BF0D89032320C
:10170A00313230322F32383E83EF0BF0A5EF0BF037
:10171A001F0E386493EF0BF095EF0BF09DEF0BF073
:10172A0046EF0BF0D8902F3630363136323638063F
:10173A003850D8A4A3EF0BF0A5EF0BF097EF0BF0FE
:10174A003750D8B4ABEF0BF0ADEF0BF0B5EF0BF0B1
:10175A00321E311E301E2F6C000E302231223222F0
:10176A002FC02FF030C030F031C031F032C032F02B
:10177A00120053C06BF054C06CF056C06DF057C0E5
:10178A006EF059C06FF05AC070F04C50840FD96E89
:10179A00DA6ADFCFF6FF060EF76E0800F5CF71F0B2
:1017AA004C50840FD96EDA6ADF50086E010E082693
:1017BA0008C0F6FF060EF76E0800F5CF72F044C0B7
:1017CA0001F045C002F0000E046E0A0E036E32EC00
:1017DA000EF00150300F0001736F44C001F045C094
:1017EA0002F0000E046E0A0E036ED4EC0EF00150E5
:1017FA00300F0001746F000E096E09506B0FD96E1D
:10180A00DA6ADF50026E49500A0DF35009247CEC63
:10181A000FF0092A090E096415EF0CF017EF0CF006
:10182A0002EF0CF0492A0A0E4918D8A41FEF0CF04F
:10183A0021EF0CF025EF0CF0000E496E010E486EF8
:10184A001200000E066E04BE2FEF0CF02DEF0CF006
:10185A0035EF0CF0036C041ED8B0042A010E066E94
:10186A0002BE3CEF0CF03AEF0CF042EF0CF0016CC8
:10187A00021ED8B0022A010E061A000E086E000EC9
:10188A00076E03500410D8B44DEF0CF04FEF0CF074
:10189A0077EF0CF0010E056E57EF0CF0D890033677
:1018AA000436052A04AE5CEF0CF05EEF0CF053EF41
:1018BA000CF0D890073608360350015C04500258E1
:1018CA00D8A06AEF0CF06CEF0CF071EF0CF003503B
:1018DA00015E0450025A0780D89004320332052E62
:1018EA005EEF0CF00650D8B47DEF0CF07FEF0CF0F1
:1018FA0083EF0CF0076C081ED8B0082A07C001F065
:10190A0008C002F01200000E0E6E0ABE91EF0CF033
:10191A008FEF0CF097EF0CF0096C0A1ED8B00A2A68
:10192A00010E0E6E0CBE9EEF0CF09CEF0CF0A2EFB7
:10193A000CF00B6C0C1ED8B00C2A0B500C10D8B43F
:10194A00A9EF0CF0ABEF0CF0CFEF0CF0010E0D6E1F
:10195A00B3EF0CF0D8900B360C360D2A0CAEB8EF5C
:10196A000CF0BAEF0CF0AFEF0CF00B50095C0C5016
:10197A000A58D8A0C3EF0CF0C5EF0CF0C9EF0CF071
:10198A000B50095E0C500A5AD8900C320B320D2EAD
:10199A00BAEF0CF00E50D8B4D5EF0CF0D7EF0CF02C
:1019AA00DBEF0CF0096C0A1ED8B00A2A09C009F04C
:1019BA000AC00AF01200000E956E9450F80B946E4D
:1019CA008290C30E036ECD0EE82EFED7032EFCD7EF
:1019DA000000000E016E330E9CEC0FF01B0E036E1E
:1019EA009E0EE82EFED7032EFCD700D0000E016E05
:1019FA00330E9CEC0FF0A60EE82EFED700D0000E98
:101A0A00016E330E9CEC0FF000D000D00000000EE7
:101A1A00016E020E9CEC0FF0A60EE82EFED700D047
:101A2A00000E016E380E9CEC0FF0A60EE82EFED7C3
:101A3A0000D0000E016E010E9CEC0FF0040E036E36
:101A4A003E0EE82EFED7032EFCD7000E016E0C0EBA
:101A5A009CEC0FF0A60EE82EFED700D01200000E66
:101A6A00086E000E076E000E066E000E056E65EF1C
:101A7A000DF002500724D96EDA6A01500724E16E8C
:101A8A00E26ADE50E618D8B44DEF0DF04FEF0DF0D4
:101A9A0063EF0DF001500724D96EDA6ADF50036E46
:101AAA0002500724D96EDA6ADF50046E0450035CD0
:101ABA00056E066AD8A0060671EF0DF0074A082AD5
:101ACA0001500724D96EDA6ADF50D8A46FEF0DF0FF
:101ADA0071EF0DF03EEF0DF005C001F006C002F007
:101AEA001200E0EC0CF023EC10F0E3EC0FF00EEC3B
:101AFA0010F035EC0FF019EC10F0300E026EC80E33
:101B0A007CEC0FF0300E026EC90E7CEC0FF0300E3A
:101B1A00026ECA0E7CEC0FF0300E026ECB0E7CEC1D
:101B2A000FF0000E076E000E066E06507F0FD96E7C
:101B3A00DA6A0650C80FB9EC0FF0DF6E064A072AB8
:101B4A0007BEB1EF0DF0075009E1040E065CD8A0FC
:101B5A00B1EF0DF0B3EF0DF09AEF0DF0000E0001AA
:101B6A00836F1200020ECEEC0FF0396E010ECEEC2E
:101B7A000FF03A6E000ECEEC0FF03B6E39ACC8EFA8
:101B8A000DF0CAEF0DF0D5EF0DF039380F0B010B40
:101B9A00300F536E39500F0B300F546EDEEF0DF0CD
:101BAA0039380F0B030B300F536E39500F0B300FB0
:101BBA00546E3A0E556E3A380F0B0F0B300F566EA5
:101BCA003A500F0B300F576E3A0E586E3B380F0BC8
:101BDA000F0B300F596E3B500F0B300F5A6E000E21
:101BEA005B6E1200016E0104D8A4FEEF0DF000EF47
:101BFA000EF024EF0EF0B7EC0AF04D6E4D28D8B473
:101C0A0009EF0EF00BEF0EF018EF0EF05E50D8B49D
:101C1A0011EF0EF013EF0EF018EF0EF0000E5E6EDD
:101C2A004D5031EF0EF04D28D8A41EEF0EF020EFE4
:101C3A000EF030EF0EF0010E5E6E30EF0EF0015036
:101C4A00D8A42AEF0EF02CEF0EF030EF0EF0B7EC1E
:101C5A000AF031EF0EF0FF0E1200000E066E000EB3
:101C6A00056E03500410D8B43DEF0EF03FEF0EF0AE
:101C7A0067EF0EF0010E076E47EF0EF0D8900336AD
:101C8A000436072A04AE4CEF0EF04EEF0EF043EF87
:101C9A000EF0D890053606360350015C04500258FF
:101CAA00D8A05AEF0EF05CEF0EF061EF0EF0035081
:101CBA00015E0450025A0580D89004320332072E7E
:101CCA004EEF0EF005C001F006C002F01200000E41
:101CDA00016E05509CEC0FF089EF0EF0010E016EBB
:101CEA0003C0F6FF04C0F7FFF86A050EF76403D0D5
:101CFA000800F55005D0F6CFE9FFF7CFEAFFEF501D
:101D0A009CEC0FF0034A042A03C0F6FF04C0F7FF55
:101D1A00F86A050EF76403D00800F55005D0F6CF2F
:101D2A00E9FFF7CFEAFFEF500009D8A49FEF0EF0C2
:101D3A00A1EF0EF073EF0EF012007A0EF66E200E7F
:101D4A00F76E000EF86E00EE84F010EE0DF009004A
:101D5A00F5CFEEFFE550E150FAE1C60EF66E200E21
:101D6A00F76E000EF86E0900F5CF5CF00900F5CFAA
:101D7A005DF00900F5CF5EF000EE60F0240EEE6A29
:101D8A00E806FDE100EE39F0230EEE6AE806FDE111
:101D9A005F905F92000EF86E0001D1EF07F00350DA
:101DAA000410D8B4DBEF0EF0DDEF0EF001EF0FF008
:101DBA00010E056EE5EF0EF0D89003360436052ABB
:101DCA0004AEEAEF0EF0ECEF0EF0E1EF0EF0035086
:101DDA00015C04500258D8A0F5EF0EF0F7EF0EF0B0
:101DEA00FBEF0EF00350015E0450025AD890043201
:101DFA000332052EECEF0EF001C001F002C002F032
:101E0A0012000600F2A40CEF0FF00EEF0FF033EF02
:101E1A000FF0080ED624D66E000ED720D76E010E0C
:101E2A0000017627000E772378237923210E76196D
:101E3A0009E14E0E771978117911D8A427EF0FF01E
:101E4A0029EF0FF032EF0FF0000E766F000E776F6A
:101E5A00000E786F000E796F5D06F2945F921100A2
:101E6A00000ECEEC0FF0046E04508009026E000ED4
:101E7A00F3EC0FF0020ECEEC0FF0046E04504009A2
:101E8A00026E020EF3EC0FF0930E026E070EF3ECE5
:101E9A000FF0000ECEEC0FF0046E04507F0B026EB2
:101EAA00000EF3EC0FF01200076E07C003F0D89093
:101EBA000336D8900336C250C30B0310C26EC282D7
:101ECA00C2B26AEF0FF06CEF0FF065EF0FF0C3507C
:101EDA00C4CF03F0046A03C004F0036A0310056E5A
:101EEA000450066E05C001F006C002F01200056E2D
:101EFA0054EC10F0A00E44EC10F0055044EC10F035
:101F0A00025044EC10F050EC10F00B0E046EB80EB8
:101F1A00036E0306D8A00406032806E10428D8A401
:101F2A0099EF0FF09BEF0FF08EEF0FF01200026E99
:101F3A0001B0A2EF0FF0A5EF0FF08282A6EF0FF02B
:101F4A00829202C083FF82848294958E82808292DA
:101F5A008284829483BEB4EF0FF0B6EF0FF0ADEF38
:101F6A000FF08290959E1200026E54EC10F0A00EB3
:101F7A0044EC10F0025044EC10F058EC10F0A10EB2
:101F8A0044EC10F04AEC10F0036E50EC10F00350E1
:101F9A001200026E54EC10F0D00E44EC10F0025015
:101FAA0044EC10F058EC10F0D10E44EC10F04AEC6E
:101FBA0010F0036E50EC10F003501200C08EC09A5D
:101FCA00C088C096C090C082C094C292C19AC1987B
:101FDA00000EC46E000EC36EC2801200036E54EC73
:101FEA0010F0D00E44EC10F0035044EC10F0025004
:101FFA0044EC10F050EC10F01200106E000E016E5E
:10200A000F509CEC0FF0010E016E10509CEC0FF07B
:10201A00120094869488280EC66E310EC86EC79C2C
:10202A00C78E9E96A1961200D58CD59AD58ED58646
:10203A00000ED76E060ED66EF29412000F0EC16E07
:10204A001E0E936EF19E8150E009816E12009EA6CB
:10205A0031EF10F033EF10F02CEF10F09E961200D3
:10206A00530E036E046AC00E056E6CEC0EF012007D
:0D207A00E2E5DFD3D6D9DCD0A96925C7790E
:10208800016E01C0C9FF2CEC10F012005CEC10F0DE
:1020980060EC10F0C9501200C5842CEC10F012004E
:1020A800C5802CEC10F01200C5822CEC10F0120048
:1020B800C5862CEC10F01200C58AC588120002B43F
:0120C8000116
:020000040020DA
:08000000FFFFFFFFFFFFFFFF00
:020000040030CA
:0E000000FF071F1FFF8285FF0FC00FE00F409C
:00000001FF
