:020000040000FA
:0400000007EF00F016
:100008005F8239ED10F0D5EF0FF01950800B266E96
:10001800195019242D6E18AE14EF00F016EF00F0E9
:1000280017EF00F02D802D50D8B41DEF00F01FEF12
:1000380000F034EF00F02D28D8A425EF00F027EFCA
:1000480000F02FEF00F0000E166E000E176E000E77
:10005800186E000E196E188E000E196E3CEF00F027
:10006800000E166E000E176E000E186E000E196E3A
:100078001D50800B261A1D501D242E6E1CAE47EFF6
:1000880000F049EF00F04AEF00F02E802E50D8B46F
:1000980050EF00F052EF00F067EF00F02E28D8A4E0
:1000A80058EF00F05AEF00F062EF00F0000E1A6E01
:1000B800000E1B6E000E1C6E000E1D6E1C8E000EB8
:1000C8001D6E6FEF00F0000E1A6E000E1B6E000E14
:1000D8001C6E000E1D6E1A501B101C101D10D8A48B
:1000E80078EF00F07AEF00F092EF00F0000E166E55
:1000F800000E176E000E186E000E196E800E181284
:100108007F0E19122650191216C016F017C017F0D4
:1001180018C018F019C019F0D5EF01F02D50D8A467
:1001280098EF00F09AEF00F0A4EF00F0000E166EC2
:10013800000E176E000E186E000E196ED5EF01F046
:100148002E502DC01EF01F6A1E5E000E1F5A7F0E15
:100158001E24276E000E1F20286E16C022F017C01E
:1001680023F018C024F019C025F0000E166E000EFA
:10017800176E000E186E000E196E000E296E000E16
:100188002A6E000E2B6E000E2C6E000E2E6E05EFE2
:1001980001F02E50D8B4D3EF00F0D5EF00F0ECEF1B
:1001A80000F0D8902236233624362536D8901636D5
:1001B8001736183619362CAEE4EF00F0E6EF00F0EB
:1001C800E7EF00F01680D89029362A362B362C36E1
:1001D8001A50225C1B5023581C5024581D50255877
:1001E800D8A0F9EF00F0FBEF00F004EF01F02C8C41
:1001F8001A50225E1B50235A1C50245A1D50255A4F
:100208002E2A190E2E640BEF01F00DEF01F0CDEF41
:1002180000F02250231024102510D8B416EF01F056
:1002280018EF01F030EF01F0298030EF01F0D8909D
:1002380016361736183619362CAE25EF01F027EF8B
:1002480001F028EF01F01680D89029362A362B368F
:100258002C362706D8A0280618AE35EF01F037EF60
:1002680001F01BEF01F0000E2E6E2CAE3EEF01F0F8
:1002780040EF01F064EF01F0FF0E29141E6EFF0E2F
:100288002A141F6EFF0E2B14206E7F0E2C14216E65
:100298001E501F1020102110D8B455EF01F057EF51
:1002A80001F05BEF01F0010E2E6E64EF01F016A075
:1002B80060EF01F062EF01F064EF01F057EF01F039
:1002C8002E50D8B46AEF01F06CEF01F090EF01F016
:1002D800010E1626000E17221822192219A077EFF0
:1002E80001F079EF01F090EF01F016C01EF017C091
:1002F8001FF018C020F019C021F02134213220321B
:100308001F321E321EC016F01FC017F020C018F092
:1003180021C019F0274A282A28BE9BEF01F028504F
:1003280008E12728D8A09BEF01F09DEF01F0A8EF86
:1003380001F0000E286E2768000E166E000E176E6C
:10034800000E186E000E196E28BEB5EF01F0285089
:1003580006E12704D8B0B3EF01F0B5EF01F0C3EF21
:1003680001F0000E286E000E276E000E166E000EAD
:10037800176E000E186E000E196E000E266E27C03E
:100388002DF02DA0CAEF01F0CCEF01F0CFEF01F076
:10039800188ED0EF01F0189ED8902D30196E86EF88
:1003A80000F01200176E4950D8A4DDEF01F0DFEF1E
:1003B80001F073EF02F0CD0E036E2E0E046E800E68
:1003C800056E9FEC0FF03C50116E3D50126E3C4A8A
:1003D8003D2A12BEFBEF01F0F40E115C010E12581B
:1003E800D8B0F9EF01F0FBEF01F003EF02F04A504B
:1003F800C00F0F6E5F0E5DEC11F02BEF02F03DBEEB
:100408000FEF02F0F50E3C5C010E3D58D8A00FEF3F
:1004180002F011EF02F027EF02F03DBE1FEF02F0ED
:10042800E80E3C5C030E3D58D8B01DEF02F01FEFFC
:1004380002F027EF02F04A50C00F0F6E200E5DEC5D
:1004480011F02BEF02F0000E3D6E000E3C6E050E13
:100458001718D8A432EF02F034EF02F043EF02F09D
:100468004A50950FD96EDA6A300EDF6E4A50C00FC7
:100478000F6E2A0E5DEC11F04A2A5AEF02F0060EB2
:100488001718D8A44AEF02F04CEF02F05AEF02F026
:100498004A50950FD96EDA6A310EDF6E4A50C00F96
:1004A8000F6E2A0E5DEC11F040EF02F0040E4A18B0
:1004B800D8A461EF02F063EF02F0A1EF03F04A5015
:1004C800950FD96EDA6ADF6A010E496E000E4A6E20
:1004D800000E016E010ECFEC10F0A1EF03F04904FD
:1004E800D8A479EF02F07BEF02F0A1EF03F07F0EC2
:1004F800036E2E0E046E800E056E9FEC0FF03C50BE
:10050800116E3D50126E3C4A3D2A12BE97EF02F022
:10051800F40E115C010E1258D8B095EF02F097EF67
:1005280002F09FEF02F04A50C00F0F6E5F0E5DECB5
:1005380011F0C7EF02F03DBEABEF02F0F50E3C5CE8
:10054800010E3D58D8A0ABEF02F0ADEF02F0C3EFBB
:1005580002F03DBEBBEF02F0E80E3C5C030E3D58D6
:10056800D8B0B9EF02F0BBEF02F0C3EF02F04A5087
:10057800C00F0F6E200E5DEC11F0C7EF02F0000EF9
:100588003D6E000E3C6E050E1718D8A4CEEF02F093
:10059800D0EF02F0DFEF02F04A50900FD96EDA6A1E
:1005A800300EDF6E4A50C00F0F6E2A0E5DEC11F050
:1005B8004A2AF6EF02F0060E1718D8A4E6EF02F062
:1005C800E8EF02F0F6EF02F04A50900FD96EDA6ABF
:1005D800310EDF6E4A50C00F0F6E2A0E5DEC11F01F
:1005E800DCEF02F0040E4A18D8A4FDEF02F0FFEF8A
:1005F80002F0A1EF03F04A50900FD96EDA6ADF6A71
:10060800950E016E900E026EE8EC0EF0015002108D
:10061800D8A411EF03F013EF03F09FEF03F095C098
:100628009FF095C002F0C80EAFEC10F096C0A0F095
:1006380096C002F0C90EAFEC10F097C0A1F097C0B9
:1006480002F0CA0EAFEC10F098C0A2F098C002F009
:10065800CB0EAFEC10F0A80E036E2E0E046E800EBB
:10066800056E9FEC0FF0150E036E2F0E046EC00E74
:10067800056E9FEC0FF0400E136E0D0E146E030EF8
:10068800156E000E166E1306000E145A155A165AD9
:1006980013280AE1142808E1152806E11628D8A429
:1006A80058EF03F05AEF03F047EF03F0000E4A6EDD
:1006B800000E496E87C076F088C077F08AC078F05F
:1006C8008BC079F08DC07AF08EC07BF0430E0001AC
:1006D8007C6F4C0E7D6F42C001F043C002F0000EEB
:1006E800046E0A0E036E65EC0FF00150300F000126
:1006F8007E6F42C001F043C002F0000E046E0A0E85
:10070800036E07EC10F00150300F00017F6F000EF0
:10071800186E1850760FD96EDA6ADF50026E1850CC
:10072800AFEC10F0182A090E18649DEF03F09FEF44
:1007380003F08DEF03F0020E596E1200136EBB0E1C
:10074800036E2E0E046E800E056E9FEC0FF0445063
:10075800D8A4B1EF03F0B3EF03F0C7EF03F0000143
:1007680087510B0DF350F00F486E8A510A0DF35064
:100778008B25F00F476E8D510A0DF3508E25F00F23
:10078800466E010E446EC00E0F6E48C001F0026A3C
:10079800000E046E0A0E036EB1EC0CF00150300F1F
:1007A8005DEC11F0C10E0F6E48C009F00A6A000E28
:1007B8000C6E0A0E0B6E75EC0DF00950300F5DECE7
:1007C80011F0C20E0F6E3A0E5DEC11F0C30E0F6EF3
:1007D80047C001F0026A000E046E0A0E036EB1EC07
:1007E8000CF00150300F5DEC11F0C40E0F6E47C0D5
:1007F80009F00A6A000E0C6E0A0E0B6E75EC0DF00D
:100808000950300F5DEC11F0C50E0F6E3A0E5DEC1D
:1008180011F0C60E0F6E46C001F0026A000E046E9B
:100828000A0E036EB1EC0CF00150300F5DEC11F0C4
:10083800C70E0F6E46C009F00A6A000E0C6E0A0E4B
:100848000B6E75EC0DF00950300F5DEC11F0050ED4
:100858001318D8A432EF04F034EF04F07BEF04F05F
:100868004550D8A43AEF04F03CEF04F04CEF04F004
:100878003B0E4618D8A443EF04F045EF04F049EFC7
:1008880004F0000E466E90EF04F0462A90EF04F054
:100898004504D8A452EF04F054EF04F062EF04F0DA
:1008A8003B0E4718D8A45BEF04F05DEF04F05FEF50
:1008B80004F0000E476E472A90EF04F0020E451828
:1008C800D8A469EF04F06BEF04F079EF04F0170E89
:1008D8004818D8A472EF04F074EF04F076EF04F02F
:1008E800000E486E482A90EF04F090EF04F0060ED0
:1008F8001318D8A482EF04F084EF04F090EF04F00A
:10090800452A030E4518D8A48CEF04F08EEF04F0A6
:1009180090EF04F0000E456E0F0E1318D8A497EF51
:1009280004F099EF04F016EF05F048C009F00A6AE0
:10093800000E0C6E0A0E0B6E75EC0DF009C011F06E
:100948000AC012F048C001F0026A000E046E0A0ED6
:10095800036EB1EC0CF00138F00B1110396E47C082
:1009680009F00A6A000E0C6E0A0E0B6E75EC0DF09B
:1009780009C011F00AC012F047C001F0026A000E67
:10098800046E0A0E036EB1EC0CF00138F00B111076
:10099800396E46C009F00A6A000E0C6E0A0E0B6E1C
:1009A80075EC0DF009C011F00AC012F046C001F054
:1009B800026A000E046E0A0E036EB1EC0CF00138E8
:1009C800F00B1110396E87C076F088C077F08AC0B6
:1009D80078F08BC079F08DC07AF08EC07BF0530E22
:1009E80000017C6F540E7D6F42C001F043C002F0DD
:1009F800000E046E0A0E036E65EC0FF00150300F06
:100A080000017E6F42C001F043C002F0000E046E88
:100A18000A0E036E07EC10F00150300F00017F6FD3
:100A2800020E596E100E1318D8A41DEF05F01FEF13
:100A380005F021EF05F0020E596E12001F6E590ED7
:100A4800036E2F0E046E800E056E9FEC0FF03E5065
:100A5800116E3F50126E3E4A3F2A12BE3FEF05F01C
:100A6800F40E115C010E1258D8B03DEF05F03FEFBF
:100A780005F047EF05F05550C00F0F6E5F0E5DECA7
:100A880011F06FEF05F03FBE53EF05F0F50E3E5C39
:100A9800010E3F58D8A053EF05F055EF05F06BEF66
:100AA80005F03FBE63EF05F0E80E3E5C030E3F58CD
:100AB800D8B061EF05F063EF05F06BEF05F0555026
:100AC800C00F0F6E200E5DEC11F06FEF05F0000EF9
:100AD8003F6E000E3E6E050E1F18D8A476EF05F087
:100AE80078EF05F087EF05F055509A0FD96EDA6A5E
:100AF800300EDF6E5550C00F0F6E2A0E5DEC11F0F0
:100B0800552A9EEF05F0060E1F18D8A48EEF05F0A3
:100B180090EF05F09EEF05F055509A0FD96EDA6AFE
:100B2800310EDF6E5550C00F0F6E2A0E5DEC11F0BE
:100B380084EF05F0040E5518D8A4A5EF05F0A7EF2B
:100B480005F095EF06F055509A0FD96EDA6ADF6A0C
:100B58009F0E016E9A0E026E64EC0EF001500210A8
:100B6800D8A4B9EF05F0BBEF05F0C6EF05F0000E0D
:100B7800016E010ECFEC10F0030E5C6E020E596E82
:100B880095EF06F05C50D8A4CCEF05F0CEEF05F059
:100B980046EF06F0F28AF28EF28C9B0E036E2F0E51
:100BA800046E800E056E9FEC0FF0FD0E036E2E0E88
:100BB800046EC00E056E9FEC0FF0C50E0F6E5DC083
:100BC80001F0026A000E046E640E036EB1EC0CF0C4
:100BD8000150300F5DEC11F0C60E0F6E000E046E62
:100BE8000A0E036E5DC001F0026AB1EC0CF001C0A0
:100BF80009F002C00AF0000E0C6E0A0E0B6E75ECBE
:100C08000DF00950300F5DEC11F0C70E0F6E5DC08E
:100C180009F00A6A000E0C6E0A0E0B6E75EC0DF0E8
:100C28000950300F5DEC11F0400E1B6E0D0E1C6E5E
:100C3800030E1D6E000E1E6E1B06000E1C5A1D5A5A
:100C48001E5A1B280AE11C2808E11D2806E11E2857
:100C5800D8A431EF06F033EF06F020EF06F05D5030
:100C6800D8A439EF06F03BEF06F095EF06F0020E38
:100C78005C6E000E556E000E016E010ECFEC10F08A
:100C880095EF06F0480E036E2F0E046E800E056E6B
:100C98009FEC0FF0C00E0F6E5C50300F5DEC11F042
:100CA800C90E036E2F0E046EC10E056E9FEC0FF079
:100CB800800E136E1A0E146E060E156E000E166E4A
:100CC800000E176E000E186E000E196E000E1A6ECA
:100CD8001306000E145A155A165A175A185A195A42
:100CE8001A5A132812E1142810E115280EE11628C3
:100CF8000CE117280AE1182808E1192806E11A2842
:100D0800D8A489EF06F08BEF06F06CEF06F05C06CE
:100D1800000E556E000E016E010ECFEC10F095EF2F
:100D280006F0120021EC0EF0000E2AEC0FF05B6EBC
:100D38005B28D8B4A2EF06F0A4EF06F0BCEF06F0EB
:100D48005BC05AF0404A412AF40E401806E14104BB
:100D5800D8A4B1EF06F0B3EF06F0B8EF06F05B5099
:100D68000A0F5B6EE5EF06F0000E5B6EE5EF06F02E
:100D780041BEC7EF06F0415008E14004D8A0C7EFD4
:100D880006F0C9EF06F0DFEF06F041BED7EF06F038
:100D9800F40E405C010E4158D8B0D5EF06F0D7EFFD
:100DA80006F0DFEF06F0000E416E000E406E5AC0EE
:100DB8005BF0E5EF06F0000E416E000E406E000E8F
:100DC8005B6EAE0E1A6E470E1B6E250E1C6E410E24
:100DD8001D6E040E8CEC10F001C008F002C009F082
:100DE8000A6A0B6A000E92EC08F008C016F009C0F7
:100DF80017F00AC018F00BC019F009EC00F016C083
:100E08002FF017C030F018C031F019C032F0BEEC26
:100E18000BF02FC042F030C043F05950D8A417EF60
:100E280007F019EF07F02FEF07F0ACEC0AF0050E0A
:100E38005B18D8A422EF07F024EF07F098EF06F02C
:100E4800000E016E010ECFEC10F0010E596E98EFF6
:100E580006F098EF06F05904D8A435EF07F037EFFD
:100E680007F03CEF07F05B5022EC05F098EF06F036
:100E7800020E5918D8A443EF07F045EF07F04AEFE0
:100E880007F05B500EEC0AF098EF06F0030E5918C5
:100E9800D8A451EF07F053EF07F098EF06F0585039
:100EA800D8A459EF07F05BEF07F060EF07F05B504D
:100EB80098EC07F098EF06F0020E5818D8A467EFE0
:100EC80007F069EF07F06EEF07F05B5013EC0DF0D9
:100ED80098EF06F05804D8A474EF07F076EF07F0FF
:100EE8007AEF07F06CEC09F098EF06F0040E58184A
:100EF800D8A481EF07F083EF07F088EF07F05B5085
:100F0800D6EC01F098EF06F0030E5818D8A48FEF2E
:100F180007F091EF07F02DEF07F05B50A2EC03F01C
:100F280098EF06F007EF00F0186E100E1818D8A406
:100F3800A0EF07F0A2EF07F0A4EF07F0020E596E3A
:100F48005050D8A4AAEF07F0ACEF07F0E4EF07F091
:100F5800000E4F6E050E1818D8A4B5EF07F0B7EFBE
:100F680007F0D0EF07F0FF0E5124116E126AFF0E42
:100F780012224E50136E146A1150135C1450800ADA
:100F8800156E1250800A1558D8B0CDEF07F0CFEF84
:100F980007F0D0EF07F04E2A060E1818D8A4D7EF9E
:100FA80007F0D9EF07F013EF08F04E50D8B4DFEF91
:100FB80007F0E1EF07F013EF08F04E0613EF08F023
:100FC8005004D8A4EAEF07F0ECEF07F013EF08F0AD
:100FD80051C04FF0050E1818D8A4F5EF07F0F7EF39
:100FE80007F000EF08F0090E4E60FDEF07F0FFEF85
:100FF80007F000EF08F04E2A060E1818D8A407EFDD
:1010080008F009EF08F013EF08F04E50D8B40FEFCE
:1010180008F011EF08F013EF08F0E1EF07F0000E09
:10102800176E000E166E16506B0FD96EDA6A4F5097
:101038004E24096E0A6A0A36000E0C6E0A0E0B6EF2
:1010480075EC0DF009500A0DF350162407EC11F059
:10105800DF6E164A172A17BE3BEF08F0175009E152
:101068000A0E165CD8A03BEF08F03DEF08F017EF2A
:1010780008F0260E036E2F0E046E800E056E9FEC90
:101088000FF0C00E0F6E4E50300F5DEC11F0C20E17
:101098000F6E00016B515DEC11F0C30E0F6E000175
:1010A8006C515DEC11F0C40E0F6E3A0E5DEC11F050
:1010B800C50E0F6E00016D515DEC11F0C60E0F6E7E
:1010C80000016E515DEC11F0C70E0F6E3A0E5DEC2B
:1010D80011F0C80E0F6E00016F515DEC11F0C90ED2
:1010E8000F6E000170515DEC11F0CB0E0F6E000118
:1010F80071515DEC11F0CC0E0F6E000172515DEC78
:1011080011F0CE0E0F6E000173515DEC11F0CF0E91
:101118000F6E000174515DEC11F01200106E10504A
:10112800D8B499EF08F09BEF08F0BDEF08F00BBEBC
:10113800A2EF08F0A0EF08F0BDEF08F008C00CF02F
:1011480009C00DF00AC00EF00BC00FF00C1E0D1EEA
:101158000E1E0F1E0C2A000E0D220E220F220CC08E
:1011680012F00DC013F00EC014F00FC015F0C5EF4B
:1011780008F008C012F009C013F00AC014F00BC040
:1011880015F0085009100A100B10D8A4CEEF08F07B
:10119800D0EF08F0DAEF08F0000E086E000E096EC6
:1011A800000E0A6E000E0B6E6BEF09F0960E116EB4
:1011B800E4EF08F0112AD8901532143213321232A3
:1011C800000E12140C6E000E13140D6E000E141483
:1011D8000E6EFE0E15140F6E0C500D100E100F1023
:1011E800D8A4F9EF08F0FBEF08F0DEEF08F009EFFC
:1011F80009F0112A010E1226000E132214221522BC
:10120800D8901532143213321232000E12140C6EAA
:10121800000E13140D6E000E14140E6EFF0E15142E
:101228000F6E0C500D100E100F10D8A41EEF09F001
:1012380020EF09F0FDEF08F028EF09F01106D8902B
:10124800123613361436153614BE2DEF09F02FEF6B
:1012580009F037EF09F0020E116035EF09F037EFAA
:1012680009F022EF09F011B03CEF09F03EEF09F068
:101278003FEF09F0149ED890113211C00CF00D6A9E
:101288000E6A0F6A0CC00FF00E6A0D6A0C6A0C50D9
:1012980012120D5013120E5014120F501512105036
:1012A800D8B459EF09F05BEF09F063EF09F00BBE12
:1012B80062EF09F060EF09F063EF09F0158E12C0D4
:1012C80008F013C009F014C00AF015C00BF01200A2
:1012D800DF0E036E2E0E046E800E056E9FEC0FF06F
:1012E800D80E036E2F0E046EC30E056E9FEC0FF022
:1012F8005004D8A482EF09F084EF09F086EF09F0D2
:101308000A0E4C6E5050D8A48CEF09F08EEF09F0FD
:1013180090EF09F051C04CF0940E026E2E0E036E41
:10132800ECEC10F0000E4B6EFDEF09F0000E106EA5
:10133800000E0F6E0F50600FD96EDA6A4BC009F0BD
:101348000A6A000E0C6E0A0E0B6E75EC0DF0095051
:101358000A0DF3500F2407EC11F0DF6E0F4A102A24
:1013680010BEC0EF09F0105009E10A0E0F5CD8A0BA
:10137800C0EF09F0C2EF09F09EEF09F000016051DB
:1013880074EC11F00001615174EC11F03A0E74EC38
:1013980011F00001625174EC11F00001635174EC1A
:1013A80011F03A0E74EC11F00001645174EC11F074
:1013B8000001655174EC11F0200E74EC11F000017D
:1013C800665174EC11F00001675174EC11F0200EB5
:1013D80074EC11F00001685174EC11F000016951CE
:1013E80074EC11F0A50E026E2E0E036EECEC10F0EC
:1013F8004B2A4C504B5CD8A004EF0AF006EF0AF0D9
:101408009AEF09F0440E00017C6F4C0E7D6F020EBE
:10141800596E1200116E5250020DF350B40FD96E6E
:10142800DA6ADECF03F0DDCF04F0820E056E9FECA2
:101438000FF05250020DF350B60FD96EDA6ADECFB4
:1014480003F0DDCF04F0C20E056E9FEC0FF0545090
:10145800D8A431EF0AF033EF0AF03FEF0AF0800E1C
:101468000F6E2A0E5DEC11F0C00E0F6E200E5DECB3
:1014780011F049EF0AF0800E0F6E200E5DEC11F0AE
:10148800C00E0F6E2A0E5DEC11F0050E1118D8A4CF
:1014980050EF0AF052EF0AF069EF0AF05450D8A45E
:1014A80058EF0AF05AEF0AF05FEF0AF0010E546E97
:1014B800532A69EF0AF0030E526065EF0AF067EFEE
:1014C8000AF069EF0AF0522A532A060E1118D8A416
:1014D80070EF0AF072EF0AF089EF0AF05404D8A40A
:1014E80078EF0AF07AEF0AF07FEF0AF0000E546EF8
:1014F800530689EF0AF05250D8B485EF0AF087EF07
:101508000AF089EF0AF0520653060F0E1118D8A4F4
:1015180090EF0AF092EF0AF09BEF0AF0000E016ECE
:10152800010ECFEC10F0030E596E53C058F0100E98
:101538001118D8A4A2EF0AF0A4EF0AF0ABEF0AF052
:10154800000E016E010ECFEC10F0000E596E120065
:101558006A0E036E2F0E046E800E056E9FEC0FF060
:101568005650020DF350A40FD96EDA6ADECF03F09D
:10157800DDCF04F0CA0E056E9FEC0FF0020E5B186B
:10158800D8A4C9EF0AF0CBEF0AF0D6EF0AF0060E9E
:101598005660D1EF0AF0D3EF0AF0D6EF0AF0562AD8
:1015A80041EC0CF0030E5B18D8A4DDEF0AF0DFEF76
:1015B8000AF0F3EF0AF0070E5618D8B4E6EF0AF06F
:1015C800E8EF0AF0F3EF0AF0010E5664EEEF0AF0C6
:1015D800F0EF0AF0F3EF0AF0560641EC0CF05B046A
:1015E800D8A4F9EF0AF0FBEF0AF0FFEF0AF0070EB4
:1015F800566E41EC0CF0070E5618D8A406EF0BF007
:1016080008EF0BF015EF0BF0020E5B18D8A40FEFE4
:101618000BF011EF0BF015EF0BF0020E566E41ECCC
:101628000CF0CE0E0F6E42C001F043C002F0000E67
:10163800046E0A0E036E65EC0FF00150300F5DEC7E
:1016480011F0CF0E0F6E42C001F043C002F0000E41
:10165800046E0A0E036E07EC10F00150300F5DECBB
:1016680011F0A6EC0EF0A4EC11F01200819A818C16
:10167800818E81B242EF0BF044EF0BF047EF0BF095
:10168800010EBDEF0BF081B44CEF0BF04EEF0BF0F9
:1016980051EF0BF0040EBDEF0BF081B656EF0BF0D7
:1016A80058EF0BF05BEF0BF0070EBDEF0BF081B8B6
:1016B80060EF0BF062EF0BF065EF0BF00A0EBDEF79
:1016C8000BF0818A819C818E81B26DEF0BF06FEFF8
:1016D8000BF072EF0BF0020EBDEF0BF081B477EF59
:1016E8000BF079EF0BF07CEF0BF0050EBDEF0BF074
:1016F80081B681EF0BF083EF0BF086EF0BF0080E4D
:10170800BDEF0BF081B88BEF0BF08DEF0BF090EF86
:101718000BF00B0EBDEF0BF0818A818C819E819EB0
:1017280081B299EF0BF09BEF0BF09EEF0BF0030EDD
:10173800BDEF0BF081B4A3EF0BF0A5EF0BF0A8EF12
:101748000BF0060EBDEF0BF081B6ADEF0BF0AFEF6F
:101758000BF0B2EF0BF0090EBDEF0BF081B8B7EF4D
:101768000BF0B9EF0BF0BCEF0BF00C0EBDEF0BF06C
:10177800FF0E120031343234386E3850D8A4C7EF17
:101788000BF0C9EF0BF0D3EF0BF0000E2F6E000E2D
:10179800306E000E316E000E326E40EF0CF02FC02E
:1017A80033F030C034F031C035F032C036F0200E9E
:1017B800E3EF0BF0D8903632353234323332E82E3C
:1017C800DEEF0BF03350376E318EFF0E2F16FF0E03
:1017D8003016FF0E3116000E3216960E385E38BEE1
:1017E800FAEF0BF0F8EF0BF010EF0CF03850800A1E
:1017F800970FD8B002EF0CF004EF0CF006EF0CF0E6
:10180800C9EF0BF0D8903232313230322F32383EB5
:1018180006EF0CF028EF0CF01F0E386416EF0CF0F2
:1018280018EF0CF020EF0CF0C9EF0BF0D8902F3622
:1018380030363136323638063850D8A426EF0CF018
:1018480028EF0CF01AEF0CF03750D8B42EEF0CF04C
:1018580030EF0CF038EF0CF0321E311E301E2F6CBA
:10186800000E3022312232222FC02FF030C030F04B
:1018780031C031F032C032F0120087C076F088C033
:1018880077F08AC078F08BC079F08DC07AF08EC07E
:101898007BF05650020DF350A40FD96EDA6ADECFF2
:1018A800F6FFDDCFF7FF0800F5CF7CF05650020DAC
:1018B800F350A40FD96EDA6ADECF08F0DDCF09F055
:1018C800010E0826000E092208C0F6FF09C0F7FF1E
:1018D8000800F5CF7DF042C001F043C002F0000ED1
:1018E800046E0A0E036E65EC0FF00150300F000114
:1018F8007E6F42C001F043C002F0000E046E0A0E73
:10190800036E07EC10F00150300F00017F6F000EDE
:101918000A6E0A50760FD96EDA6ADF50026E51509D
:101928000A0DF3500A24AFEC10F00A2A090E0A64D3
:10193800A0EF0CF0A2EF0CF08DEF0CF0512A0A0E7C
:101948005118D8A4AAEF0CF0ACEF0CF0B0EF0CF0E3
:10195800000E516E010E506E1200000E066E04BE8F
:10196800BAEF0CF0B8EF0CF0C0EF0CF0036C041EEB
:10197800D8B0042A010E066E02BEC7EF0CF0C5EF00
:101988000CF0CDEF0CF0016C021ED8B0022A010E4B
:10199800061A000E086E000E076E03500410D8B425
:1019A800D8EF0CF0DAEF0CF002EF0DF0010E056E37
:1019B800E2EF0CF0D89003360436052A04AEE7EFC0
:1019C8000CF0E9EF0CF0DEEF0CF0D8900736083693
:1019D8000350015C04500258D8A0F5EF0CF0F7EF63
:1019E8000CF0FCEF0CF00350015E0450025A078023
:1019F800D89004320332052EE9EF0CF00650D8B423
:101A080008EF0DF00AEF0DF00EEF0DF0076C081E51
:101A1800D8B0082A07C001F008C002F01200086E0A
:101A2800000E516E000E506E030E036E2F0E046EE4
:101A3800800E056E9FEC0FF0F10E036E2E0E046EF5
:101A4800C00E056E9FEC0FF0100E0818D8A42FEFEB
:101A58000DF031EF0DF074EF0DF087C076F088C00F
:101A680077F08AC078F08BC079F08DC07AF08EC09C
:101A78007BF0430E00017C6F4C0E7D6F42C001F07D
:101A880043C002F0000E046E0A0E036E65EC0FF000
:101A98000150300F00017E6F42C001F043C002F0D8
:101AA800000E046E0A0E036E07EC10F00150300FA2
:101AB80000017F6F000E096E0950760FD96EDA6A41
:101AC800DF50026E0950AFEC10F0092A090E0964C4
:101AD80070EF0DF072EF0DF060EF0DF0020E596E21
:101AE8001200000E0E6E0ABE7EEF0DF07CEF0DF0B8
:101AF80084EF0DF0096C0A1ED8B00A2A010E0E6E8A
:101B08000CBE8BEF0DF089EF0DF08FEF0DF00B6C25
:101B18000C1ED8B00C2A0B500C10D8B496EF0DF050
:101B280098EF0DF0BCEF0DF0010E0D6EA0EF0DF06B
:101B3800D8900B360C360D2A0CAEA5EF0DF0A7EF9A
:101B48000DF09CEF0DF00B50095C0C500A58D8A012
:101B5800B0EF0DF0B2EF0DF0B6EF0DF00B50095EDF
:101B68000C500A5AD8900C320B320D2EA7EF0DF0FC
:101B78000E50D8B4C2EF0DF0C4EF0DF0C8EF0DF061
:101B8800096C0A1ED8B00A2A09C009F00AC00AF06E
:101B98001200000E956E9450F80B946E8290C30E4E
:101BA800036ECD0EE82EFED7032EFCD70000000EE4
:101BB800016E330ECFEC10F01B0E036E9E0EE82E56
:101BC800FED7032EFCD700D0000E016E330ECFECEB
:101BD80010F0A60EE82EFED700D0000E016E330ED0
:101BE800CFEC10F000D000D00000000E016E020E05
:101BF800CFEC10F0A60EE82EFED700D0000E016E36
:101C0800380ECFEC10F0A60EE82EFED700D0000E4E
:101C1800016E010ECFEC10F0040E036E3E0EE82E9E
:101C2800FED7032EFCD7000E016E0C0ECFEC10F081
:101C3800A60EE82EFED700D01200CDEC0DF092ECE7
:101C480011F031EC11F069EC11F068EC10F07FEC58
:101C580011F089EC11F0300E026EC80EAFEC10F0E6
:101C6800300E026EC90EAFEC10F0300E026ECA0EC6
:101C7800AFEC10F0300E026ECB0EAFEC10F0000E91
:101C8800076E000E066E06509F0FD96EDA6A065070
:101C9800C80F07EC11F0DF6E064A072A07BE5EEF91
:101CA8000EF0075009E1040E065CD8A05EEF0EF0B6
:101CB80060EF0EF047EF0EF0000E0001A36F120068
:101CC800000E086E000E076E000E066E000E056E02
:101CD80095EF0EF002500724D96EDA6A01500724F6
:101CE800E16EE26ADE50E618D8B47DEF0EF07FEFC1
:101CF8000EF093EF0EF001500724D96EDA6ADF5028
:101D0800036E02500724D96EDA6ADF50046E04505D
:101D1800035C056E066AD8A00606A1EF0EF0074A16
:101D2800082A01500724D96EDA6ADF50D8A49FEF39
:101D38000EF0A1EF0EF06EEF0EF005C001F006C038
:101D480002F01200020E1CEC11F0396E010E1CECB0
:101D580011F03A6E000E1CEC11F03B6E39ACB7EF87
:101D68000EF0B9EF0EF0C5EF0EF039380F0B010B7E
:101D7800300F0001876F39500F0B300F886FCFEF8E
:101D88000EF039380F0B030B300F0001876F3950F5
:101D98000F0B300F886F3A0E896F3A380F0B0F0B05
:101DA800300F8A6F3A500F0B300F8B6F3A0E8C6FD3
:101DB8003B380F0B0F0B300F8D6F3B500F0B300F55
:101DC8008E6F000E8F6F1200000E086E000E076EE9
:101DD800000E066E000E056E19EF0FF00250072474
:101DE800D96EDA6A01500724E16EE26ADE50E6181D
:101DF800D8B401EF0FF003EF0FF017EF0FF0015019
:101E08000724D96EDA6ADF50036E02500724D96EB0
:101E1800DA6ADF50046E0450035C056E066AD8A0C7
:101E2800060625EF0FF0074A082A01500724D96E45
:101E3800DA6ADF50D8A423EF0FF025EF0FF0F2EFA6
:101E48000EF005C001F006C002F01200016E010498
:101E5800D8A431EF0FF033EF0FF057EF0FF03AEC53
:101E68000BF0576E5728D8B43CEF0FF03EEF0FF049
:101E78004BEF0FF05E50D8B444EF0FF046EF0FF081
:101E88004BEF0FF0000E5E6E575064EF0FF05728BF
:101E9800D8A451EF0FF053EF0FF063EF0FF0010EDE
:101EA8005E6E63EF0FF00150D8A45DEF0FF05FEFA7
:101EB8000FF063EF0FF03AEC0BF064EF0FF0FF0E4A
:101EC8001200000E066E000E056E03500410D8B402
:101ED80070EF0FF072EF0FF09AEF0FF0010E076E30
:101EE8007AEF0FF0D89003360436072A04AE7FEF56
:101EF8000FF081EF0FF076EF0FF0D8900536063629
:101F08000350015C04500258D8A08DEF0FF08FEFFA
:101F18000FF094EF0FF00350015E0450025A058051
:101F2800D89004320332072E81EF0FF005C001F07C
:101F380006C002F01200000E016E0550CFEC10F042
:101F4800BCEF0FF0010E016E03C0F6FF04C0F7FFEF
:101F5800F86A050EF76403D00800F55005D0F6CFEF
:101F6800E9FFF7CFEAFFEF50CFEC10F0034A042A5D
:101F780003C0F6FF04C0F7FFF86A050EF76403D044
:101F88000800F55005D0F6CFE9FFF7CFEAFFEF508C
:101F98000009D8A4D2EF0FF0D4EF0FF0A6EF0FF09E
:101FA8001200A00EF66E220EF76E000EF86E00EE0E
:101FB800A4F010EE1AF00900F5CFEEFFE550E1505D
:101FC800FAE1960EF66E230EF76E000EF86E090013
:101FD800F5CF5CF00900F5CF5DF00900F5CF5EF0B4
:101FE80000EE60F0440EEE6AE806FDE100EE39F01E
:101FF800230EEE6AE806FDE15F905F92000EF86E30
:10200800000196EF06F003500410D8B40EEF10F05C
:1020180010EF10F034EF10F0010E056E18EF10F00D
:10202800D89003360436052A04AE1DEF10F01FEFD2
:1020380010F014EF10F00350015C04500258D8A0BF
:1020480028EF10F02AEF10F02EEF10F00350015E89
:102058000450025AD89004320332052E1FEF10F0B4
:1020680001C001F002C002F012000600F2A43FEF26
:1020780010F041EF10F066EF10F0080ED624D66E7F
:10208800000ED720D76E010E00018127000E822393
:1020980083238423210E811909E14E0E82198311AD
:1020A8008411D8A45AEF10F05CEF10F065EF10F02F
:1020B800000E816F000E826F000E836F000E846F1A
:1020C8005D06F2945F921100000E1CEC11F0046E94
:1020D80004508009026E000E41EC11F0020E1CEC57
:1020E80011F0046E04504009026E020E41EC11F02A
:1020F800930E026E070E41EC11F0000E1CEC11F06D
:10210800046E04507F0B026E000E41EC11F01200B9
:10211800076E07C003F0D8900336D8900336C25034
:10212800C30B0310C26EC282C2B29DEF10F09FEFC4
:1021380010F098EF10F0C350C4CF03F0046A03C046
:1021480004F0036A0310056E0450066E05C001F022
:1021580006C002F01200056EC4EC11F0A00EB2EC3D
:1021680011F00550B2EC11F00250B2EC11F0C0ECD5
:1021780011F00B0E046EB80E036E0306D8A0040609
:10218800032806E10428D8A4CCEF10F0CEEF10F015
:10219800C1EF10F01200026E01B0D5EF10F0D8EFC9
:1021A80010F08282D9EF10F0829202C083FF8284FD
:1021B8008294958E828082928284829483BEE7EF95
:1021C80010F0E9EF10F0E0EF10F08290959E120009
:1021D800F8EF10F002C0F6FF03C0F7FF0800F55053
:1021E80074EC11F0024A032A02C0F6FF03C0F7FF9D
:1021F8000800F5500009D8A404EF11F006EF11F01B
:10220800EEEF10F01200026EC4EC11F0A00EB2EC6A
:1022180011F00250B2EC11F0B8EC11F0A10EB2ECD2
:1022280011F0ACEC11F0036EC0EC11F00350120089
:10223800026EC4EC11F0D00EB2EC11F00250B2EC08
:1022480011F0B8EC11F0D10EB2EC11F0ACEC11F0C9
:10225800036EC0EC11F003501200C08EC09AC08803
:10226800C096C090C082C094C292C19AC198000E14
:10227800C46E000EC36EC2801200036EC4EC11F06F
:10228800D00EB2EC11F00350B2EC11F00250B2ECE7
:1022980011F0C0EC11F01200F82FFB2FF52FE92FE9
:1022A800EC2FEF2FF22FE62FAB2F8B2F372F7B2F13
:1022B800BA2F106E000E016E0F50CFEC10F0010E09
:1022C800016E1050CFEC10F0120094869488280EFE
:1022D800C66E310EC86EC79CC78E9E96A196120018
:1022E800016E9EA87AEF11F07CEF11F075EF11F0F6
:1022F80001C0ADFF1200D58CD59AD58ED586000EBB
:10230800D76E060ED66EF2941200948E949CAC840E
:10231800AB8EAB88810EAF6E9D8A12000F0EC16E18
:102328001E0E936EF19E8150E009816E12009EA6EA
:10233800A0EF11F0A2EF11F09BEF11F09E961200A2
:10234800870E036E046AC00E056E9FEC0FF0120034
:10235800BCEC11F0C8EC11F0C9501200016E01C0BC
:10236800C9FF9BEC11F01200C5829BEC11F0120022
:10237800C5869BEC11F01200C5849BEC11F012008D
:10238800C5809BEC11F01200C58AC588120002B402
:012398000143
:102E7E000020205265747970652050617373776FEE
:102E8E007264203A2000232054494D4520202045CD
:102E9E00562020205350200A0D0020506173737766
:102EAE006F7264204368616E6765202000202020C9
:102EBE00202048483A4D4D3A5353202020200020E0
:102ECE00204E65772050617373776F7264203A20BD
:102EDE00002020446F776E6C6F6164204C6F67200A
:102EEE0020200020202020202020202020202020F4
:102EFE0020202020002020204C4F4720434C4541CD
:102F0E005245442020200020202053554343455352
:102F1E005346554C4C202000456E746572656420F6
:102F2E0056696577204C6F6700436C656172204C63
:102F3E006F6720202020202020002020205472792E
:102F4E0020416761696E202020200020456E746547
:102F5E00722050617373776F726420002020544981
:102F6E004D45202020204556202053500053657497
:102F7E002074696D652020202020202000446F776A
:102F8E006E6C6F6164206C6F672020200020537977
:102F9E007374656D20426C6F636B65640056696572
:102FAE0077204C6F67202020202020004368616E20
:102FBE006765205061737377726400204368616E99
:102FCE00636573204C65667420002053554343455A
:102FDE00535346554C4C2000432000473100473296
:102FEE0000473300473400474E004F4E0047520013
:012FFE0000D2
:020000040020DA
:08000000FFFFFFFFFFFFFFFF00
:020000040030CA
:0E000000FF071F1FFF8285FF0FC00FE00F409C
:00000001FF
