:020000040000FA
:0400000007EF00F016
:100008005F8286ED0EF022EF0EF01950800B266EFF
:10001800195019242D6E18AE14EF00F016EF00F0E9
:1000280017EF00F02D802D50D8B41DEF00F01FEF12
:1000380000F034EF00F02D28D8A425EF00F027EFCA
:1000480000F02FEF00F0000E166E000E176E000E77
:10005800186E000E196E188E000E196E3CEF00F027
:10006800000E166E000E176E000E186E000E196E3A
:100078001D50800B261A1D501D242E6E1CAE47EFF6
:1000880000F049EF00F04AEF00F02E802E50D8B46F
:1000980050EF00F052EF00F067EF00F02E28D8A4E0
:1000A80058EF00F05AEF00F062EF00F0000E1A6E01
:1000B800000E1B6E000E1C6E000E1D6E1C8E000EB8
:1000C8001D6E6FEF00F0000E1A6E000E1B6E000E14
:1000D8001C6E000E1D6E1A501B101C101D10D8A48B
:1000E80078EF00F07AEF00F092EF00F0000E166E55
:1000F800000E176E000E186E000E196E800E181284
:100108007F0E19122650191216C016F017C017F0D4
:1001180018C018F019C019F0D5EF01F02D50D8A467
:1001280098EF00F09AEF00F0A4EF00F0000E166EC2
:10013800000E176E000E186E000E196ED5EF01F046
:100148002E502DC01EF01F6A1E5E000E1F5A7F0E15
:100158001E24276E000E1F20286E16C022F017C01E
:1001680023F018C024F019C025F0000E166E000EFA
:10017800176E000E186E000E196E000E296E000E16
:100188002A6E000E2B6E000E2C6E000E2E6E05EFE2
:1001980001F02E50D8B4D3EF00F0D5EF00F0ECEF1B
:1001A80000F0D8902236233624362536D8901636D5
:1001B8001736183619362CAEE4EF00F0E6EF00F0EB
:1001C800E7EF00F01680D89029362A362B362C36E1
:1001D8001A50225C1B5023581C5024581D50255877
:1001E800D8A0F9EF00F0FBEF00F004EF01F02C8C41
:1001F8001A50225E1B50235A1C50245A1D50255A4F
:100208002E2A190E2E640BEF01F00DEF01F0CDEF41
:1002180000F02250231024102510D8B416EF01F056
:1002280018EF01F030EF01F0298030EF01F0D8909D
:1002380016361736183619362CAE25EF01F027EF8B
:1002480001F028EF01F01680D89029362A362B368F
:100258002C362706D8A0280618AE35EF01F037EF60
:1002680001F01BEF01F0000E2E6E2CAE3EEF01F0F8
:1002780040EF01F064EF01F0FF0E29141E6EFF0E2F
:100288002A141F6EFF0E2B14206E7F0E2C14216E65
:100298001E501F1020102110D8B455EF01F057EF51
:1002A80001F05BEF01F0010E2E6E64EF01F016A075
:1002B80060EF01F062EF01F064EF01F057EF01F039
:1002C8002E50D8B46AEF01F06CEF01F090EF01F016
:1002D800010E1626000E17221822192219A077EFF0
:1002E80001F079EF01F090EF01F016C01EF017C091
:1002F8001FF018C020F019C021F02134213220321B
:100308001F321E321EC016F01FC017F020C018F092
:1003180021C019F0274A282A28BE9BEF01F028504F
:1003280008E12728D8A09BEF01F09DEF01F0A8EF86
:1003380001F0000E286E2768000E166E000E176E6C
:10034800000E186E000E196E28BEB5EF01F0285089
:1003580006E12704D8B0B3EF01F0B5EF01F0C3EF21
:1003680001F0000E286E000E276E000E166E000EAD
:10037800176E000E186E000E196E000E266E27C03E
:100388002DF02DA0CAEF01F0CCEF01F0CFEF01F076
:10039800188ED0EF01F0189ED8902D30196E86EF88
:1003A80000F01200176E4450D8A4DDEF01F0DFEF23
:1003B80001F073EF02F0CD0E036E2E0E046E800E68
:1003C800056EECEC0DF03C50116E3D50126E3C4A3F
:1003D8003D2A12BEFBEF01F0F40E115C010E12581B
:1003E800D8B0F9EF01F0FBEF01F003EF02F0455050
:1003F800C00F0F6E5F0EAAEC0FF02BEF02F03DBEA0
:100408000FEF02F0F50E3C5C010E3D58D8A00FEF3F
:1004180002F011EF02F027EF02F03DBE1FEF02F0ED
:10042800E80E3C5C030E3D58D8B01DEF02F01FEFFC
:1004380002F027EF02F04550C00F0F6E200EAAEC15
:100448000FF02BEF02F0000E3D6E000E3C6E050E15
:100458001718D8A432EF02F034EF02F043EF02F09D
:100468004550570FD96EDA6A300EDF6E4550C00F0F
:100478000F6E2A0EAAEC0FF0452A5AEF02F0060E6C
:100488001718D8A44AEF02F04CEF02F05AEF02F026
:100498004550570FD96EDA6A310EDF6E4550C00FDE
:1004A8000F6E2A0EAAEC0FF040EF02F0040E45186A
:1004B800D8A461EF02F063EF02F064EF03F0455057
:1004C800570FD96EDA6ADF6A010E446E000E456E68
:1004D800000E016E010E1CEC0FF064EF03F04404F3
:1004E800D8A479EF02F07BEF02F064EF03F0910EED
:1004F800036E2E0E046E800E056EECEC0DF03C5073
:10050800116E3D50126E3C4A3D2A12BE97EF02F022
:10051800F40E115C010E1258D8B095EF02F097EF67
:1005280002F09FEF02F04550C00F0F6E5F0EAAEC6D
:100538000FF0C7EF02F03DBEABEF02F0F50E3C5CEA
:10054800010E3D58D8A0ABEF02F0ADEF02F0C3EFBB
:1005580002F03DBEBBEF02F0E80E3C5C030E3D58D6
:10056800D8B0B9EF02F0BBEF02F0C3EF02F045508C
:10057800C00F0F6E200EAAEC0FF0C7EF02F0000EAE
:100588003D6E000E3C6E050E1718D8A4CEEF02F093
:10059800D0EF02F0DFEF02F04550900FD96EDA6A23
:1005A800300EDF6E4550C00F0F6E2A0EAAEC0FF00A
:1005B800452AF6EF02F0060E1718D8A4E6EF02F067
:1005C800E8EF02F0F6EF02F04550900FD96EDA6AC4
:1005D800310EDF6E4550C00F0F6E2A0EAAEC0FF0D9
:1005E800DCEF02F0040E4518D8A4FDEF02F0FFEF8F
:1005F80002F064EF03F04550900FD96EDA6ADF6AB3
:10060800570E016E900E026E35EC0DF0015002107F
:10061800D8A411EF03F013EF03F062EF03F057C013
:100628009AF057C002F0C80EFCEC0EF058C09BF0D0
:1006380058C002F0C90EFCEC0EF059C09CF059C02D
:1006480002F0CA0EFCEC0EF05AC09DF05AC002F03F
:10065800CB0EFCEC0EF0BA0E036E2E0E046E800E5E
:10066800056EECEC0DF0150E036E2F0E046EC00E29
:10067800056EECEC0DF0400E136E0D0E146E030EAD
:10068800156E000E166E1306000E145A155A165AD9
:1006980013280AE1142808E1152806E11628D8A429
:1006A80058EF03F05AEF03F047EF03F0000E456EE2
:1006B800000E446E020E546E64EF03F0020E546E88
:1006C80012001F6E590E036E2F0E046E800E056EFB
:1006D800ECEC0DF03E50116E3F50126E3E4A3F2A30
:1006E80012BE82EF03F0F40E115C010E1258D8B05E
:1006F80080EF03F082EF03F08AEF03F05050C00F51
:100708000F6E5F0EAAEC0FF0B2EF03F03FBE96EF4C
:1007180003F0F50E3E5C010E3F58D8A096EF03F0AB
:1007280098EF03F0AEEF03F03FBEA6EF03F0E80E3C
:100738003E5C030E3F58D8B0A4EF03F0A6EF03F0D9
:10074800AEEF03F05050C00F0F6E200EAAEC0FF062
:10075800B2EF03F0000E3F6E000E3E6E050E1F183E
:10076800D8A4B9EF03F0BBEF03F0CAEF03F0505081
:10077800950FD96EDA6A300EDF6E5050C00F0F6ECB
:100788002A0EAAEC0FF0502AE1EF03F0060E1F180C
:10079800D8A4D1EF03F0D3EF03F0E1EF03F050500A
:1007A800950FD96EDA6A310EDF6E5050C00F0F6E9A
:1007B8002A0EAAEC0FF0C7EF03F0040E5018D8A4C5
:1007C800E8EF03F0EAEF03F0D8EF04F05050950F8C
:1007D800D96EDA6ADF6A9A0E016E950E026EB1EC76
:1007E8000CF001500210D8A4FCEF03F0FEEF03F068
:1007F80009EF04F0000E016E010E1CEC0FF0030E61
:100808005C6E020E546ED8EF04F05C50D8A40FEF63
:1008180004F011EF04F089EF04F0F28AF28EF28C02
:100828009B0E036E2F0E046E800E056EECEC0DF021
:10083800FD0E036E2E0E046EC00E056EECEC0DF070
:10084800C50E0F6E5DC001F0026A000E046E640EE4
:10085800036E12EC0BF00150300FAAEC0FF0C60E2D
:100868000F6E000E046E0A0E036E5DC001F0026A80
:1008780012EC0BF001C009F002C00AF0000E0C6E79
:100888000A0E0B6E74EC0BF00950300FAAEC0FF047
:10089800C70E0F6E5DC009F00A6A000E0C6E0A0ED4
:1008A8000B6E74EC0BF00950300FAAEC0FF0400EF1
:1008B8001B6E0D0E1C6E030E1D6E000E1E6E1B06AB
:1008C800000E1C5A1D5A1E5A1B280AE11C2808E152
:1008D8001D2806E11E28D8A474EF04F076EF04F072
:1008E80063EF04F05D50D8A47CEF04F07EEF04F0D1
:1008F800D8EF04F0020E5C6E000E506E000E016E12
:10090800010E1CEC0FF0D8EF04F0480E036E2F0E0A
:10091800046E800E056EECEC0DF0C00E0F6E5C5090
:10092800300FAAEC0FF0C90E036E2F0E046EC10E25
:10093800056EECEC0DF0800E136E1A0E146E060E9A
:10094800156E000E166E000E176E000E186E000E55
:10095800196E000E1A6E1306000E145A155A165AFE
:10096800175A185A195A1A5A132812E1142810E15A
:1009780015280EE116280CE117280AE1182808E1C5
:10098800192806E11A28D8A4CCEF04F0CEEF04F019
:10099800AFEF04F05C06000E506E000E016E010E03
:1009A8001CEC0FF0D8EF04F01200186E100E181897
:1009B800D8A4E1EF04F0E3EF04F0E5EF04F0020E51
:1009C800546E4B50D8A4EBEF04F0EDEF04F052EF67
:1009D80005F0000E4A6E050E1818D8A4F6EF04F0BC
:1009E800F8EF04F011EF05F0FF0E4C24116E126AB7
:1009F800FF0E12224950136E146A1150135C1450E2
:100A0800800A156E1250800A1558D8B00EEF05F0FE
:100A180010EF05F011EF05F0492A060E1818D8A4B2
:100A280018EF05F01AEF05F023EF05F04950D8B498
:100A380020EF05F022EF05F023EF05F0490687C007
:100A480076F088C077F08AC078F08BC079F08DC0D6
:100A58007AF08EC07BF0430E00017C6F4C0E7D6FE8
:100A680042C001F043C002F0000E046E0A0E036E8D
:100A7800B2EC0DF00150300F00017E6F42C001F062
:100A880043C002F0000E046E0A0E036E54EC0EF022
:100A98000150300F00017F6F80EF05F04B04D8A4A0
:100AA80058EF05F05AEF05F080EF05F04CC04AF01A
:100AB800050E1818D8A463EF05F065EF05F06EEF82
:100AC80005F0090E49606BEF05F06DEF05F06EEF6C
:100AD80005F0492A060E1818D8A475EF05F077EF27
:100AE80005F080EF05F04950D8B47DEF05F07FEFB1
:100AF80005F080EF05F04906000E176E000E166E21
:100B080016506B0FD96EDA6A4A504924096E0A6A80
:100B18000A36000E0C6E0A0E0B6E74EC0BF00950C0
:100B28000A0DF350162454EC0FF0DF6E164A172AFC
:100B380017BEA8EF05F0175009E10A0E165CD8A0F9
:100B4800A8EF05F0AAEF05F084EF05F0260E036E76
:100B58002F0E046E800E056EECEC0DF0C00E0F6EBD
:100B68004950300FAAEC0FF0C20E0F6E00016B5106
:100B7800AAEC0FF0C30E0F6E00016C51AAEC0FF037
:100B8800C40E0F6E3A0EAAEC0FF0C50E0F6E0001E0
:100B98006D51AAEC0FF0C60E0F6E00016E51AAEC53
:100BA8000FF0C70E0F6E3A0EAAEC0FF0C80E0F6EBC
:100BB80000016F51AAEC0FF0C90E0F6E00017051C1
:100BC800AAEC0FF0CB0E0F6E00017151AAEC0FF0DA
:100BD800CC0E0F6E00017251AAEC0FF0CE0E0F6E04
:100BE80000017351AAEC0FF0CF0E0F6E0001745183
:100BF800AAEC0FF012006EEC0CF0000E77EC0DF082
:100C0800566E5628D8B40BEF06F00DEF06F025EF18
:100C180006F056C055F0404A412AF40E401806E145
:100C28004104D8A41AEF06F01CEF06F021EF06F0F5
:100C380056500A0F566E4EEF06F0000E566E4EEFE7
:100C480006F041BE30EF06F0415008E14004D8A05C
:100C580030EF06F032EF06F048EF06F041BE40EF05
:100C680006F0F40E405C010E4158D8B03EEF06F095
:100C780040EF06F048EF06F0000E416E000E406EA1
:100C880055C056F04EEF06F0000E416E000E406E55
:100C9800000E566EAE0E1A6E470E1B6E250E1C6E9B
:100CA800410E1D6E040ED9EC0EF001C008F002C012
:100CB80009F00A6A0B6A000EF3EC06F008C016F099
:100CC80009C017F00AC018F00BC019F009EC00F0C1
:100CD80016C02FF017C030F018C031F019C032F02C
:100CE8001FEC0AF02FC042F030C043F05450D8A493
:100CF80080EF06F082EF06F096EF06F00DEC09F0B3
:100D0800050E5618D8A48BEF06F08DEF06F001EF0C
:100D180006F0000E016E010E1CEC0FF0010E546E71
:100D280001EF06F05404D8A49CEF06F09EEF06F0FD
:100D3800A3EF06F0565065EC03F001EF06F0020E43
:100D48005418D8A4AAEF06F0ACEF06F0B1EF06F0FD
:100D580056506FEC08F001EF06F0030E5418D8A4B3
:100D6800B8EF06F0BAEF06F001EF06F05350D8A43A
:100D7800C0EF06F0C2EF06F0C7EF06F05650D9EC08
:100D880004F001EF06F0020E5318D8A4CEEF06F0D7
:100D9800D0EF06F0D5EF06F0565020EC0CF001EF3E
:100DA80006F05304D8A4DBEF06F0DDEF06F0E1EF20
:100DB80006F0CDEC07F001EF06F0040E5318D8A4A6
:100DC800E8EF06F0EAEF06F0EFEF06F05650D6EC43
:100DD80001F001EF06F001EF06F007EF00F0106EEA
:100DE8001050D8B4FAEF06F0FCEF06F01EEF07F04B
:100DF8000BBE03EF07F001EF07F01EEF07F008C086
:100E08000CF009C00DF00AC00EF00BC00FF00C1E5C
:100E18000D1E0E1E0F1E0C2A000E0D220E220F2272
:100E28000CC012F00DC013F00EC014F00FC015F076
:100E380026EF07F008C012F009C013F00AC014F03A
:100E48000BC015F0085009100A100B10D8A42FEF8A
:100E580007F031EF07F03BEF07F0000E086E000EC9
:100E6800096E000E0A6E000E0B6ECCEF07F0960EA0
:100E7800116E45EF07F0112AD8901532143213324B
:100E88001232000E12140C6E000E13140D6E000EAA
:100E980014140E6EFE0E15140F6E0C500D100E105D
:100EA8000F10D8A45AEF07F05CEF07F03FEF07F0F8
:100EB8006AEF07F0112A010E1226000E13221422DF
:100EC8001522D8901532143213321232000E121431
:100ED8000C6E000E13140D6E000E14140E6EFF0E21
:100EE80015140F6E0C500D100E100F10D8A47FEFB4
:100EF80007F081EF07F05EEF07F089EF07F01106C2
:100F0800D890123613361436153614BE8EEF07F005
:100F180090EF07F098EF07F0020E116096EF07F0D8
:100F280098EF07F083EF07F011B09DEF07F09FEF00
:100F380007F0A0EF07F0149ED890113211C00CF002
:100F48000D6A0E6A0F6A0CC00FF00E6A0D6A0C6A01
:100F58000C5012120D5013120E5014120F5015127D
:100F68001050D8B4BAEF07F0BCEF07F0C4EF07F0A1
:100F78000BBEC3EF07F0C1EF07F0C4EF07F0158E03
:100F880012C008F013C009F014C00AF015C00BF025
:100F98001200DF0E036E2E0E046E800E056EECEC52
:100FA8000DF0D80E036E2F0E046EC30E056EECEC1A
:100FB8000DF04B04D8A4E3EF07F0E5EF07F0E7EFF7
:100FC80007F00A0E476E4B50D8A4EDEF07F0EFEF8D
:100FD80007F0F1EF07F04CC047F0A60E026E2E0E98
:100FE800036E39EC0FF0000E466E5EEF08F0000E4F
:100FF800106E000E0F6E0F50600FD96EDA6A46C081
:1010080009F00A6A000E0C6E0A0E0B6E74EC0BF0F7
:1010180009500A0DF3500F2454EC0FF0DF6E0F4AFD
:10102800102A10BE21EF08F0105009E10A0E0F5CDB
:10103800D8A021EF08F023EF08F0FFEF07F0000138
:101048006051C1EC0FF000016151C1EC0FF03A0E94
:10105800C1EC0FF000016251C1EC0FF000016351C7
:10106800C1EC0FF03A0EC1EC0FF000016451C1EC75
:101078000FF000016551C1EC0FF0200EC1EC0FF02C
:1010880000016651C1EC0FF000016751C1EC0FF08F
:10109800200EC1EC0FF000016851C1EC0FF0000107
:1010A8006951C1EC0FF0B70E026E2E0E036E39ECCB
:1010B8000FF0462A4750465CD8A065EF08F067EF66
:1010C80008F0FBEF07F0440E00017C6F4C0E7D6FBB
:1010D800020E546E1200116E4D50020DF350AF0FF8
:1010E800D96EDA6ADECF03F0DDCF04F0820E056E2A
:1010F800ECEC0DF04D50020DF350B10FD96EDA6AD9
:10110800DECF03F0DDCF04F0C20E056EECEC0DF07F
:101118004F50D8A492EF08F094EF08F0A0EF08F031
:10112800800E0F6E2A0EAAEC0FF0C00E0F6E200E66
:10113800AAEC0FF0AAEF08F0800E0F6E200EAAECB2
:101148000FF0C00E0F6E2A0EAAEC0FF0050E111844
:10115800D8A4B1EF08F0B3EF08F0CAEF08F04F5089
:10116800D8A4B9EF08F0BBEF08F0C0EF08F0010E03
:101178004F6E4E2ACAEF08F0030E4D60C6EF08F016
:10118800C8EF08F0CAEF08F04D2A4E2A060E1118CB
:10119800D8A4D1EF08F0D3EF08F0EAEF08F04F0435
:1011A800D8A4D9EF08F0DBEF08F0E0EF08F0000E64
:1011B8004F6E4E06EAEF08F04D50D8B4E6EF08F04F
:1011C800E8EF08F0EAEF08F04D064E060F0E11188A
:1011D800D8A4F1EF08F0F3EF08F0FCEF08F0000EE8
:1011E800016E010E1CEC0FF0030E546E4EC053F04E
:1011F800100E1118D8A403EF09F005EF09F00CEF51
:1012080009F0000E016E010E1CEC0FF0000E546E7A
:1012180012006A0E036E2F0E046E800E056EECEC43
:101228000DF05150020DF3509F0FD96EDA6ADECFE0
:1012380003F0DDCF04F0CA0E056EECEC0DF0020EE3
:101248005618D8A42AEF09F02CEF09F037EF09F067
:10125800060E516032EF09F034EF09F037EF09F06C
:10126800512AA2EC0AF0030E5618D8A43EEF09F052
:1012780040EF09F054EF09F0070E5118D8B447EFC2
:1012880009F049EF09F054EF09F0010E51644FEFEE
:1012980009F051EF09F054EF09F05106A2EC0AF0F9
:1012A8005604D8A45AEF09F05CEF09F060EF09F092
:1012B800070E516EA2EC0AF0070E5118D8A467EF7A
:1012C80009F069EF09F076EF09F0020E5618D8A474
:1012D80070EF09F072EF09F076EF09F0020E516E27
:1012E800A2EC0AF0CE0E0F6E42C001F043C002F02D
:1012F800000E046E0A0E036EB2EC0DF00150300FB2
:10130800AAEC0FF0CF0E0F6E42C001F043C002F0FE
:10131800000E046E0A0E036E54EC0EF00150300FEE
:10132800AAEC0FF0F3EC0CF0F1EC0FF01200819A3C
:10133800818C818E81B2A3EF09F0A5EF09F0A8EFA7
:1013480009F0010E1EEF0AF081B4ADEF09F0AFEF1E
:1013580009F0B2EF09F0040E1EEF0AF081B6B7EFFC
:1013680009F0B9EF09F0BCEF09F0070E1EEF0AF01B
:1013780081B8C1EF09F0C3EF09F0C6EF09F00A0E12
:101388001EEF0AF0818A819C818E81B2CEEF09F02E
:10139800D0EF09F0D3EF09F0020E1EEF0AF081B486
:1013A800D8EF09F0DAEF09F0DDEF09F0050E1EEFCE
:1013B8000AF081B6E2EF09F0E4EF09F0E7EF09F08F
:1013C800080E1EEF0AF081B8ECEF09F0EEEF09F015
:1013D800F1EF09F00B0E1EEF0AF0818A818C819ED5
:1013E800819E81B2FAEF09F0FCEF09F0FFEF09F0F6
:1013F800030E1EEF0AF081B404EF0AF006EF0AF0BC
:1014080009EF0AF0060E1EEF0AF081B60EEF0AF099
:1014180010EF0AF013EF0AF0090E1EEF0AF081B878
:1014280018EF0AF01AEF0AF01DEF0AF00C0E1EEF83
:101438000AF0FF0E120031343234386E3850D8A416
:1014480028EF0AF02AEF0AF034EF0AF0000E2F6EA8
:10145800000E306E000E316E000E326EA1EF0AF0F3
:101468002FC033F030C034F031C035F032C036F020
:10147800200E44EF0AF0D890363235323432333207
:10148800E82E3FEF0AF03350376E318EFF0E2F16DD
:10149800FF0E3016FF0E3116000E3216960E385E0D
:1014A80038BE5BEF0AF059EF0AF071EF0AF03850D6
:1014B800800A970FD8B063EF0AF065EF0AF067EF7C
:1014C8000AF02AEF0AF0D8903232313230322F3215
:1014D800383E67EF0AF089EF0AF01F0E386477EF9D
:1014E8000AF079EF0AF081EF0AF02AEF0AF0D890B3
:1014F8002F3630363136323638063850D8A487EF92
:101508000AF089EF0AF07BEF0AF03750D8B48FEF72
:101518000AF091EF0AF099EF0AF0321E311E301EE0
:101528002F6C000E3022312232222FC02FF030C013
:1015380030F031C031F032C032F0120087C076F09E
:1015480088C077F08AC078F08BC079F08DC07AF0C7
:101558008EC07BF05150020DF3509F0FD96EDA6A9E
:10156800DECFF6FFDDCFF7FF0800F5CF7CF0515056
:10157800020DF3509F0FD96EDA6ADECF08F0DDCF87
:1015880009F0010E0826000E092208C0F6FF09C05E
:10159800F7FF0800F5CF7DF042C001F043C002F02C
:1015A800000E046E0A0E036EB2EC0DF00150300FFF
:1015B80000017E6F42C001F043C002F0000E046ECD
:1015C8000A0E036E54EC0EF00150300F00017F6FCD
:1015D800000E0A6E0A50760FD96EDA6ADF50026E74
:1015E8004C500A0DF3500A24FCEC0EF00A2A090E9E
:1015F8000A6401EF0BF003EF0BF0EEEF0AF04C2A50
:101608000A0E4C18D8A40BEF0BF00DEF0BF011EFEE
:101618000BF0000E4C6E010E4B6E1200000E066EA3
:1016280004BE1BEF0BF019EF0BF021EF0BF0036C6E
:10163800041ED8B0042A010E066E02BE28EF0BF075
:1016480026EF0BF02EEF0BF0016C021ED8B0022A29
:10165800010E061A000E086E000E076E03500410E5
:10166800D8B439EF0BF03BEF0BF063EF0BF0010E42
:10167800056E43EF0BF0D89003360436052A04AE06
:1016880048EF0BF04AEF0BF03FEF0BF0D89007361E
:1016980008360350015C04500258D8A056EF0BF0EE
:1016A80058EF0BF05DEF0BF00350015E0450025A47
:1016B8000780D89004320332052E4AEF0BF006500B
:1016C800D8B469EF0BF06BEF0BF06FEF0BF0076C12
:1016D800081ED8B0082A07C001F008C002F012009E
:1016E800000E0E6E0ABE7DEF0BF07BEF0BF083EF62
:1016F8000BF0096C0A1ED8B00A2A010E0E6E0CBE39
:101708008AEF0BF088EF0BF08EEF0BF00B6C0C1ED2
:10171800D8B00C2A0B500C10D8B495EF0BF097EFFB
:101728000BF0BBEF0BF0010E0D6E9FEF0BF0D89096
:101738000B360C360D2A0CAEA4EF0BF0A6EF0BF00F
:101748009BEF0BF00B50095C0C500A58D8A0AFEF78
:101758000BF0B1EF0BF0B5EF0BF00B50095E0C502E
:101768000A5AD8900C320B320D2EA6EF0BF00E5001
:10177800D8B4C1EF0BF0C3EF0BF0C7EF0BF0096C57
:101788000A1ED8B00A2A09C009F00AC00AF01200D5
:10179800000E956E9450F80B946E8290C30E036EF3
:1017A800CD0EE82EFED7032EFCD70000000E016EEA
:1017B800330E1CEC0FF01B0E036E9E0EE82EFED7A8
:1017C800032EFCD700D0000E016E330E1CEC0FF078
:1017D800A60EE82EFED700D0000E016E330E1CECCC
:1017E8000FF000D000D00000000E016E020E1CECBD
:1017F8000FF0A60EE82EFED700D0000E016E380EB0
:101808001CEC0FF0A60EE82EFED700D0000E016EDD
:10181800010E1CEC0FF0040E036E3E0EE82EFED7F0
:10182800032EFCD7000E016E0C0E1CEC0FF0A60E5A
:10183800E82EFED700D01200086E000E4C6E000E87
:101848004B6E030E036E2F0E046E800E056EECECCD
:101858000DF0F10E036E2E0E046EC00E056EECEC4C
:101868000DF087C076F088C077F08AC078F08BC01A
:1018780079F08DC07AF08EC07BF0430E00017C6F4A
:101888004C0E7D6F42C001F043C002F0000E046EA2
:101898000A0E036EB2EC0DF00150300F00017E6F9E
:1018A80042C001F043C002F0000E046E0A0E036E3F
:1018B80054EC0EF00150300F00017F6F100E081825
:1018C800D8A469EF0CF06BEF0CF06DEF0CF0020E82
:1018D800546E1200CCEC0BF0DFEC0FF07EEC0FF046
:1018E800B6EC0FF0B5EC0EF0CCEC0FF0D6EC0FF038
:1018F800300E026EC80EFCEC0EF0300E026EC90EF1
:10190800FCEC0EF0300E026ECA0EFCEC0EF0300E3F
:10191800026ECB0EFCEC0EF0000E076E000E066E8B
:1019280006509A0FD96EDA6A0650C80F54EC0FF0B9
:10193800DF6E064A072A07BEABEF0CF0075009E135
:10194800040E065CD8A0ABEF0CF0ADEF0CF094EFF2
:101958000CF0000E00019E6F1200000E086E000EC3
:10196800076E000E066E000E056EE2EF0CF00250D8
:101978000724D96EDA6A01500724E16EE26ADE5064
:10198800E618D8B4CAEF0CF0CCEF0CF0E0EF0CF08E
:1019980001500724D96EDA6ADF50036E025007241B
:1019A800D96EDA6ADF50046E0450035C056E066A6D
:1019B800D8A00606EEEF0CF0074A082A01500724C3
:1019C800D96EDA6ADF50D8A4ECEF0CF0EEEF0CF029
:1019D800BBEF0CF005C001F006C002F01200020EC9
:1019E80069EC0FF0396E010E69EC0FF03A6E000EDB
:1019F80069EC0FF03B6E39AC04EF0DF006EF0DF01B
:101A080012EF0DF039380F0B010B300F0001876F03
:101A180039500F0B300F886F1CEF0DF039380F0B52
:101A2800030B300F0001876F39500F0B300F886F91
:101A38003A0E896F3A380F0B0F0B300F8A6F3A50F6
:101A48000F0B300F8B6F3A0E8C6F3B380F0B0F0B51
:101A5800300F8D6F3B500F0B300F8E6F000E8F6F56
:101A68001200000E086E000E076E000E066E000EC5
:101A7800056E66EF0DF002500724D96EDA6A015040
:101A88000724E16EE26ADE50E618D8B44EEF0DF096
:101A980050EF0DF064EF0DF001500724D96EDA6AAB
:101AA800DF50036E02500724D96EDA6ADF50046EE5
:101AB8000450035C056E066AD8A0060672EF0DF0A6
:101AC800074A082A01500724D96EDA6ADF50D8A4D9
:101AD80070EF0DF072EF0DF03FEF0DF005C001F063
:101AE80006C002F01200016E0104D8A47EEF0DF0CA
:101AF80080EF0DF0A4EF0DF09BEC09F0526E522828
:101B0800D8B489EF0DF08BEF0DF098EF0DF05E5023
:101B1800D8B491EF0DF093EF0DF098EF0DF0000EA3
:101B28005E6E5250B1EF0DF05228D8A49EEF0DF022
:101B3800A0EF0DF0B0EF0DF0010E5E6EB0EF0DF0FE
:101B48000150D8A4AAEF0DF0ACEF0DF0B0EF0DF0F6
:101B58009BEC09F0B1EF0DF0FF0E1200000E066EBF
:101B6800000E056E03500410D8B4BDEF0DF0BFEFA2
:101B78000DF0E7EF0DF0010E076EC7EF0DF0D890EE
:101B880003360436072A04AECCEF0DF0CEEF0DF085
:101B9800C3EF0DF0D890053606360350015C0450AB
:101BA8000258D8A0DAEF0DF0DCEF0DF0E1EF0DF000
:101BB8000350015E0450025A0580D8900432033263
:101BC800072ECEEF0DF005C001F006C002F012009E
:101BD800000E016E05501CEC0FF009EF0EF0010E1F
:101BE800016E03C0F6FF04C0F7FFF86A050EF7643C
:101BF80003D00800F55005D0F6CFE9FFF7CFEAFF8C
:101C0800EF501CEC0FF0034A042A03C0F6FF04C08F
:101C1800F7FFF86A050EF76403D00800F55005D001
:101C2800F6CFE9FFF7CFEAFFEF500009D8A41FEF7E
:101C38000EF021EF0EF0F3EF0DF012003A0EF66EF3
:101C48001F0EF76E000EF86E00EE9FF010EE1AF001
:101C58000900F5CFEEFFE550E150FAE1300EF66EDF
:101C6800200EF76E000EF86E0900F5CF5CF0090043
:101C7800F5CF5DF00900F5CF5EF000EE60F03F0EA5
:101C8800EE6AE806FDE100EE39F0230EEE6AE8069A
:101C9800FDE15F905F92000EF86E0001FFEF05F026
:101CA80003500410D8B45BEF0EF05DEF0EF081EF37
:101CB8000EF0010E056E65EF0EF0D890033604366F
:101CC800052A04AE6AEF0EF06CEF0EF061EF0EF02D
:101CD8000350015C04500258D8A075EF0EF077EF5E
:101CE8000EF07BEF0EF00350015E0450025AD890BC
:101CF80004320332052E6CEF0EF001C001F002C071
:101D080002F012000600F2A48CEF0EF08EEF0EF037
:101D1800B3EF0EF0080ED624D66E000ED720D76E7D
:101D2800010E00018127000E822383238423210EC4
:101D3800811909E14E0E821983118411D8A4A7EFE5
:101D48000EF0A9EF0EF0B2EF0EF0000E816F000E4C
:101D5800826F000E836F000E846F5D06F2945F92AF
:101D68001100000E69EC0FF0046E04508009026E39
:101D7800000E8EEC0FF0020E69EC0FF0046E0450AA
:101D88004009026E020E8EEC0FF0930E026E070EE3
:101D98008EEC0FF0000E69EC0FF0046E04507F0B10
:101DA800026E000E8EEC0FF01200076E07C003F0F3
:101DB800D8900336D8900336C250C30B0310C26EB6
:101DC800C282C2B2EAEF0EF0ECEF0EF0E5EF0EF0D1
:101DD800C350C4CF03F0046A03C004F0036A0310BD
:101DE800056E0450066E05C001F006C002F0120030
:101DF800056E11EC10F0A00EFFEC0FF00550FFEC93
:101E08000FF00250FFEC0FF00DEC10F00B0E046E0B
:101E1800B80E036E0306D8A00406032806E10428BA
:101E2800D8A419EF0FF01BEF0FF00EEF0FF0120010
:101E3800026E01B022EF0FF025EF0FF0828226EF3D
:101E48000FF0829202C083FF82848294958E8280F2
:101E580082928284829483BE34EF0FF036EF0FF0C3
:101E68002DEF0FF08290959E120045EF0FF002C003
:101E7800F6FF03C0F7FF0800F550C1EC0FF0024A67
:101E8800032A02C0F6FF03C0F7FF0800F550000957
:101E9800D8A451EF0FF053EF0FF03BEF0FF0120003
:101EA800026E11EC10F0A00EFFEC0FF00250FFECE8
:101EB8000FF005EC10F0A10EFFEC0FF0F9EC0FF0AD
:101EC800036E0DEC10F003501200026E11EC10F0CE
:101ED800D00EFFEC0FF00250FFEC0FF005EC10F005
:101EE800D10EFFEC0FF0F9EC0FF0036E0DEC10F0D3
:101EF80003501200C08EC09AC088C096C090C0829D
:101F0800C094C292C19AC198000EC46E000EC36EEE
:101F1800C2801200036E11EC10F0D00EFFEC0FF02F
:101F28000350FFEC0FF00250FFEC0FF00DEC10F037
:101F38001200F82FFB2FF52FE92FEC2FEF2FF22FA0
:101F4800E62FAB2F8B2F372F7B2FBA2F106E000E5B
:101F5800016E0F501CEC0FF0010E016E10501CECBE
:101F68000FF0120094869488280EC66E310EC86E43
:101F7800C79CC78E9E96A1961200016E9EA8C7EFB9
:101F88000FF0C9EF0FF0C2EF0FF001C0ADFF120064
:101F9800D58CD59AD58ED586000ED76E060ED66E00
:101FA800F2941200948E949CAC84AB8EAB88810E14
:101FB800AF6E9D8A12000F0EC16E1E0E936EF19EBB
:101FC8008150E009816E12009EA6EDEF0FF0EFEF51
:101FD8000FF0E8EF0FF09E961200870E036E046A6A
:101FE800C00E056EECEC0DF0120009EC10F015ECCB
:101FF80010F0C9501200016E01C0C9FFE8EC0FF0E3
:102008001200C582E8EC0FF01200C586E8EC0FF06C
:102018001200C584E8EC0FF01200C580E8EC0FF060
:0B2028001200C58AC588120002B40136
:102E90000020205265747970652050617373776FDC
:102EA0007264203A2000232054494D4520202045BB
:102EB000562020205350200A0D0020506173737754
:102EC0006F7264204368616E676520200020204E89
:102ED00065772050617373776F7264203A20002009
:102EE00020446F776E6C6F6164204C6F67202020E8
:102EF00000202020202020202020202020202020F2
:102F00002020002020204C4F4720434C4541524573
:102F1000442020200020202053554343455353464E
:102F2000554C4C202000456E7465726564205669CE
:102F30006577204C6F6700436C656172204C6F674A
:102F400020202020202020002020205472792041A1
:102F50006761696E202020200020456E7465722014
:102F600050617373776F72642000202054494D457F
:102F70002020202045562020535000536574207493
:102F8000696D652020202020202000446F776E6C22
:102F90006F6164206C6F6720202000205379737468
:102FA000656D20426C6F636B6564005669657720C0
:102FB0004C6F67202020202020004368616E6765E9
:102FC000205061737377726400204368616E63659B
:102FD00073204C656674200020535543434553537A
:102FE00046554C4C200043200047310047320047F3
:0F2FF0003300473400474E004F4E004752000059
:020000040020DA
:08000000FFFFFFFFFFFFFFFF00
:020000040030CA
:0E000000FF071F1FFF8285FF0FC00FE00F409C
:00000001FF
